{
	"data": {
		"bytecode": {
			"linkReferences": {},
			"object": "608060405234801561000f575f80fd5b50604051611cc5380380611cc5833981810160405281019061003191906101d7565b805f73ffffffffffffffffffffffffffffffffffffffff168173ffffffffffffffffffffffffffffffffffffffff16036100a2575f6040517f1e4fbdf70000000000000000000000000000000000000000000000000000000081526004016100999190610211565b60405180910390fd5b6100b1816100b860201b60201c565b505061022a565b5f805f9054906101000a900473ffffffffffffffffffffffffffffffffffffffff169050815f806101000a81548173ffffffffffffffffffffffffffffffffffffffff021916908373ffffffffffffffffffffffffffffffffffffffff1602179055508173ffffffffffffffffffffffffffffffffffffffff168173ffffffffffffffffffffffffffffffffffffffff167f8be0079c531659141344cd1fd0a4f28419497f9722a3daafe3b4186f6b6457e060405160405180910390a35050565b5f80fd5b5f73ffffffffffffffffffffffffffffffffffffffff82169050919050565b5f6101a68261017d565b9050919050565b6101b68161019c565b81146101c0575f80fd5b50565b5f815190506101d1816101ad565b92915050565b5f602082840312156101ec576101eb610179565b5b5f6101f9848285016101c3565b91505092915050565b61020b8161019c565b82525050565b5f6020820190506102245f830184610202565b92915050565b611a8e806102375f395ff3fe608060405234801561000f575f80fd5b5060043610610086575f3560e01c8063715018a611610059578063715018a6146101115780638da5cb5b1461011b578063ade5a0a014610139578063f2fde38b1461015757610086565b80631d7dcba71461008a578063226b876c146100a65780632c7d3bdd146100d9578063651cb0f9146100f5575b5f80fd5b6100a4600480360381019061009f9190610f4c565b610173565b005b6100c060048036038101906100bb9190610faa565b61053c565b6040516100d09493929190611063565b60405180910390f35b6100f360048036038101906100ee91906111e0565b6106a2565b005b61010f600480360381019061010a919061127c565b610803565b005b610119610987565b005b61012361099a565b60405161013091906112ba565b60405180910390f35b6101416109c1565b60405161014e919061145b565b60405180910390f35b610171600480360381019061016c9190610f4c565b610b9b565b005b61017b610c1f565b5f61018582610ca6565b905060018054905081106101ce576040517f08c379a00000000000000000000000000000000000000000000000000000000081526004016101c5906114c5565b60405180910390fd5b5f600182815481106101e3576101e26114e3565b5b905f5260205f2090600402016040518060800160405290815f820180546102099061153d565b80601f01602080910402602001604051908101604052809291908181526020018280546102359061153d565b80156102805780601f1061025757610100808354040283529160200191610280565b820191905f5260205f20905b81548152906001019060200180831161026357829003601f168201915b505050505081526020016001820180546102999061153d565b80601f01602080910402602001604051908101604052809291908181526020018280546102c59061153d565b80156103105780601f106102e757610100808354040283529160200191610310565b820191905f5260205f20905b8154815290600101906020018083116102f357829003601f168201915b50505050508152602001600282015f9054906101000a900473ffffffffffffffffffffffffffffffffffffffff1673ffffffffffffffffffffffffffffffffffffffff1673ffffffffffffffffffffffffffffffffffffffff1681526020016003820154815250509050600180808054905061038c919061159a565b8154811061039d5761039c6114e3565b5b905f5260205f209060040201600183815481106103bd576103bc6114e3565b5b905f5260205f2090600402015f8201815f0190816103db919061177f565b50600182018160010190816103f0919061177f565b50600282015f9054906101000a900473ffffffffffffffffffffffffffffffffffffffff16816002015f6101000a81548173ffffffffffffffffffffffffffffffffffffffff021916908373ffffffffffffffffffffffffffffffffffffffff16021790555060038201548160030155905050600180548061047557610474611864565b5b600190038181905f5260205f2090600402015f8082015f6104969190610e4d565b600182015f6104a59190610e4d565b600282015f6101000a81549073ffffffffffffffffffffffffffffffffffffffff0219169055600382015f905550509055806040015173ffffffffffffffffffffffffffffffffffffffff167fb39363374ddfc8cdca31782d3e92557276ea3d9f9295fbfe4be3862707d31d81825f01518360200151846060015160405161052f93929190611891565b60405180910390a2505050565b6001818154811061054b575f80fd5b905f5260205f2090600402015f91509050805f01805461056a9061153d565b80601f01602080910402602001604051908101604052809291908181526020018280546105969061153d565b80156105e15780601f106105b8576101008083540402835291602001916105e1565b820191905f5260205f20905b8154815290600101906020018083116105c457829003601f168201915b5050505050908060010180546105f69061153d565b80601f01602080910402602001604051908101604052809291908181526020018280546106229061153d565b801561066d5780601f106106445761010080835404028352916020019161066d565b820191905f5260205f20905b81548152906001019060200180831161065057829003601f168201915b505050505090806002015f9054906101000a900473ffffffffffffffffffffffffffffffffffffffff16908060030154905084565b6106aa610c1f565b6106b2610e8a565b84815f018190525083816020018190525082816040019073ffffffffffffffffffffffffffffffffffffffff16908173ffffffffffffffffffffffffffffffffffffffff168152505081816060018181525050600181908060018154018082558091505060019003905f5260205f2090600402015f909190919091505f820151815f01908161074191906118d4565b50602082015181600101908161075791906118d4565b506040820151816002015f6101000a81548173ffffffffffffffffffffffffffffffffffffffff021916908373ffffffffffffffffffffffffffffffffffffffff1602179055506060820151816003015550508273ffffffffffffffffffffffffffffffffffffffff167ff38a947b354c36390a305d7b53a402563ae557e801e3b17485cdf12e36ae899d8686856040516107f493929190611891565b60405180910390a25050505050565b61080b610c1f565b5f60018054905090505f5b81811015610947578373ffffffffffffffffffffffffffffffffffffffff1660018281548110610849576108486114e3565b5b905f5260205f2090600402016002015f9054906101000a900473ffffffffffffffffffffffffffffffffffffffff1673ffffffffffffffffffffffffffffffffffffffff160361093a575f600182815481106108a8576108a76114e3565b5b905f5260205f20906004020160030154905083600183815481106108cf576108ce6114e3565b5b905f5260205f209060040201600301819055508473ffffffffffffffffffffffffffffffffffffffff167f38582773164c018623d54013a1e03e76d4d65b95cadd0aed69a2ab450e5827d1828660405161092a9291906119a3565b60405180910390a2505050610983565b8080600101915050610816565b506040517f08c379a000000000000000000000000000000000000000000000000000000000815260040161097a90611a3a565b60405180910390fd5b5050565b61098f610c1f565b6109985f610d85565b565b5f805f9054906101000a900473ffffffffffffffffffffffffffffffffffffffff16905090565b60606001805480602002602001604051908101604052809291908181526020015f905b82821015610b92578382905f5260205f2090600402016040518060800160405290815f82018054610a149061153d565b80601f0160208091040260200160405190810160405280929190818152602001828054610a409061153d565b8015610a8b5780601f10610a6257610100808354040283529160200191610a8b565b820191905f5260205f20905b815481529060010190602001808311610a6e57829003601f168201915b50505050508152602001600182018054610aa49061153d565b80601f0160208091040260200160405190810160405280929190818152602001828054610ad09061153d565b8015610b1b5780601f10610af257610100808354040283529160200191610b1b565b820191905f5260205f20905b815481529060010190602001808311610afe57829003601f168201915b50505050508152602001600282015f9054906101000a900473ffffffffffffffffffffffffffffffffffffffff1673ffffffffffffffffffffffffffffffffffffffff1673ffffffffffffffffffffffffffffffffffffffff168152602001600382015481525050815260200190600101906109e4565b50505050905090565b610ba3610c1f565b5f73ffffffffffffffffffffffffffffffffffffffff168173ffffffffffffffffffffffffffffffffffffffff1603610c13575f6040517f1e4fbdf7000000000000000000000000000000000000000000000000000000008152600401610c0a91906112ba565b60405180910390fd5b610c1c81610d85565b50565b610c27610e46565b73ffffffffffffffffffffffffffffffffffffffff16610c4561099a565b73ffffffffffffffffffffffffffffffffffffffff1614610ca457610c68610e46565b6040517f118cdaa7000000000000000000000000000000000000000000000000000000008152600401610c9b91906112ba565b60405180910390fd5b565b5f805f90505b600180549050811015610d44578273ffffffffffffffffffffffffffffffffffffffff1660018281548110610ce457610ce36114e3565b5b905f5260205f2090600402016002015f9054906101000a900473ffffffffffffffffffffffffffffffffffffffff1673ffffffffffffffffffffffffffffffffffffffff1603610d375780915050610d80565b8080600101915050610cac565b506040517f08c379a0000000000000000000000000000000000000000000000000000000008152600401610d77906114c5565b60405180910390fd5b919050565b5f805f9054906101000a900473ffffffffffffffffffffffffffffffffffffffff169050815f806101000a81548173ffffffffffffffffffffffffffffffffffffffff021916908373ffffffffffffffffffffffffffffffffffffffff1602179055508173ffffffffffffffffffffffffffffffffffffffff168173ffffffffffffffffffffffffffffffffffffffff167f8be0079c531659141344cd1fd0a4f28419497f9722a3daafe3b4186f6b6457e060405160405180910390a35050565b5f33905090565b508054610e599061153d565b5f825580601f10610e6a5750610e87565b601f0160209004905f5260205f2090810190610e869190610ec6565b5b50565b604051806080016040528060608152602001606081526020015f73ffffffffffffffffffffffffffffffffffffffff1681526020015f81525090565b5b80821115610edd575f815f905550600101610ec7565b5090565b5f604051905090565b5f80fd5b5f80fd5b5f73ffffffffffffffffffffffffffffffffffffffff82169050919050565b5f610f1b82610ef2565b9050919050565b610f2b81610f11565b8114610f35575f80fd5b50565b5f81359050610f4681610f22565b92915050565b5f60208284031215610f6157610f60610eea565b5b5f610f6e84828501610f38565b91505092915050565b5f819050919050565b610f8981610f77565b8114610f93575f80fd5b50565b5f81359050610fa481610f80565b92915050565b5f60208284031215610fbf57610fbe610eea565b5b5f610fcc84828501610f96565b91505092915050565b5f81519050919050565b5f82825260208201905092915050565b8281835e5f83830152505050565b5f601f19601f8301169050919050565b5f61101782610fd5565b6110218185610fdf565b9350611031818560208601610fef565b61103a81610ffd565b840191505092915050565b61104e81610f11565b82525050565b61105d81610f77565b82525050565b5f6080820190508181035f83015261107b818761100d565b9050818103602083015261108f818661100d565b905061109e6040830185611045565b6110ab6060830184611054565b95945050505050565b5f80fd5b5f80fd5b7f4e487b71000000000000000000000000000000000000000000000000000000005f52604160045260245ffd5b6110f282610ffd565b810181811067ffffffffffffffff82111715611111576111106110bc565b5b80604052505050565b5f611123610ee1565b905061112f82826110e9565b919050565b5f67ffffffffffffffff82111561114e5761114d6110bc565b5b61115782610ffd565b9050602081019050919050565b828183375f83830152505050565b5f61118461117f84611134565b61111a565b9050828152602081018484840111156111a05761119f6110b8565b5b6111ab848285611164565b509392505050565b5f82601f8301126111c7576111c66110b4565b5b81356111d7848260208601611172565b91505092915050565b5f805f80608085870312156111f8576111f7610eea565b5b5f85013567ffffffffffffffff81111561121557611214610eee565b5b611221878288016111b3565b945050602085013567ffffffffffffffff81111561124257611241610eee565b5b61124e878288016111b3565b935050604061125f87828801610f38565b925050606061127087828801610f96565b91505092959194509250565b5f806040838503121561129257611291610eea565b5b5f61129f85828601610f38565b92505060206112b085828601610f96565b9150509250929050565b5f6020820190506112cd5f830184611045565b92915050565b5f81519050919050565b5f82825260208201905092915050565b5f819050602082019050919050565b5f82825260208201905092915050565b5f61131682610fd5565b61132081856112fc565b9350611330818560208601610fef565b61133981610ffd565b840191505092915050565b61134d81610f11565b82525050565b61135c81610f77565b82525050565b5f608083015f8301518482035f86015261137c828261130c565b91505060208301518482036020860152611396828261130c565b91505060408301516113ab6040860182611344565b5060608301516113be6060860182611353565b508091505092915050565b5f6113d48383611362565b905092915050565b5f602082019050919050565b5f6113f2826112d3565b6113fc81856112dd565b93508360208202850161140e856112ed565b805f5b85811015611449578484038952815161142a85826113c9565b9450611435836113dc565b925060208a01995050600181019050611411565b50829750879550505050505092915050565b5f6020820190508181035f83015261147381846113e8565b905092915050565b7f53746f636b206e6f7420666f756e6400000000000000000000000000000000005f82015250565b5f6114af600f83610fdf565b91506114ba8261147b565b602082019050919050565b5f6020820190508181035f8301526114dc816114a3565b9050919050565b7f4e487b71000000000000000000000000000000000000000000000000000000005f52603260045260245ffd5b7f4e487b71000000000000000000000000000000000000000000000000000000005f52602260045260245ffd5b5f600282049050600182168061155457607f821691505b60208210810361156757611566611510565b5b50919050565b7f4e487b71000000000000000000000000000000000000000000000000000000005f52601160045260245ffd5b5f6115a482610f77565b91506115af83610f77565b92508282039050818111156115c7576115c661156d565b5b92915050565b5f815490506115db8161153d565b9050919050565b5f819050815f5260205f209050919050565b5f6020601f8301049050919050565b5f82821b905092915050565b5f6008830261163e7fffffffffffffffffffffffffffffffffffffffffffffffffffffffffffffffff82611603565b6116488683611603565b95508019841693508086168417925050509392505050565b5f819050919050565b5f61168361167e61167984610f77565b611660565b610f77565b9050919050565b5f819050919050565b61169c83611669565b6116b06116a88261168a565b84845461160f565b825550505050565b5f90565b6116c46116b8565b6116cf818484611693565b505050565b5b818110156116f2576116e75f826116bc565b6001810190506116d5565b5050565b601f82111561173757611708816115e2565b611711846115f4565b81016020851015611720578190505b61173461172c856115f4565b8301826116d4565b50505b505050565b5f82821c905092915050565b5f6117575f198460080261173c565b1980831691505092915050565b5f61176f8383611748565b9150826002028217905092915050565b81810361178d575050611862565b611796826115cd565b67ffffffffffffffff8111156117af576117ae6110bc565b5b6117b9825461153d565b6117c48282856116f6565b5f601f8311600181146117f1575f84156117df578287015490505b6117e98582611764565b86555061185b565b601f1984166117ff876115e2565b965061180a866115e2565b5f5b828110156118315784890154825560018201915060018501945060208101905061180c565b8683101561184e578489015461184a601f891682611748565b8355505b6001600288020188555050505b5050505050505b565b7f4e487b71000000000000000000000000000000000000000000000000000000005f52603160045260245ffd5b5f6060820190508181035f8301526118a9818661100d565b905081810360208301526118bd818561100d565b90506118cc6040830184611054565b949350505050565b6118dd82610fd5565b67ffffffffffffffff8111156118f6576118f56110bc565b5b611900825461153d565b61190b8282856116f6565b5f60209050601f83116001811461193c575f841561192a578287015190505b6119348582611764565b86555061199b565b601f19841661194a866115e2565b5f5b828110156119715784890151825560018201915060208501945060208101905061194c565b8683101561198e578489015161198a601f891682611748565b8355505b6001600288020188555050505b505050505050565b5f6040820190506119b65f830185611054565b6119c36020830184611054565b9392505050565b7f53746f636b2077697468207468697320636f6e747261637420616464726573735f8201527f206e6f7420666f756e6400000000000000000000000000000000000000000000602082015250565b5f611a24602a83610fdf565b9150611a2f826119ca565b604082019050919050565b5f6020820190508181035f830152611a5181611a18565b905091905056fea2646970667358221220cdb996b136dc4526163eb82444d553a091c23c73f8ab6e2e9caa4f9bbc39c68064736f6c634300081a0033",
			"opcodes": "PUSH1 0x80 PUSH1 0x40 MSTORE CALLVALUE DUP1 ISZERO PUSH2 0xF JUMPI PUSH0 DUP1 REVERT JUMPDEST POP PUSH1 0x40 MLOAD PUSH2 0x1CC5 CODESIZE SUB DUP1 PUSH2 0x1CC5 DUP4 CODECOPY DUP2 DUP2 ADD PUSH1 0x40 MSTORE DUP2 ADD SWAP1 PUSH2 0x31 SWAP2 SWAP1 PUSH2 0x1D7 JUMP JUMPDEST DUP1 PUSH0 PUSH20 0xFFFFFFFFFFFFFFFFFFFFFFFFFFFFFFFFFFFFFFFF AND DUP2 PUSH20 0xFFFFFFFFFFFFFFFFFFFFFFFFFFFFFFFFFFFFFFFF AND SUB PUSH2 0xA2 JUMPI PUSH0 PUSH1 0x40 MLOAD PUSH32 0x1E4FBDF700000000000000000000000000000000000000000000000000000000 DUP2 MSTORE PUSH1 0x4 ADD PUSH2 0x99 SWAP2 SWAP1 PUSH2 0x211 JUMP JUMPDEST PUSH1 0x40 MLOAD DUP1 SWAP2 SUB SWAP1 REVERT JUMPDEST PUSH2 0xB1 DUP2 PUSH2 0xB8 PUSH1 0x20 SHL PUSH1 0x20 SHR JUMP JUMPDEST POP POP PUSH2 0x22A JUMP JUMPDEST PUSH0 DUP1 PUSH0 SWAP1 SLOAD SWAP1 PUSH2 0x100 EXP SWAP1 DIV PUSH20 0xFFFFFFFFFFFFFFFFFFFFFFFFFFFFFFFFFFFFFFFF AND SWAP1 POP DUP2 PUSH0 DUP1 PUSH2 0x100 EXP DUP2 SLOAD DUP2 PUSH20 0xFFFFFFFFFFFFFFFFFFFFFFFFFFFFFFFFFFFFFFFF MUL NOT AND SWAP1 DUP4 PUSH20 0xFFFFFFFFFFFFFFFFFFFFFFFFFFFFFFFFFFFFFFFF AND MUL OR SWAP1 SSTORE POP DUP2 PUSH20 0xFFFFFFFFFFFFFFFFFFFFFFFFFFFFFFFFFFFFFFFF AND DUP2 PUSH20 0xFFFFFFFFFFFFFFFFFFFFFFFFFFFFFFFFFFFFFFFF AND PUSH32 0x8BE0079C531659141344CD1FD0A4F28419497F9722A3DAAFE3B4186F6B6457E0 PUSH1 0x40 MLOAD PUSH1 0x40 MLOAD DUP1 SWAP2 SUB SWAP1 LOG3 POP POP JUMP JUMPDEST PUSH0 DUP1 REVERT JUMPDEST PUSH0 PUSH20 0xFFFFFFFFFFFFFFFFFFFFFFFFFFFFFFFFFFFFFFFF DUP3 AND SWAP1 POP SWAP2 SWAP1 POP JUMP JUMPDEST PUSH0 PUSH2 0x1A6 DUP3 PUSH2 0x17D JUMP JUMPDEST SWAP1 POP SWAP2 SWAP1 POP JUMP JUMPDEST PUSH2 0x1B6 DUP2 PUSH2 0x19C JUMP JUMPDEST DUP2 EQ PUSH2 0x1C0 JUMPI PUSH0 DUP1 REVERT JUMPDEST POP JUMP JUMPDEST PUSH0 DUP2 MLOAD SWAP1 POP PUSH2 0x1D1 DUP2 PUSH2 0x1AD JUMP JUMPDEST SWAP3 SWAP2 POP POP JUMP JUMPDEST PUSH0 PUSH1 0x20 DUP3 DUP5 SUB SLT ISZERO PUSH2 0x1EC JUMPI PUSH2 0x1EB PUSH2 0x179 JUMP JUMPDEST JUMPDEST PUSH0 PUSH2 0x1F9 DUP5 DUP3 DUP6 ADD PUSH2 0x1C3 JUMP JUMPDEST SWAP2 POP POP SWAP3 SWAP2 POP POP JUMP JUMPDEST PUSH2 0x20B DUP2 PUSH2 0x19C JUMP JUMPDEST DUP3 MSTORE POP POP JUMP JUMPDEST PUSH0 PUSH1 0x20 DUP3 ADD SWAP1 POP PUSH2 0x224 PUSH0 DUP4 ADD DUP5 PUSH2 0x202 JUMP JUMPDEST SWAP3 SWAP2 POP POP JUMP JUMPDEST PUSH2 0x1A8E DUP1 PUSH2 0x237 PUSH0 CODECOPY PUSH0 RETURN INVALID PUSH1 0x80 PUSH1 0x40 MSTORE CALLVALUE DUP1 ISZERO PUSH2 0xF JUMPI PUSH0 DUP1 REVERT JUMPDEST POP PUSH1 0x4 CALLDATASIZE LT PUSH2 0x86 JUMPI PUSH0 CALLDATALOAD PUSH1 0xE0 SHR DUP1 PUSH4 0x715018A6 GT PUSH2 0x59 JUMPI DUP1 PUSH4 0x715018A6 EQ PUSH2 0x111 JUMPI DUP1 PUSH4 0x8DA5CB5B EQ PUSH2 0x11B JUMPI DUP1 PUSH4 0xADE5A0A0 EQ PUSH2 0x139 JUMPI DUP1 PUSH4 0xF2FDE38B EQ PUSH2 0x157 JUMPI PUSH2 0x86 JUMP JUMPDEST DUP1 PUSH4 0x1D7DCBA7 EQ PUSH2 0x8A JUMPI DUP1 PUSH4 0x226B876C EQ PUSH2 0xA6 JUMPI DUP1 PUSH4 0x2C7D3BDD EQ PUSH2 0xD9 JUMPI DUP1 PUSH4 0x651CB0F9 EQ PUSH2 0xF5 JUMPI JUMPDEST PUSH0 DUP1 REVERT JUMPDEST PUSH2 0xA4 PUSH1 0x4 DUP1 CALLDATASIZE SUB DUP2 ADD SWAP1 PUSH2 0x9F SWAP2 SWAP1 PUSH2 0xF4C JUMP JUMPDEST PUSH2 0x173 JUMP JUMPDEST STOP JUMPDEST PUSH2 0xC0 PUSH1 0x4 DUP1 CALLDATASIZE SUB DUP2 ADD SWAP1 PUSH2 0xBB SWAP2 SWAP1 PUSH2 0xFAA JUMP JUMPDEST PUSH2 0x53C JUMP JUMPDEST PUSH1 0x40 MLOAD PUSH2 0xD0 SWAP5 SWAP4 SWAP3 SWAP2 SWAP1 PUSH2 0x1063 JUMP JUMPDEST PUSH1 0x40 MLOAD DUP1 SWAP2 SUB SWAP1 RETURN JUMPDEST PUSH2 0xF3 PUSH1 0x4 DUP1 CALLDATASIZE SUB DUP2 ADD SWAP1 PUSH2 0xEE SWAP2 SWAP1 PUSH2 0x11E0 JUMP JUMPDEST PUSH2 0x6A2 JUMP JUMPDEST STOP JUMPDEST PUSH2 0x10F PUSH1 0x4 DUP1 CALLDATASIZE SUB DUP2 ADD SWAP1 PUSH2 0x10A SWAP2 SWAP1 PUSH2 0x127C JUMP JUMPDEST PUSH2 0x803 JUMP JUMPDEST STOP JUMPDEST PUSH2 0x119 PUSH2 0x987 JUMP JUMPDEST STOP JUMPDEST PUSH2 0x123 PUSH2 0x99A JUMP JUMPDEST PUSH1 0x40 MLOAD PUSH2 0x130 SWAP2 SWAP1 PUSH2 0x12BA JUMP JUMPDEST PUSH1 0x40 MLOAD DUP1 SWAP2 SUB SWAP1 RETURN JUMPDEST PUSH2 0x141 PUSH2 0x9C1 JUMP JUMPDEST PUSH1 0x40 MLOAD PUSH2 0x14E SWAP2 SWAP1 PUSH2 0x145B JUMP JUMPDEST PUSH1 0x40 MLOAD DUP1 SWAP2 SUB SWAP1 RETURN JUMPDEST PUSH2 0x171 PUSH1 0x4 DUP1 CALLDATASIZE SUB DUP2 ADD SWAP1 PUSH2 0x16C SWAP2 SWAP1 PUSH2 0xF4C JUMP JUMPDEST PUSH2 0xB9B JUMP JUMPDEST STOP JUMPDEST PUSH2 0x17B PUSH2 0xC1F JUMP JUMPDEST PUSH0 PUSH2 0x185 DUP3 PUSH2 0xCA6 JUMP JUMPDEST SWAP1 POP PUSH1 0x1 DUP1 SLOAD SWAP1 POP DUP2 LT PUSH2 0x1CE JUMPI PUSH1 0x40 MLOAD PUSH32 0x8C379A000000000000000000000000000000000000000000000000000000000 DUP2 MSTORE PUSH1 0x4 ADD PUSH2 0x1C5 SWAP1 PUSH2 0x14C5 JUMP JUMPDEST PUSH1 0x40 MLOAD DUP1 SWAP2 SUB SWAP1 REVERT JUMPDEST PUSH0 PUSH1 0x1 DUP3 DUP2 SLOAD DUP2 LT PUSH2 0x1E3 JUMPI PUSH2 0x1E2 PUSH2 0x14E3 JUMP JUMPDEST JUMPDEST SWAP1 PUSH0 MSTORE PUSH1 0x20 PUSH0 KECCAK256 SWAP1 PUSH1 0x4 MUL ADD PUSH1 0x40 MLOAD DUP1 PUSH1 0x80 ADD PUSH1 0x40 MSTORE SWAP1 DUP2 PUSH0 DUP3 ADD DUP1 SLOAD PUSH2 0x209 SWAP1 PUSH2 0x153D JUMP JUMPDEST DUP1 PUSH1 0x1F ADD PUSH1 0x20 DUP1 SWAP2 DIV MUL PUSH1 0x20 ADD PUSH1 0x40 MLOAD SWAP1 DUP2 ADD PUSH1 0x40 MSTORE DUP1 SWAP3 SWAP2 SWAP1 DUP2 DUP2 MSTORE PUSH1 0x20 ADD DUP3 DUP1 SLOAD PUSH2 0x235 SWAP1 PUSH2 0x153D JUMP JUMPDEST DUP1 ISZERO PUSH2 0x280 JUMPI DUP1 PUSH1 0x1F LT PUSH2 0x257 JUMPI PUSH2 0x100 DUP1 DUP4 SLOAD DIV MUL DUP4 MSTORE SWAP2 PUSH1 0x20 ADD SWAP2 PUSH2 0x280 JUMP JUMPDEST DUP3 ADD SWAP2 SWAP1 PUSH0 MSTORE PUSH1 0x20 PUSH0 KECCAK256 SWAP1 JUMPDEST DUP2 SLOAD DUP2 MSTORE SWAP1 PUSH1 0x1 ADD SWAP1 PUSH1 0x20 ADD DUP1 DUP4 GT PUSH2 0x263 JUMPI DUP3 SWAP1 SUB PUSH1 0x1F AND DUP3 ADD SWAP2 JUMPDEST POP POP POP POP POP DUP2 MSTORE PUSH1 0x20 ADD PUSH1 0x1 DUP3 ADD DUP1 SLOAD PUSH2 0x299 SWAP1 PUSH2 0x153D JUMP JUMPDEST DUP1 PUSH1 0x1F ADD PUSH1 0x20 DUP1 SWAP2 DIV MUL PUSH1 0x20 ADD PUSH1 0x40 MLOAD SWAP1 DUP2 ADD PUSH1 0x40 MSTORE DUP1 SWAP3 SWAP2 SWAP1 DUP2 DUP2 MSTORE PUSH1 0x20 ADD DUP3 DUP1 SLOAD PUSH2 0x2C5 SWAP1 PUSH2 0x153D JUMP JUMPDEST DUP1 ISZERO PUSH2 0x310 JUMPI DUP1 PUSH1 0x1F LT PUSH2 0x2E7 JUMPI PUSH2 0x100 DUP1 DUP4 SLOAD DIV MUL DUP4 MSTORE SWAP2 PUSH1 0x20 ADD SWAP2 PUSH2 0x310 JUMP JUMPDEST DUP3 ADD SWAP2 SWAP1 PUSH0 MSTORE PUSH1 0x20 PUSH0 KECCAK256 SWAP1 JUMPDEST DUP2 SLOAD DUP2 MSTORE SWAP1 PUSH1 0x1 ADD SWAP1 PUSH1 0x20 ADD DUP1 DUP4 GT PUSH2 0x2F3 JUMPI DUP3 SWAP1 SUB PUSH1 0x1F AND DUP3 ADD SWAP2 JUMPDEST POP POP POP POP POP DUP2 MSTORE PUSH1 0x20 ADD PUSH1 0x2 DUP3 ADD PUSH0 SWAP1 SLOAD SWAP1 PUSH2 0x100 EXP SWAP1 DIV PUSH20 0xFFFFFFFFFFFFFFFFFFFFFFFFFFFFFFFFFFFFFFFF AND PUSH20 0xFFFFFFFFFFFFFFFFFFFFFFFFFFFFFFFFFFFFFFFF AND PUSH20 0xFFFFFFFFFFFFFFFFFFFFFFFFFFFFFFFFFFFFFFFF AND DUP2 MSTORE PUSH1 0x20 ADD PUSH1 0x3 DUP3 ADD SLOAD DUP2 MSTORE POP POP SWAP1 POP PUSH1 0x1 DUP1 DUP1 DUP1 SLOAD SWAP1 POP PUSH2 0x38C SWAP2 SWAP1 PUSH2 0x159A JUMP JUMPDEST DUP2 SLOAD DUP2 LT PUSH2 0x39D JUMPI PUSH2 0x39C PUSH2 0x14E3 JUMP JUMPDEST JUMPDEST SWAP1 PUSH0 MSTORE PUSH1 0x20 PUSH0 KECCAK256 SWAP1 PUSH1 0x4 MUL ADD PUSH1 0x1 DUP4 DUP2 SLOAD DUP2 LT PUSH2 0x3BD JUMPI PUSH2 0x3BC PUSH2 0x14E3 JUMP JUMPDEST JUMPDEST SWAP1 PUSH0 MSTORE PUSH1 0x20 PUSH0 KECCAK256 SWAP1 PUSH1 0x4 MUL ADD PUSH0 DUP3 ADD DUP2 PUSH0 ADD SWAP1 DUP2 PUSH2 0x3DB SWAP2 SWAP1 PUSH2 0x177F JUMP JUMPDEST POP PUSH1 0x1 DUP3 ADD DUP2 PUSH1 0x1 ADD SWAP1 DUP2 PUSH2 0x3F0 SWAP2 SWAP1 PUSH2 0x177F JUMP JUMPDEST POP PUSH1 0x2 DUP3 ADD PUSH0 SWAP1 SLOAD SWAP1 PUSH2 0x100 EXP SWAP1 DIV PUSH20 0xFFFFFFFFFFFFFFFFFFFFFFFFFFFFFFFFFFFFFFFF AND DUP2 PUSH1 0x2 ADD PUSH0 PUSH2 0x100 EXP DUP2 SLOAD DUP2 PUSH20 0xFFFFFFFFFFFFFFFFFFFFFFFFFFFFFFFFFFFFFFFF MUL NOT AND SWAP1 DUP4 PUSH20 0xFFFFFFFFFFFFFFFFFFFFFFFFFFFFFFFFFFFFFFFF AND MUL OR SWAP1 SSTORE POP PUSH1 0x3 DUP3 ADD SLOAD DUP2 PUSH1 0x3 ADD SSTORE SWAP1 POP POP PUSH1 0x1 DUP1 SLOAD DUP1 PUSH2 0x475 JUMPI PUSH2 0x474 PUSH2 0x1864 JUMP JUMPDEST JUMPDEST PUSH1 0x1 SWAP1 SUB DUP2 DUP2 SWAP1 PUSH0 MSTORE PUSH1 0x20 PUSH0 KECCAK256 SWAP1 PUSH1 0x4 MUL ADD PUSH0 DUP1 DUP3 ADD PUSH0 PUSH2 0x496 SWAP2 SWAP1 PUSH2 0xE4D JUMP JUMPDEST PUSH1 0x1 DUP3 ADD PUSH0 PUSH2 0x4A5 SWAP2 SWAP1 PUSH2 0xE4D JUMP JUMPDEST PUSH1 0x2 DUP3 ADD PUSH0 PUSH2 0x100 EXP DUP2 SLOAD SWAP1 PUSH20 0xFFFFFFFFFFFFFFFFFFFFFFFFFFFFFFFFFFFFFFFF MUL NOT AND SWAP1 SSTORE PUSH1 0x3 DUP3 ADD PUSH0 SWAP1 SSTORE POP POP SWAP1 SSTORE DUP1 PUSH1 0x40 ADD MLOAD PUSH20 0xFFFFFFFFFFFFFFFFFFFFFFFFFFFFFFFFFFFFFFFF AND PUSH32 0xB39363374DDFC8CDCA31782D3E92557276EA3D9F9295FBFE4BE3862707D31D81 DUP3 PUSH0 ADD MLOAD DUP4 PUSH1 0x20 ADD MLOAD DUP5 PUSH1 0x60 ADD MLOAD PUSH1 0x40 MLOAD PUSH2 0x52F SWAP4 SWAP3 SWAP2 SWAP1 PUSH2 0x1891 JUMP JUMPDEST PUSH1 0x40 MLOAD DUP1 SWAP2 SUB SWAP1 LOG2 POP POP POP JUMP JUMPDEST PUSH1 0x1 DUP2 DUP2 SLOAD DUP2 LT PUSH2 0x54B JUMPI PUSH0 DUP1 REVERT JUMPDEST SWAP1 PUSH0 MSTORE PUSH1 0x20 PUSH0 KECCAK256 SWAP1 PUSH1 0x4 MUL ADD PUSH0 SWAP2 POP SWAP1 POP DUP1 PUSH0 ADD DUP1 SLOAD PUSH2 0x56A SWAP1 PUSH2 0x153D JUMP JUMPDEST DUP1 PUSH1 0x1F ADD PUSH1 0x20 DUP1 SWAP2 DIV MUL PUSH1 0x20 ADD PUSH1 0x40 MLOAD SWAP1 DUP2 ADD PUSH1 0x40 MSTORE DUP1 SWAP3 SWAP2 SWAP1 DUP2 DUP2 MSTORE PUSH1 0x20 ADD DUP3 DUP1 SLOAD PUSH2 0x596 SWAP1 PUSH2 0x153D JUMP JUMPDEST DUP1 ISZERO PUSH2 0x5E1 JUMPI DUP1 PUSH1 0x1F LT PUSH2 0x5B8 JUMPI PUSH2 0x100 DUP1 DUP4 SLOAD DIV MUL DUP4 MSTORE SWAP2 PUSH1 0x20 ADD SWAP2 PUSH2 0x5E1 JUMP JUMPDEST DUP3 ADD SWAP2 SWAP1 PUSH0 MSTORE PUSH1 0x20 PUSH0 KECCAK256 SWAP1 JUMPDEST DUP2 SLOAD DUP2 MSTORE SWAP1 PUSH1 0x1 ADD SWAP1 PUSH1 0x20 ADD DUP1 DUP4 GT PUSH2 0x5C4 JUMPI DUP3 SWAP1 SUB PUSH1 0x1F AND DUP3 ADD SWAP2 JUMPDEST POP POP POP POP POP SWAP1 DUP1 PUSH1 0x1 ADD DUP1 SLOAD PUSH2 0x5F6 SWAP1 PUSH2 0x153D JUMP JUMPDEST DUP1 PUSH1 0x1F ADD PUSH1 0x20 DUP1 SWAP2 DIV MUL PUSH1 0x20 ADD PUSH1 0x40 MLOAD SWAP1 DUP2 ADD PUSH1 0x40 MSTORE DUP1 SWAP3 SWAP2 SWAP1 DUP2 DUP2 MSTORE PUSH1 0x20 ADD DUP3 DUP1 SLOAD PUSH2 0x622 SWAP1 PUSH2 0x153D JUMP JUMPDEST DUP1 ISZERO PUSH2 0x66D JUMPI DUP1 PUSH1 0x1F LT PUSH2 0x644 JUMPI PUSH2 0x100 DUP1 DUP4 SLOAD DIV MUL DUP4 MSTORE SWAP2 PUSH1 0x20 ADD SWAP2 PUSH2 0x66D JUMP JUMPDEST DUP3 ADD SWAP2 SWAP1 PUSH0 MSTORE PUSH1 0x20 PUSH0 KECCAK256 SWAP1 JUMPDEST DUP2 SLOAD DUP2 MSTORE SWAP1 PUSH1 0x1 ADD SWAP1 PUSH1 0x20 ADD DUP1 DUP4 GT PUSH2 0x650 JUMPI DUP3 SWAP1 SUB PUSH1 0x1F AND DUP3 ADD SWAP2 JUMPDEST POP POP POP POP POP SWAP1 DUP1 PUSH1 0x2 ADD PUSH0 SWAP1 SLOAD SWAP1 PUSH2 0x100 EXP SWAP1 DIV PUSH20 0xFFFFFFFFFFFFFFFFFFFFFFFFFFFFFFFFFFFFFFFF AND SWAP1 DUP1 PUSH1 0x3 ADD SLOAD SWAP1 POP DUP5 JUMP JUMPDEST PUSH2 0x6AA PUSH2 0xC1F JUMP JUMPDEST PUSH2 0x6B2 PUSH2 0xE8A JUMP JUMPDEST DUP5 DUP2 PUSH0 ADD DUP2 SWAP1 MSTORE POP DUP4 DUP2 PUSH1 0x20 ADD DUP2 SWAP1 MSTORE POP DUP3 DUP2 PUSH1 0x40 ADD SWAP1 PUSH20 0xFFFFFFFFFFFFFFFFFFFFFFFFFFFFFFFFFFFFFFFF AND SWAP1 DUP2 PUSH20 0xFFFFFFFFFFFFFFFFFFFFFFFFFFFFFFFFFFFFFFFF AND DUP2 MSTORE POP POP DUP2 DUP2 PUSH1 0x60 ADD DUP2 DUP2 MSTORE POP POP PUSH1 0x1 DUP2 SWAP1 DUP1 PUSH1 0x1 DUP2 SLOAD ADD DUP1 DUP3 SSTORE DUP1 SWAP2 POP POP PUSH1 0x1 SWAP1 SUB SWAP1 PUSH0 MSTORE PUSH1 0x20 PUSH0 KECCAK256 SWAP1 PUSH1 0x4 MUL ADD PUSH0 SWAP1 SWAP2 SWAP1 SWAP2 SWAP1 SWAP2 POP PUSH0 DUP3 ADD MLOAD DUP2 PUSH0 ADD SWAP1 DUP2 PUSH2 0x741 SWAP2 SWAP1 PUSH2 0x18D4 JUMP JUMPDEST POP PUSH1 0x20 DUP3 ADD MLOAD DUP2 PUSH1 0x1 ADD SWAP1 DUP2 PUSH2 0x757 SWAP2 SWAP1 PUSH2 0x18D4 JUMP JUMPDEST POP PUSH1 0x40 DUP3 ADD MLOAD DUP2 PUSH1 0x2 ADD PUSH0 PUSH2 0x100 EXP DUP2 SLOAD DUP2 PUSH20 0xFFFFFFFFFFFFFFFFFFFFFFFFFFFFFFFFFFFFFFFF MUL NOT AND SWAP1 DUP4 PUSH20 0xFFFFFFFFFFFFFFFFFFFFFFFFFFFFFFFFFFFFFFFF AND MUL OR SWAP1 SSTORE POP PUSH1 0x60 DUP3 ADD MLOAD DUP2 PUSH1 0x3 ADD SSTORE POP POP DUP3 PUSH20 0xFFFFFFFFFFFFFFFFFFFFFFFFFFFFFFFFFFFFFFFF AND PUSH32 0xF38A947B354C36390A305D7B53A402563AE557E801E3B17485CDF12E36AE899D DUP7 DUP7 DUP6 PUSH1 0x40 MLOAD PUSH2 0x7F4 SWAP4 SWAP3 SWAP2 SWAP1 PUSH2 0x1891 JUMP JUMPDEST PUSH1 0x40 MLOAD DUP1 SWAP2 SUB SWAP1 LOG2 POP POP POP POP POP JUMP JUMPDEST PUSH2 0x80B PUSH2 0xC1F JUMP JUMPDEST PUSH0 PUSH1 0x1 DUP1 SLOAD SWAP1 POP SWAP1 POP PUSH0 JUMPDEST DUP2 DUP2 LT ISZERO PUSH2 0x947 JUMPI DUP4 PUSH20 0xFFFFFFFFFFFFFFFFFFFFFFFFFFFFFFFFFFFFFFFF AND PUSH1 0x1 DUP3 DUP2 SLOAD DUP2 LT PUSH2 0x849 JUMPI PUSH2 0x848 PUSH2 0x14E3 JUMP JUMPDEST JUMPDEST SWAP1 PUSH0 MSTORE PUSH1 0x20 PUSH0 KECCAK256 SWAP1 PUSH1 0x4 MUL ADD PUSH1 0x2 ADD PUSH0 SWAP1 SLOAD SWAP1 PUSH2 0x100 EXP SWAP1 DIV PUSH20 0xFFFFFFFFFFFFFFFFFFFFFFFFFFFFFFFFFFFFFFFF AND PUSH20 0xFFFFFFFFFFFFFFFFFFFFFFFFFFFFFFFFFFFFFFFF AND SUB PUSH2 0x93A JUMPI PUSH0 PUSH1 0x1 DUP3 DUP2 SLOAD DUP2 LT PUSH2 0x8A8 JUMPI PUSH2 0x8A7 PUSH2 0x14E3 JUMP JUMPDEST JUMPDEST SWAP1 PUSH0 MSTORE PUSH1 0x20 PUSH0 KECCAK256 SWAP1 PUSH1 0x4 MUL ADD PUSH1 0x3 ADD SLOAD SWAP1 POP DUP4 PUSH1 0x1 DUP4 DUP2 SLOAD DUP2 LT PUSH2 0x8CF JUMPI PUSH2 0x8CE PUSH2 0x14E3 JUMP JUMPDEST JUMPDEST SWAP1 PUSH0 MSTORE PUSH1 0x20 PUSH0 KECCAK256 SWAP1 PUSH1 0x4 MUL ADD PUSH1 0x3 ADD DUP2 SWAP1 SSTORE POP DUP5 PUSH20 0xFFFFFFFFFFFFFFFFFFFFFFFFFFFFFFFFFFFFFFFF AND PUSH32 0x38582773164C018623D54013A1E03E76D4D65B95CADD0AED69A2AB450E5827D1 DUP3 DUP7 PUSH1 0x40 MLOAD PUSH2 0x92A SWAP3 SWAP2 SWAP1 PUSH2 0x19A3 JUMP JUMPDEST PUSH1 0x40 MLOAD DUP1 SWAP2 SUB SWAP1 LOG2 POP POP POP PUSH2 0x983 JUMP JUMPDEST DUP1 DUP1 PUSH1 0x1 ADD SWAP2 POP POP PUSH2 0x816 JUMP JUMPDEST POP PUSH1 0x40 MLOAD PUSH32 0x8C379A000000000000000000000000000000000000000000000000000000000 DUP2 MSTORE PUSH1 0x4 ADD PUSH2 0x97A SWAP1 PUSH2 0x1A3A JUMP JUMPDEST PUSH1 0x40 MLOAD DUP1 SWAP2 SUB SWAP1 REVERT JUMPDEST POP POP JUMP JUMPDEST PUSH2 0x98F PUSH2 0xC1F JUMP JUMPDEST PUSH2 0x998 PUSH0 PUSH2 0xD85 JUMP JUMPDEST JUMP JUMPDEST PUSH0 DUP1 PUSH0 SWAP1 SLOAD SWAP1 PUSH2 0x100 EXP SWAP1 DIV PUSH20 0xFFFFFFFFFFFFFFFFFFFFFFFFFFFFFFFFFFFFFFFF AND SWAP1 POP SWAP1 JUMP JUMPDEST PUSH1 0x60 PUSH1 0x1 DUP1 SLOAD DUP1 PUSH1 0x20 MUL PUSH1 0x20 ADD PUSH1 0x40 MLOAD SWAP1 DUP2 ADD PUSH1 0x40 MSTORE DUP1 SWAP3 SWAP2 SWAP1 DUP2 DUP2 MSTORE PUSH1 0x20 ADD PUSH0 SWAP1 JUMPDEST DUP3 DUP3 LT ISZERO PUSH2 0xB92 JUMPI DUP4 DUP3 SWAP1 PUSH0 MSTORE PUSH1 0x20 PUSH0 KECCAK256 SWAP1 PUSH1 0x4 MUL ADD PUSH1 0x40 MLOAD DUP1 PUSH1 0x80 ADD PUSH1 0x40 MSTORE SWAP1 DUP2 PUSH0 DUP3 ADD DUP1 SLOAD PUSH2 0xA14 SWAP1 PUSH2 0x153D JUMP JUMPDEST DUP1 PUSH1 0x1F ADD PUSH1 0x20 DUP1 SWAP2 DIV MUL PUSH1 0x20 ADD PUSH1 0x40 MLOAD SWAP1 DUP2 ADD PUSH1 0x40 MSTORE DUP1 SWAP3 SWAP2 SWAP1 DUP2 DUP2 MSTORE PUSH1 0x20 ADD DUP3 DUP1 SLOAD PUSH2 0xA40 SWAP1 PUSH2 0x153D JUMP JUMPDEST DUP1 ISZERO PUSH2 0xA8B JUMPI DUP1 PUSH1 0x1F LT PUSH2 0xA62 JUMPI PUSH2 0x100 DUP1 DUP4 SLOAD DIV MUL DUP4 MSTORE SWAP2 PUSH1 0x20 ADD SWAP2 PUSH2 0xA8B JUMP JUMPDEST DUP3 ADD SWAP2 SWAP1 PUSH0 MSTORE PUSH1 0x20 PUSH0 KECCAK256 SWAP1 JUMPDEST DUP2 SLOAD DUP2 MSTORE SWAP1 PUSH1 0x1 ADD SWAP1 PUSH1 0x20 ADD DUP1 DUP4 GT PUSH2 0xA6E JUMPI DUP3 SWAP1 SUB PUSH1 0x1F AND DUP3 ADD SWAP2 JUMPDEST POP POP POP POP POP DUP2 MSTORE PUSH1 0x20 ADD PUSH1 0x1 DUP3 ADD DUP1 SLOAD PUSH2 0xAA4 SWAP1 PUSH2 0x153D JUMP JUMPDEST DUP1 PUSH1 0x1F ADD PUSH1 0x20 DUP1 SWAP2 DIV MUL PUSH1 0x20 ADD PUSH1 0x40 MLOAD SWAP1 DUP2 ADD PUSH1 0x40 MSTORE DUP1 SWAP3 SWAP2 SWAP1 DUP2 DUP2 MSTORE PUSH1 0x20 ADD DUP3 DUP1 SLOAD PUSH2 0xAD0 SWAP1 PUSH2 0x153D JUMP JUMPDEST DUP1 ISZERO PUSH2 0xB1B JUMPI DUP1 PUSH1 0x1F LT PUSH2 0xAF2 JUMPI PUSH2 0x100 DUP1 DUP4 SLOAD DIV MUL DUP4 MSTORE SWAP2 PUSH1 0x20 ADD SWAP2 PUSH2 0xB1B JUMP JUMPDEST DUP3 ADD SWAP2 SWAP1 PUSH0 MSTORE PUSH1 0x20 PUSH0 KECCAK256 SWAP1 JUMPDEST DUP2 SLOAD DUP2 MSTORE SWAP1 PUSH1 0x1 ADD SWAP1 PUSH1 0x20 ADD DUP1 DUP4 GT PUSH2 0xAFE JUMPI DUP3 SWAP1 SUB PUSH1 0x1F AND DUP3 ADD SWAP2 JUMPDEST POP POP POP POP POP DUP2 MSTORE PUSH1 0x20 ADD PUSH1 0x2 DUP3 ADD PUSH0 SWAP1 SLOAD SWAP1 PUSH2 0x100 EXP SWAP1 DIV PUSH20 0xFFFFFFFFFFFFFFFFFFFFFFFFFFFFFFFFFFFFFFFF AND PUSH20 0xFFFFFFFFFFFFFFFFFFFFFFFFFFFFFFFFFFFFFFFF AND PUSH20 0xFFFFFFFFFFFFFFFFFFFFFFFFFFFFFFFFFFFFFFFF AND DUP2 MSTORE PUSH1 0x20 ADD PUSH1 0x3 DUP3 ADD SLOAD DUP2 MSTORE POP POP DUP2 MSTORE PUSH1 0x20 ADD SWAP1 PUSH1 0x1 ADD SWAP1 PUSH2 0x9E4 JUMP JUMPDEST POP POP POP POP SWAP1 POP SWAP1 JUMP JUMPDEST PUSH2 0xBA3 PUSH2 0xC1F JUMP JUMPDEST PUSH0 PUSH20 0xFFFFFFFFFFFFFFFFFFFFFFFFFFFFFFFFFFFFFFFF AND DUP2 PUSH20 0xFFFFFFFFFFFFFFFFFFFFFFFFFFFFFFFFFFFFFFFF AND SUB PUSH2 0xC13 JUMPI PUSH0 PUSH1 0x40 MLOAD PUSH32 0x1E4FBDF700000000000000000000000000000000000000000000000000000000 DUP2 MSTORE PUSH1 0x4 ADD PUSH2 0xC0A SWAP2 SWAP1 PUSH2 0x12BA JUMP JUMPDEST PUSH1 0x40 MLOAD DUP1 SWAP2 SUB SWAP1 REVERT JUMPDEST PUSH2 0xC1C DUP2 PUSH2 0xD85 JUMP JUMPDEST POP JUMP JUMPDEST PUSH2 0xC27 PUSH2 0xE46 JUMP JUMPDEST PUSH20 0xFFFFFFFFFFFFFFFFFFFFFFFFFFFFFFFFFFFFFFFF AND PUSH2 0xC45 PUSH2 0x99A JUMP JUMPDEST PUSH20 0xFFFFFFFFFFFFFFFFFFFFFFFFFFFFFFFFFFFFFFFF AND EQ PUSH2 0xCA4 JUMPI PUSH2 0xC68 PUSH2 0xE46 JUMP JUMPDEST PUSH1 0x40 MLOAD PUSH32 0x118CDAA700000000000000000000000000000000000000000000000000000000 DUP2 MSTORE PUSH1 0x4 ADD PUSH2 0xC9B SWAP2 SWAP1 PUSH2 0x12BA JUMP JUMPDEST PUSH1 0x40 MLOAD DUP1 SWAP2 SUB SWAP1 REVERT JUMPDEST JUMP JUMPDEST PUSH0 DUP1 PUSH0 SWAP1 POP JUMPDEST PUSH1 0x1 DUP1 SLOAD SWAP1 POP DUP2 LT ISZERO PUSH2 0xD44 JUMPI DUP3 PUSH20 0xFFFFFFFFFFFFFFFFFFFFFFFFFFFFFFFFFFFFFFFF AND PUSH1 0x1 DUP3 DUP2 SLOAD DUP2 LT PUSH2 0xCE4 JUMPI PUSH2 0xCE3 PUSH2 0x14E3 JUMP JUMPDEST JUMPDEST SWAP1 PUSH0 MSTORE PUSH1 0x20 PUSH0 KECCAK256 SWAP1 PUSH1 0x4 MUL ADD PUSH1 0x2 ADD PUSH0 SWAP1 SLOAD SWAP1 PUSH2 0x100 EXP SWAP1 DIV PUSH20 0xFFFFFFFFFFFFFFFFFFFFFFFFFFFFFFFFFFFFFFFF AND PUSH20 0xFFFFFFFFFFFFFFFFFFFFFFFFFFFFFFFFFFFFFFFF AND SUB PUSH2 0xD37 JUMPI DUP1 SWAP2 POP POP PUSH2 0xD80 JUMP JUMPDEST DUP1 DUP1 PUSH1 0x1 ADD SWAP2 POP POP PUSH2 0xCAC JUMP JUMPDEST POP PUSH1 0x40 MLOAD PUSH32 0x8C379A000000000000000000000000000000000000000000000000000000000 DUP2 MSTORE PUSH1 0x4 ADD PUSH2 0xD77 SWAP1 PUSH2 0x14C5 JUMP JUMPDEST PUSH1 0x40 MLOAD DUP1 SWAP2 SUB SWAP1 REVERT JUMPDEST SWAP2 SWAP1 POP JUMP JUMPDEST PUSH0 DUP1 PUSH0 SWAP1 SLOAD SWAP1 PUSH2 0x100 EXP SWAP1 DIV PUSH20 0xFFFFFFFFFFFFFFFFFFFFFFFFFFFFFFFFFFFFFFFF AND SWAP1 POP DUP2 PUSH0 DUP1 PUSH2 0x100 EXP DUP2 SLOAD DUP2 PUSH20 0xFFFFFFFFFFFFFFFFFFFFFFFFFFFFFFFFFFFFFFFF MUL NOT AND SWAP1 DUP4 PUSH20 0xFFFFFFFFFFFFFFFFFFFFFFFFFFFFFFFFFFFFFFFF AND MUL OR SWAP1 SSTORE POP DUP2 PUSH20 0xFFFFFFFFFFFFFFFFFFFFFFFFFFFFFFFFFFFFFFFF AND DUP2 PUSH20 0xFFFFFFFFFFFFFFFFFFFFFFFFFFFFFFFFFFFFFFFF AND PUSH32 0x8BE0079C531659141344CD1FD0A4F28419497F9722A3DAAFE3B4186F6B6457E0 PUSH1 0x40 MLOAD PUSH1 0x40 MLOAD DUP1 SWAP2 SUB SWAP1 LOG3 POP POP JUMP JUMPDEST PUSH0 CALLER SWAP1 POP SWAP1 JUMP JUMPDEST POP DUP1 SLOAD PUSH2 0xE59 SWAP1 PUSH2 0x153D JUMP JUMPDEST PUSH0 DUP3 SSTORE DUP1 PUSH1 0x1F LT PUSH2 0xE6A JUMPI POP PUSH2 0xE87 JUMP JUMPDEST PUSH1 0x1F ADD PUSH1 0x20 SWAP1 DIV SWAP1 PUSH0 MSTORE PUSH1 0x20 PUSH0 KECCAK256 SWAP1 DUP2 ADD SWAP1 PUSH2 0xE86 SWAP2 SWAP1 PUSH2 0xEC6 JUMP JUMPDEST JUMPDEST POP JUMP JUMPDEST PUSH1 0x40 MLOAD DUP1 PUSH1 0x80 ADD PUSH1 0x40 MSTORE DUP1 PUSH1 0x60 DUP2 MSTORE PUSH1 0x20 ADD PUSH1 0x60 DUP2 MSTORE PUSH1 0x20 ADD PUSH0 PUSH20 0xFFFFFFFFFFFFFFFFFFFFFFFFFFFFFFFFFFFFFFFF AND DUP2 MSTORE PUSH1 0x20 ADD PUSH0 DUP2 MSTORE POP SWAP1 JUMP JUMPDEST JUMPDEST DUP1 DUP3 GT ISZERO PUSH2 0xEDD JUMPI PUSH0 DUP2 PUSH0 SWAP1 SSTORE POP PUSH1 0x1 ADD PUSH2 0xEC7 JUMP JUMPDEST POP SWAP1 JUMP JUMPDEST PUSH0 PUSH1 0x40 MLOAD SWAP1 POP SWAP1 JUMP JUMPDEST PUSH0 DUP1 REVERT JUMPDEST PUSH0 DUP1 REVERT JUMPDEST PUSH0 PUSH20 0xFFFFFFFFFFFFFFFFFFFFFFFFFFFFFFFFFFFFFFFF DUP3 AND SWAP1 POP SWAP2 SWAP1 POP JUMP JUMPDEST PUSH0 PUSH2 0xF1B DUP3 PUSH2 0xEF2 JUMP JUMPDEST SWAP1 POP SWAP2 SWAP1 POP JUMP JUMPDEST PUSH2 0xF2B DUP2 PUSH2 0xF11 JUMP JUMPDEST DUP2 EQ PUSH2 0xF35 JUMPI PUSH0 DUP1 REVERT JUMPDEST POP JUMP JUMPDEST PUSH0 DUP2 CALLDATALOAD SWAP1 POP PUSH2 0xF46 DUP2 PUSH2 0xF22 JUMP JUMPDEST SWAP3 SWAP2 POP POP JUMP JUMPDEST PUSH0 PUSH1 0x20 DUP3 DUP5 SUB SLT ISZERO PUSH2 0xF61 JUMPI PUSH2 0xF60 PUSH2 0xEEA JUMP JUMPDEST JUMPDEST PUSH0 PUSH2 0xF6E DUP5 DUP3 DUP6 ADD PUSH2 0xF38 JUMP JUMPDEST SWAP2 POP POP SWAP3 SWAP2 POP POP JUMP JUMPDEST PUSH0 DUP2 SWAP1 POP SWAP2 SWAP1 POP JUMP JUMPDEST PUSH2 0xF89 DUP2 PUSH2 0xF77 JUMP JUMPDEST DUP2 EQ PUSH2 0xF93 JUMPI PUSH0 DUP1 REVERT JUMPDEST POP JUMP JUMPDEST PUSH0 DUP2 CALLDATALOAD SWAP1 POP PUSH2 0xFA4 DUP2 PUSH2 0xF80 JUMP JUMPDEST SWAP3 SWAP2 POP POP JUMP JUMPDEST PUSH0 PUSH1 0x20 DUP3 DUP5 SUB SLT ISZERO PUSH2 0xFBF JUMPI PUSH2 0xFBE PUSH2 0xEEA JUMP JUMPDEST JUMPDEST PUSH0 PUSH2 0xFCC DUP5 DUP3 DUP6 ADD PUSH2 0xF96 JUMP JUMPDEST SWAP2 POP POP SWAP3 SWAP2 POP POP JUMP JUMPDEST PUSH0 DUP2 MLOAD SWAP1 POP SWAP2 SWAP1 POP JUMP JUMPDEST PUSH0 DUP3 DUP3 MSTORE PUSH1 0x20 DUP3 ADD SWAP1 POP SWAP3 SWAP2 POP POP JUMP JUMPDEST DUP3 DUP2 DUP4 MCOPY PUSH0 DUP4 DUP4 ADD MSTORE POP POP POP JUMP JUMPDEST PUSH0 PUSH1 0x1F NOT PUSH1 0x1F DUP4 ADD AND SWAP1 POP SWAP2 SWAP1 POP JUMP JUMPDEST PUSH0 PUSH2 0x1017 DUP3 PUSH2 0xFD5 JUMP JUMPDEST PUSH2 0x1021 DUP2 DUP6 PUSH2 0xFDF JUMP JUMPDEST SWAP4 POP PUSH2 0x1031 DUP2 DUP6 PUSH1 0x20 DUP7 ADD PUSH2 0xFEF JUMP JUMPDEST PUSH2 0x103A DUP2 PUSH2 0xFFD JUMP JUMPDEST DUP5 ADD SWAP2 POP POP SWAP3 SWAP2 POP POP JUMP JUMPDEST PUSH2 0x104E DUP2 PUSH2 0xF11 JUMP JUMPDEST DUP3 MSTORE POP POP JUMP JUMPDEST PUSH2 0x105D DUP2 PUSH2 0xF77 JUMP JUMPDEST DUP3 MSTORE POP POP JUMP JUMPDEST PUSH0 PUSH1 0x80 DUP3 ADD SWAP1 POP DUP2 DUP2 SUB PUSH0 DUP4 ADD MSTORE PUSH2 0x107B DUP2 DUP8 PUSH2 0x100D JUMP JUMPDEST SWAP1 POP DUP2 DUP2 SUB PUSH1 0x20 DUP4 ADD MSTORE PUSH2 0x108F DUP2 DUP7 PUSH2 0x100D JUMP JUMPDEST SWAP1 POP PUSH2 0x109E PUSH1 0x40 DUP4 ADD DUP6 PUSH2 0x1045 JUMP JUMPDEST PUSH2 0x10AB PUSH1 0x60 DUP4 ADD DUP5 PUSH2 0x1054 JUMP JUMPDEST SWAP6 SWAP5 POP POP POP POP POP JUMP JUMPDEST PUSH0 DUP1 REVERT JUMPDEST PUSH0 DUP1 REVERT JUMPDEST PUSH32 0x4E487B7100000000000000000000000000000000000000000000000000000000 PUSH0 MSTORE PUSH1 0x41 PUSH1 0x4 MSTORE PUSH1 0x24 PUSH0 REVERT JUMPDEST PUSH2 0x10F2 DUP3 PUSH2 0xFFD JUMP JUMPDEST DUP2 ADD DUP2 DUP2 LT PUSH8 0xFFFFFFFFFFFFFFFF DUP3 GT OR ISZERO PUSH2 0x1111 JUMPI PUSH2 0x1110 PUSH2 0x10BC JUMP JUMPDEST JUMPDEST DUP1 PUSH1 0x40 MSTORE POP POP POP JUMP JUMPDEST PUSH0 PUSH2 0x1123 PUSH2 0xEE1 JUMP JUMPDEST SWAP1 POP PUSH2 0x112F DUP3 DUP3 PUSH2 0x10E9 JUMP JUMPDEST SWAP2 SWAP1 POP JUMP JUMPDEST PUSH0 PUSH8 0xFFFFFFFFFFFFFFFF DUP3 GT ISZERO PUSH2 0x114E JUMPI PUSH2 0x114D PUSH2 0x10BC JUMP JUMPDEST JUMPDEST PUSH2 0x1157 DUP3 PUSH2 0xFFD JUMP JUMPDEST SWAP1 POP PUSH1 0x20 DUP2 ADD SWAP1 POP SWAP2 SWAP1 POP JUMP JUMPDEST DUP3 DUP2 DUP4 CALLDATACOPY PUSH0 DUP4 DUP4 ADD MSTORE POP POP POP JUMP JUMPDEST PUSH0 PUSH2 0x1184 PUSH2 0x117F DUP5 PUSH2 0x1134 JUMP JUMPDEST PUSH2 0x111A JUMP JUMPDEST SWAP1 POP DUP3 DUP2 MSTORE PUSH1 0x20 DUP2 ADD DUP5 DUP5 DUP5 ADD GT ISZERO PUSH2 0x11A0 JUMPI PUSH2 0x119F PUSH2 0x10B8 JUMP JUMPDEST JUMPDEST PUSH2 0x11AB DUP5 DUP3 DUP6 PUSH2 0x1164 JUMP JUMPDEST POP SWAP4 SWAP3 POP POP POP JUMP JUMPDEST PUSH0 DUP3 PUSH1 0x1F DUP4 ADD SLT PUSH2 0x11C7 JUMPI PUSH2 0x11C6 PUSH2 0x10B4 JUMP JUMPDEST JUMPDEST DUP2 CALLDATALOAD PUSH2 0x11D7 DUP5 DUP3 PUSH1 0x20 DUP7 ADD PUSH2 0x1172 JUMP JUMPDEST SWAP2 POP POP SWAP3 SWAP2 POP POP JUMP JUMPDEST PUSH0 DUP1 PUSH0 DUP1 PUSH1 0x80 DUP6 DUP8 SUB SLT ISZERO PUSH2 0x11F8 JUMPI PUSH2 0x11F7 PUSH2 0xEEA JUMP JUMPDEST JUMPDEST PUSH0 DUP6 ADD CALLDATALOAD PUSH8 0xFFFFFFFFFFFFFFFF DUP2 GT ISZERO PUSH2 0x1215 JUMPI PUSH2 0x1214 PUSH2 0xEEE JUMP JUMPDEST JUMPDEST PUSH2 0x1221 DUP8 DUP3 DUP9 ADD PUSH2 0x11B3 JUMP JUMPDEST SWAP5 POP POP PUSH1 0x20 DUP6 ADD CALLDATALOAD PUSH8 0xFFFFFFFFFFFFFFFF DUP2 GT ISZERO PUSH2 0x1242 JUMPI PUSH2 0x1241 PUSH2 0xEEE JUMP JUMPDEST JUMPDEST PUSH2 0x124E DUP8 DUP3 DUP9 ADD PUSH2 0x11B3 JUMP JUMPDEST SWAP4 POP POP PUSH1 0x40 PUSH2 0x125F DUP8 DUP3 DUP9 ADD PUSH2 0xF38 JUMP JUMPDEST SWAP3 POP POP PUSH1 0x60 PUSH2 0x1270 DUP8 DUP3 DUP9 ADD PUSH2 0xF96 JUMP JUMPDEST SWAP2 POP POP SWAP3 SWAP6 SWAP2 SWAP5 POP SWAP3 POP JUMP JUMPDEST PUSH0 DUP1 PUSH1 0x40 DUP4 DUP6 SUB SLT ISZERO PUSH2 0x1292 JUMPI PUSH2 0x1291 PUSH2 0xEEA JUMP JUMPDEST JUMPDEST PUSH0 PUSH2 0x129F DUP6 DUP3 DUP7 ADD PUSH2 0xF38 JUMP JUMPDEST SWAP3 POP POP PUSH1 0x20 PUSH2 0x12B0 DUP6 DUP3 DUP7 ADD PUSH2 0xF96 JUMP JUMPDEST SWAP2 POP POP SWAP3 POP SWAP3 SWAP1 POP JUMP JUMPDEST PUSH0 PUSH1 0x20 DUP3 ADD SWAP1 POP PUSH2 0x12CD PUSH0 DUP4 ADD DUP5 PUSH2 0x1045 JUMP JUMPDEST SWAP3 SWAP2 POP POP JUMP JUMPDEST PUSH0 DUP2 MLOAD SWAP1 POP SWAP2 SWAP1 POP JUMP JUMPDEST PUSH0 DUP3 DUP3 MSTORE PUSH1 0x20 DUP3 ADD SWAP1 POP SWAP3 SWAP2 POP POP JUMP JUMPDEST PUSH0 DUP2 SWAP1 POP PUSH1 0x20 DUP3 ADD SWAP1 POP SWAP2 SWAP1 POP JUMP JUMPDEST PUSH0 DUP3 DUP3 MSTORE PUSH1 0x20 DUP3 ADD SWAP1 POP SWAP3 SWAP2 POP POP JUMP JUMPDEST PUSH0 PUSH2 0x1316 DUP3 PUSH2 0xFD5 JUMP JUMPDEST PUSH2 0x1320 DUP2 DUP6 PUSH2 0x12FC JUMP JUMPDEST SWAP4 POP PUSH2 0x1330 DUP2 DUP6 PUSH1 0x20 DUP7 ADD PUSH2 0xFEF JUMP JUMPDEST PUSH2 0x1339 DUP2 PUSH2 0xFFD JUMP JUMPDEST DUP5 ADD SWAP2 POP POP SWAP3 SWAP2 POP POP JUMP JUMPDEST PUSH2 0x134D DUP2 PUSH2 0xF11 JUMP JUMPDEST DUP3 MSTORE POP POP JUMP JUMPDEST PUSH2 0x135C DUP2 PUSH2 0xF77 JUMP JUMPDEST DUP3 MSTORE POP POP JUMP JUMPDEST PUSH0 PUSH1 0x80 DUP4 ADD PUSH0 DUP4 ADD MLOAD DUP5 DUP3 SUB PUSH0 DUP7 ADD MSTORE PUSH2 0x137C DUP3 DUP3 PUSH2 0x130C JUMP JUMPDEST SWAP2 POP POP PUSH1 0x20 DUP4 ADD MLOAD DUP5 DUP3 SUB PUSH1 0x20 DUP7 ADD MSTORE PUSH2 0x1396 DUP3 DUP3 PUSH2 0x130C JUMP JUMPDEST SWAP2 POP POP PUSH1 0x40 DUP4 ADD MLOAD PUSH2 0x13AB PUSH1 0x40 DUP7 ADD DUP3 PUSH2 0x1344 JUMP JUMPDEST POP PUSH1 0x60 DUP4 ADD MLOAD PUSH2 0x13BE PUSH1 0x60 DUP7 ADD DUP3 PUSH2 0x1353 JUMP JUMPDEST POP DUP1 SWAP2 POP POP SWAP3 SWAP2 POP POP JUMP JUMPDEST PUSH0 PUSH2 0x13D4 DUP4 DUP4 PUSH2 0x1362 JUMP JUMPDEST SWAP1 POP SWAP3 SWAP2 POP POP JUMP JUMPDEST PUSH0 PUSH1 0x20 DUP3 ADD SWAP1 POP SWAP2 SWAP1 POP JUMP JUMPDEST PUSH0 PUSH2 0x13F2 DUP3 PUSH2 0x12D3 JUMP JUMPDEST PUSH2 0x13FC DUP2 DUP6 PUSH2 0x12DD JUMP JUMPDEST SWAP4 POP DUP4 PUSH1 0x20 DUP3 MUL DUP6 ADD PUSH2 0x140E DUP6 PUSH2 0x12ED JUMP JUMPDEST DUP1 PUSH0 JUMPDEST DUP6 DUP2 LT ISZERO PUSH2 0x1449 JUMPI DUP5 DUP5 SUB DUP10 MSTORE DUP2 MLOAD PUSH2 0x142A DUP6 DUP3 PUSH2 0x13C9 JUMP JUMPDEST SWAP5 POP PUSH2 0x1435 DUP4 PUSH2 0x13DC JUMP JUMPDEST SWAP3 POP PUSH1 0x20 DUP11 ADD SWAP10 POP POP PUSH1 0x1 DUP2 ADD SWAP1 POP PUSH2 0x1411 JUMP JUMPDEST POP DUP3 SWAP8 POP DUP8 SWAP6 POP POP POP POP POP POP SWAP3 SWAP2 POP POP JUMP JUMPDEST PUSH0 PUSH1 0x20 DUP3 ADD SWAP1 POP DUP2 DUP2 SUB PUSH0 DUP4 ADD MSTORE PUSH2 0x1473 DUP2 DUP5 PUSH2 0x13E8 JUMP JUMPDEST SWAP1 POP SWAP3 SWAP2 POP POP JUMP JUMPDEST PUSH32 0x53746F636B206E6F7420666F756E640000000000000000000000000000000000 PUSH0 DUP3 ADD MSTORE POP JUMP JUMPDEST PUSH0 PUSH2 0x14AF PUSH1 0xF DUP4 PUSH2 0xFDF JUMP JUMPDEST SWAP2 POP PUSH2 0x14BA DUP3 PUSH2 0x147B JUMP JUMPDEST PUSH1 0x20 DUP3 ADD SWAP1 POP SWAP2 SWAP1 POP JUMP JUMPDEST PUSH0 PUSH1 0x20 DUP3 ADD SWAP1 POP DUP2 DUP2 SUB PUSH0 DUP4 ADD MSTORE PUSH2 0x14DC DUP2 PUSH2 0x14A3 JUMP JUMPDEST SWAP1 POP SWAP2 SWAP1 POP JUMP JUMPDEST PUSH32 0x4E487B7100000000000000000000000000000000000000000000000000000000 PUSH0 MSTORE PUSH1 0x32 PUSH1 0x4 MSTORE PUSH1 0x24 PUSH0 REVERT JUMPDEST PUSH32 0x4E487B7100000000000000000000000000000000000000000000000000000000 PUSH0 MSTORE PUSH1 0x22 PUSH1 0x4 MSTORE PUSH1 0x24 PUSH0 REVERT JUMPDEST PUSH0 PUSH1 0x2 DUP3 DIV SWAP1 POP PUSH1 0x1 DUP3 AND DUP1 PUSH2 0x1554 JUMPI PUSH1 0x7F DUP3 AND SWAP2 POP JUMPDEST PUSH1 0x20 DUP3 LT DUP2 SUB PUSH2 0x1567 JUMPI PUSH2 0x1566 PUSH2 0x1510 JUMP JUMPDEST JUMPDEST POP SWAP2 SWAP1 POP JUMP JUMPDEST PUSH32 0x4E487B7100000000000000000000000000000000000000000000000000000000 PUSH0 MSTORE PUSH1 0x11 PUSH1 0x4 MSTORE PUSH1 0x24 PUSH0 REVERT JUMPDEST PUSH0 PUSH2 0x15A4 DUP3 PUSH2 0xF77 JUMP JUMPDEST SWAP2 POP PUSH2 0x15AF DUP4 PUSH2 0xF77 JUMP JUMPDEST SWAP3 POP DUP3 DUP3 SUB SWAP1 POP DUP2 DUP2 GT ISZERO PUSH2 0x15C7 JUMPI PUSH2 0x15C6 PUSH2 0x156D JUMP JUMPDEST JUMPDEST SWAP3 SWAP2 POP POP JUMP JUMPDEST PUSH0 DUP2 SLOAD SWAP1 POP PUSH2 0x15DB DUP2 PUSH2 0x153D JUMP JUMPDEST SWAP1 POP SWAP2 SWAP1 POP JUMP JUMPDEST PUSH0 DUP2 SWAP1 POP DUP2 PUSH0 MSTORE PUSH1 0x20 PUSH0 KECCAK256 SWAP1 POP SWAP2 SWAP1 POP JUMP JUMPDEST PUSH0 PUSH1 0x20 PUSH1 0x1F DUP4 ADD DIV SWAP1 POP SWAP2 SWAP1 POP JUMP JUMPDEST PUSH0 DUP3 DUP3 SHL SWAP1 POP SWAP3 SWAP2 POP POP JUMP JUMPDEST PUSH0 PUSH1 0x8 DUP4 MUL PUSH2 0x163E PUSH32 0xFFFFFFFFFFFFFFFFFFFFFFFFFFFFFFFFFFFFFFFFFFFFFFFFFFFFFFFFFFFFFFFF DUP3 PUSH2 0x1603 JUMP JUMPDEST PUSH2 0x1648 DUP7 DUP4 PUSH2 0x1603 JUMP JUMPDEST SWAP6 POP DUP1 NOT DUP5 AND SWAP4 POP DUP1 DUP7 AND DUP5 OR SWAP3 POP POP POP SWAP4 SWAP3 POP POP POP JUMP JUMPDEST PUSH0 DUP2 SWAP1 POP SWAP2 SWAP1 POP JUMP JUMPDEST PUSH0 PUSH2 0x1683 PUSH2 0x167E PUSH2 0x1679 DUP5 PUSH2 0xF77 JUMP JUMPDEST PUSH2 0x1660 JUMP JUMPDEST PUSH2 0xF77 JUMP JUMPDEST SWAP1 POP SWAP2 SWAP1 POP JUMP JUMPDEST PUSH0 DUP2 SWAP1 POP SWAP2 SWAP1 POP JUMP JUMPDEST PUSH2 0x169C DUP4 PUSH2 0x1669 JUMP JUMPDEST PUSH2 0x16B0 PUSH2 0x16A8 DUP3 PUSH2 0x168A JUMP JUMPDEST DUP5 DUP5 SLOAD PUSH2 0x160F JUMP JUMPDEST DUP3 SSTORE POP POP POP POP JUMP JUMPDEST PUSH0 SWAP1 JUMP JUMPDEST PUSH2 0x16C4 PUSH2 0x16B8 JUMP JUMPDEST PUSH2 0x16CF DUP2 DUP5 DUP5 PUSH2 0x1693 JUMP JUMPDEST POP POP POP JUMP JUMPDEST JUMPDEST DUP2 DUP2 LT ISZERO PUSH2 0x16F2 JUMPI PUSH2 0x16E7 PUSH0 DUP3 PUSH2 0x16BC JUMP JUMPDEST PUSH1 0x1 DUP2 ADD SWAP1 POP PUSH2 0x16D5 JUMP JUMPDEST POP POP JUMP JUMPDEST PUSH1 0x1F DUP3 GT ISZERO PUSH2 0x1737 JUMPI PUSH2 0x1708 DUP2 PUSH2 0x15E2 JUMP JUMPDEST PUSH2 0x1711 DUP5 PUSH2 0x15F4 JUMP JUMPDEST DUP2 ADD PUSH1 0x20 DUP6 LT ISZERO PUSH2 0x1720 JUMPI DUP2 SWAP1 POP JUMPDEST PUSH2 0x1734 PUSH2 0x172C DUP6 PUSH2 0x15F4 JUMP JUMPDEST DUP4 ADD DUP3 PUSH2 0x16D4 JUMP JUMPDEST POP POP JUMPDEST POP POP POP JUMP JUMPDEST PUSH0 DUP3 DUP3 SHR SWAP1 POP SWAP3 SWAP2 POP POP JUMP JUMPDEST PUSH0 PUSH2 0x1757 PUSH0 NOT DUP5 PUSH1 0x8 MUL PUSH2 0x173C JUMP JUMPDEST NOT DUP1 DUP4 AND SWAP2 POP POP SWAP3 SWAP2 POP POP JUMP JUMPDEST PUSH0 PUSH2 0x176F DUP4 DUP4 PUSH2 0x1748 JUMP JUMPDEST SWAP2 POP DUP3 PUSH1 0x2 MUL DUP3 OR SWAP1 POP SWAP3 SWAP2 POP POP JUMP JUMPDEST DUP2 DUP2 SUB PUSH2 0x178D JUMPI POP POP PUSH2 0x1862 JUMP JUMPDEST PUSH2 0x1796 DUP3 PUSH2 0x15CD JUMP JUMPDEST PUSH8 0xFFFFFFFFFFFFFFFF DUP2 GT ISZERO PUSH2 0x17AF JUMPI PUSH2 0x17AE PUSH2 0x10BC JUMP JUMPDEST JUMPDEST PUSH2 0x17B9 DUP3 SLOAD PUSH2 0x153D JUMP JUMPDEST PUSH2 0x17C4 DUP3 DUP3 DUP6 PUSH2 0x16F6 JUMP JUMPDEST PUSH0 PUSH1 0x1F DUP4 GT PUSH1 0x1 DUP2 EQ PUSH2 0x17F1 JUMPI PUSH0 DUP5 ISZERO PUSH2 0x17DF JUMPI DUP3 DUP8 ADD SLOAD SWAP1 POP JUMPDEST PUSH2 0x17E9 DUP6 DUP3 PUSH2 0x1764 JUMP JUMPDEST DUP7 SSTORE POP PUSH2 0x185B JUMP JUMPDEST PUSH1 0x1F NOT DUP5 AND PUSH2 0x17FF DUP8 PUSH2 0x15E2 JUMP JUMPDEST SWAP7 POP PUSH2 0x180A DUP7 PUSH2 0x15E2 JUMP JUMPDEST PUSH0 JUMPDEST DUP3 DUP2 LT ISZERO PUSH2 0x1831 JUMPI DUP5 DUP10 ADD SLOAD DUP3 SSTORE PUSH1 0x1 DUP3 ADD SWAP2 POP PUSH1 0x1 DUP6 ADD SWAP5 POP PUSH1 0x20 DUP2 ADD SWAP1 POP PUSH2 0x180C JUMP JUMPDEST DUP7 DUP4 LT ISZERO PUSH2 0x184E JUMPI DUP5 DUP10 ADD SLOAD PUSH2 0x184A PUSH1 0x1F DUP10 AND DUP3 PUSH2 0x1748 JUMP JUMPDEST DUP4 SSTORE POP JUMPDEST PUSH1 0x1 PUSH1 0x2 DUP9 MUL ADD DUP9 SSTORE POP POP POP JUMPDEST POP POP POP POP POP POP JUMPDEST JUMP JUMPDEST PUSH32 0x4E487B7100000000000000000000000000000000000000000000000000000000 PUSH0 MSTORE PUSH1 0x31 PUSH1 0x4 MSTORE PUSH1 0x24 PUSH0 REVERT JUMPDEST PUSH0 PUSH1 0x60 DUP3 ADD SWAP1 POP DUP2 DUP2 SUB PUSH0 DUP4 ADD MSTORE PUSH2 0x18A9 DUP2 DUP7 PUSH2 0x100D JUMP JUMPDEST SWAP1 POP DUP2 DUP2 SUB PUSH1 0x20 DUP4 ADD MSTORE PUSH2 0x18BD DUP2 DUP6 PUSH2 0x100D JUMP JUMPDEST SWAP1 POP PUSH2 0x18CC PUSH1 0x40 DUP4 ADD DUP5 PUSH2 0x1054 JUMP JUMPDEST SWAP5 SWAP4 POP POP POP POP JUMP JUMPDEST PUSH2 0x18DD DUP3 PUSH2 0xFD5 JUMP JUMPDEST PUSH8 0xFFFFFFFFFFFFFFFF DUP2 GT ISZERO PUSH2 0x18F6 JUMPI PUSH2 0x18F5 PUSH2 0x10BC JUMP JUMPDEST JUMPDEST PUSH2 0x1900 DUP3 SLOAD PUSH2 0x153D JUMP JUMPDEST PUSH2 0x190B DUP3 DUP3 DUP6 PUSH2 0x16F6 JUMP JUMPDEST PUSH0 PUSH1 0x20 SWAP1 POP PUSH1 0x1F DUP4 GT PUSH1 0x1 DUP2 EQ PUSH2 0x193C JUMPI PUSH0 DUP5 ISZERO PUSH2 0x192A JUMPI DUP3 DUP8 ADD MLOAD SWAP1 POP JUMPDEST PUSH2 0x1934 DUP6 DUP3 PUSH2 0x1764 JUMP JUMPDEST DUP7 SSTORE POP PUSH2 0x199B JUMP JUMPDEST PUSH1 0x1F NOT DUP5 AND PUSH2 0x194A DUP7 PUSH2 0x15E2 JUMP JUMPDEST PUSH0 JUMPDEST DUP3 DUP2 LT ISZERO PUSH2 0x1971 JUMPI DUP5 DUP10 ADD MLOAD DUP3 SSTORE PUSH1 0x1 DUP3 ADD SWAP2 POP PUSH1 0x20 DUP6 ADD SWAP5 POP PUSH1 0x20 DUP2 ADD SWAP1 POP PUSH2 0x194C JUMP JUMPDEST DUP7 DUP4 LT ISZERO PUSH2 0x198E JUMPI DUP5 DUP10 ADD MLOAD PUSH2 0x198A PUSH1 0x1F DUP10 AND DUP3 PUSH2 0x1748 JUMP JUMPDEST DUP4 SSTORE POP JUMPDEST PUSH1 0x1 PUSH1 0x2 DUP9 MUL ADD DUP9 SSTORE POP POP POP JUMPDEST POP POP POP POP POP POP JUMP JUMPDEST PUSH0 PUSH1 0x40 DUP3 ADD SWAP1 POP PUSH2 0x19B6 PUSH0 DUP4 ADD DUP6 PUSH2 0x1054 JUMP JUMPDEST PUSH2 0x19C3 PUSH1 0x20 DUP4 ADD DUP5 PUSH2 0x1054 JUMP JUMPDEST SWAP4 SWAP3 POP POP POP JUMP JUMPDEST PUSH32 0x53746F636B2077697468207468697320636F6E74726163742061646472657373 PUSH0 DUP3 ADD MSTORE PUSH32 0x206E6F7420666F756E6400000000000000000000000000000000000000000000 PUSH1 0x20 DUP3 ADD MSTORE POP JUMP JUMPDEST PUSH0 PUSH2 0x1A24 PUSH1 0x2A DUP4 PUSH2 0xFDF JUMP JUMPDEST SWAP2 POP PUSH2 0x1A2F DUP3 PUSH2 0x19CA JUMP JUMPDEST PUSH1 0x40 DUP3 ADD SWAP1 POP SWAP2 SWAP1 POP JUMP JUMPDEST PUSH0 PUSH1 0x20 DUP3 ADD SWAP1 POP DUP2 DUP2 SUB PUSH0 DUP4 ADD MSTORE PUSH2 0x1A51 DUP2 PUSH2 0x1A18 JUMP JUMPDEST SWAP1 POP SWAP2 SWAP1 POP JUMP INVALID LOG2 PUSH5 0x6970667358 0x22 SLT KECCAK256 0xCD 0xB9 SWAP7 0xB1 CALLDATASIZE 0xDC GASLIMIT 0x26 AND RETURNDATACOPY 0xB8 0x24 PREVRANDAO 0xD5 MSTORE8 LOG0 SWAP2 0xC2 EXTCODECOPY PUSH20 0xF8AB6E2E9CAA4F9BBC39C68064736F6C63430008 BYTE STOP CALLER "
		},
		"gasEstimates": {
			"creation": {
				"codeDepositCost": "1359600",
				"executionCost": "infinite",
				"totalCost": "infinite"
			},
			"external": {
				"addStock(string,string,address,uint256)": "infinite",
				"getAllStocks()": "infinite",
				"owner()": "2537",
				"removeStock(address)": "infinite",
				"renounceOwnership()": "infinite",
				"setStockPrice(address,uint256)": "infinite",
				"stocks(uint256)": "infinite",
				"transferOwnership(address)": "infinite"
			},
			"internal": {
				"findStockIndexByAddress(address)": "infinite"
			}
		},
		"methodIdentifiers": {
			"addStock(string,string,address,uint256)": "2c7d3bdd",
			"getAllStocks()": "ade5a0a0",
			"owner()": "8da5cb5b",
			"removeStock(address)": "1d7dcba7",
			"renounceOwnership()": "715018a6",
			"setStockPrice(address,uint256)": "651cb0f9",
			"stocks(uint256)": "226b876c",
			"transferOwnership(address)": "f2fde38b"
		}
	},
	"abi": [
		{
			"inputs": [
				{
					"internalType": "address",
					"name": "initialOwner",
					"type": "address"
				}
			],
			"stateMutability": "nonpayable",
			"type": "constructor"
		},
		{
			"inputs": [
				{
					"internalType": "address",
					"name": "owner",
					"type": "address"
				}
			],
			"name": "OwnableInvalidOwner",
			"type": "error"
		},
		{
			"inputs": [
				{
					"internalType": "address",
					"name": "account",
					"type": "address"
				}
			],
			"name": "OwnableUnauthorizedAccount",
			"type": "error"
		},
		{
			"anonymous": false,
			"inputs": [
				{
					"indexed": false,
					"internalType": "string",
					"name": "shortName",
					"type": "string"
				},
				{
					"indexed": false,
					"internalType": "string",
					"name": "longName",
					"type": "string"
				},
				{
					"indexed": true,
					"internalType": "address",
					"name": "contractAddress",
					"type": "address"
				},
				{
					"indexed": false,
					"internalType": "uint256",
					"name": "stockPriceEth",
					"type": "uint256"
				}
			],
			"name": "AddedStock",
			"type": "event"
		},
		{
			"anonymous": false,
			"inputs": [
				{
					"indexed": true,
					"internalType": "address",
					"name": "previousOwner",
					"type": "address"
				},
				{
					"indexed": true,
					"internalType": "address",
					"name": "newOwner",
					"type": "address"
				}
			],
			"name": "OwnershipTransferred",
			"type": "event"
		},
		{
			"anonymous": false,
			"inputs": [
				{
					"indexed": false,
					"internalType": "string",
					"name": "shortName",
					"type": "string"
				},
				{
					"indexed": false,
					"internalType": "string",
					"name": "longName",
					"type": "string"
				},
				{
					"indexed": true,
					"internalType": "address",
					"name": "contractAddress",
					"type": "address"
				},
				{
					"indexed": false,
					"internalType": "uint256",
					"name": "stockPriceEth",
					"type": "uint256"
				}
			],
			"name": "RemovedStock",
			"type": "event"
		},
		{
			"anonymous": false,
			"inputs": [
				{
					"indexed": true,
					"internalType": "address",
					"name": "contractAddress",
					"type": "address"
				},
				{
					"indexed": false,
					"internalType": "uint256",
					"name": "oldPrice",
					"type": "uint256"
				},
				{
					"indexed": false,
					"internalType": "uint256",
					"name": "newPrice",
					"type": "uint256"
				}
			],
			"name": "UpdatedStockPrice",
			"type": "event"
		},
		{
			"inputs": [
				{
					"internalType": "string",
					"name": "shortName",
					"type": "string"
				},
				{
					"internalType": "string",
					"name": "longName",
					"type": "string"
				},
				{
					"internalType": "address",
					"name": "contractAddress",
					"type": "address"
				},
				{
					"internalType": "uint256",
					"name": "stockPriceEth",
					"type": "uint256"
				}
			],
			"name": "addStock",
			"outputs": [],
			"stateMutability": "nonpayable",
			"type": "function"
		},
		{
			"inputs": [],
			"name": "getAllStocks",
			"outputs": [
				{
					"components": [
						{
							"internalType": "string",
							"name": "shortName",
							"type": "string"
						},
						{
							"internalType": "string",
							"name": "longName",
							"type": "string"
						},
						{
							"internalType": "address",
							"name": "contractAddress",
							"type": "address"
						},
						{
							"internalType": "uint256",
							"name": "stockPriceEth",
							"type": "uint256"
						}
					],
					"internalType": "struct ManageStock.Stock[]",
					"name": "",
					"type": "tuple[]"
				}
			],
			"stateMutability": "view",
			"type": "function"
		},
		{
			"inputs": [],
			"name": "owner",
			"outputs": [
				{
					"internalType": "address",
					"name": "",
					"type": "address"
				}
			],
			"stateMutability": "view",
			"type": "function"
		},
		{
			"inputs": [
				{
					"internalType": "address",
					"name": "contractAddress",
					"type": "address"
				}
			],
			"name": "removeStock",
			"outputs": [],
			"stateMutability": "nonpayable",
			"type": "function"
		},
		{
			"inputs": [],
			"name": "renounceOwnership",
			"outputs": [],
			"stateMutability": "nonpayable",
			"type": "function"
		},
		{
			"inputs": [
				{
					"internalType": "address",
					"name": "contractAddress",
					"type": "address"
				},
				{
					"internalType": "uint256",
					"name": "newPrice",
					"type": "uint256"
				}
			],
			"name": "setStockPrice",
			"outputs": [],
			"stateMutability": "nonpayable",
			"type": "function"
		},
		{
			"inputs": [
				{
					"internalType": "uint256",
					"name": "",
					"type": "uint256"
				}
			],
			"name": "stocks",
			"outputs": [
				{
					"internalType": "string",
					"name": "shortName",
					"type": "string"
				},
				{
					"internalType": "string",
					"name": "longName",
					"type": "string"
				},
				{
					"internalType": "address",
					"name": "contractAddress",
					"type": "address"
				},
				{
					"internalType": "uint256",
					"name": "stockPriceEth",
					"type": "uint256"
				}
			],
			"stateMutability": "view",
			"type": "function"
		},
		{
			"inputs": [
				{
					"internalType": "address",
					"name": "newOwner",
					"type": "address"
				}
			],
			"name": "transferOwnership",
			"outputs": [],
			"stateMutability": "nonpayable",
			"type": "function"
		}
	]
}