{
	"data": {
		"bytecode": {
			"linkReferences": {},
			"object": "608060405234801561000f575f80fd5b50604051612472380380612472833981810160405281019061003191906101db565b8080805f73ffffffffffffffffffffffffffffffffffffffff168173ffffffffffffffffffffffffffffffffffffffff16036100a4575f6040517f1e4fbdf700000000000000000000000000000000000000000000000000000000815260040161009b9190610215565b60405180910390fd5b6100b3816100bc60201b60201c565b5050505061022e565b5f805f9054906101000a900473ffffffffffffffffffffffffffffffffffffffff169050815f806101000a81548173ffffffffffffffffffffffffffffffffffffffff021916908373ffffffffffffffffffffffffffffffffffffffff1602179055508173ffffffffffffffffffffffffffffffffffffffff168173ffffffffffffffffffffffffffffffffffffffff167f8be0079c531659141344cd1fd0a4f28419497f9722a3daafe3b4186f6b6457e060405160405180910390a35050565b5f80fd5b5f73ffffffffffffffffffffffffffffffffffffffff82169050919050565b5f6101aa82610181565b9050919050565b6101ba816101a0565b81146101c4575f80fd5b50565b5f815190506101d5816101b1565b92915050565b5f602082840312156101f0576101ef61017d565b5b5f6101fd848285016101c7565b91505092915050565b61020f816101a0565b82525050565b5f6020820190506102285f830184610206565b92915050565b6122378061023b5f395ff3fe608060405260043610610090575f3560e01c8063715018a611610058578063715018a614610167578063768955e21461017d5780638da5cb5b14610199578063ade5a0a0146101c3578063f2fde38b146101ed57610090565b806317df04e5146100945780631d7dcba7146100b0578063226b876c146100d85780632c7d3bdd14610117578063651cb0f91461013f575b5f80fd5b6100ae60048036038101906100a9919061141e565b610215565b005b3480156100bb575f80fd5b506100d660048036038101906100d1919061145c565b6103dd565b005b3480156100e3575f80fd5b506100fe60048036038101906100f99190611487565b6107a6565b60405161010e9493929190611540565b60405180910390f35b348015610122575f80fd5b5061013d600480360381019061013891906116bd565b61090c565b005b34801561014a575f80fd5b506101656004803603810190610160919061141e565b610a6d565b005b348015610172575f80fd5b5061017b610bf1565b005b6101976004803603810190610192919061145c565b610c04565b005b3480156101a4575f80fd5b506101ad610d46565b6040516101ba9190611759565b60405180910390f35b3480156101ce575f80fd5b506101d7610d6d565b6040516101e491906118fa565b60405180910390f35b3480156101f8575f80fd5b50610213600480360381019061020e919061145c565b610f47565b005b5f8290505f8173ffffffffffffffffffffffffffffffffffffffff1663dd62ed3e33306040518363ffffffff1660e01b815260040161025592919061191a565b6020604051808303815f875af1158015610271573d5f803e3d5ffd5b505050506040513d601f19601f820116820180604052508101906102959190611955565b9050828110156102da576040517f08c379a00000000000000000000000000000000000000000000000000000000081526004016102d1906119ca565b60405180910390fd5b8173ffffffffffffffffffffffffffffffffffffffff166379cc679033856040518363ffffffff1660e01b81526004016103159291906119e8565b5f604051808303815f87803b15801561032c575f80fd5b505af115801561033e573d5f803e3d5ffd5b505050505f61034d8486610fcb565b905080471015610392576040517f08c379a000000000000000000000000000000000000000000000000000000000815260040161038990611a59565b60405180910390fd5b3373ffffffffffffffffffffffffffffffffffffffff166108fc8290811502906040515f60405180830381858888f193505050501580156103d5573d5f803e3d5ffd5b505050505050565b6103e561102d565b5f6103ef826110b4565b90506001805490508110610438576040517f08c379a000000000000000000000000000000000000000000000000000000000815260040161042f90611ac1565b60405180910390fd5b5f6001828154811061044d5761044c611adf565b5b905f5260205f2090600402016040518060800160405290815f8201805461047390611b39565b80601f016020809104026020016040519081016040528092919081815260200182805461049f90611b39565b80156104ea5780601f106104c1576101008083540402835291602001916104ea565b820191905f5260205f20905b8154815290600101906020018083116104cd57829003601f168201915b5050505050815260200160018201805461050390611b39565b80601f016020809104026020016040519081016040528092919081815260200182805461052f90611b39565b801561057a5780601f106105515761010080835404028352916020019161057a565b820191905f5260205f20905b81548152906001019060200180831161055d57829003601f168201915b50505050508152602001600282015f9054906101000a900473ffffffffffffffffffffffffffffffffffffffff1673ffffffffffffffffffffffffffffffffffffffff1673ffffffffffffffffffffffffffffffffffffffff168152602001600382015481525050905060018080805490506105f69190611b96565b8154811061060757610606611adf565b5b905f5260205f2090600402016001838154811061062757610626611adf565b5b905f5260205f2090600402015f8201815f0190816106459190611d7b565b506001820181600101908161065a9190611d7b565b50600282015f9054906101000a900473ffffffffffffffffffffffffffffffffffffffff16816002015f6101000a81548173ffffffffffffffffffffffffffffffffffffffff021916908373ffffffffffffffffffffffffffffffffffffffff1602179055506003820154816003015590505060018054806106df576106de611e60565b5b600190038181905f5260205f2090600402015f8082015f61070091906112ec565b600182015f61070f91906112ec565b600282015f6101000a81549073ffffffffffffffffffffffffffffffffffffffff0219169055600382015f905550509055806040015173ffffffffffffffffffffffffffffffffffffffff167fb39363374ddfc8cdca31782d3e92557276ea3d9f9295fbfe4be3862707d31d81825f01518360200151846060015160405161079993929190611e8d565b60405180910390a2505050565b600181815481106107b5575f80fd5b905f5260205f2090600402015f91509050805f0180546107d490611b39565b80601f016020809104026020016040519081016040528092919081815260200182805461080090611b39565b801561084b5780601f106108225761010080835404028352916020019161084b565b820191905f5260205f20905b81548152906001019060200180831161082e57829003601f168201915b50505050509080600101805461086090611b39565b80601f016020809104026020016040519081016040528092919081815260200182805461088c90611b39565b80156108d75780601f106108ae576101008083540402835291602001916108d7565b820191905f5260205f20905b8154815290600101906020018083116108ba57829003601f168201915b505050505090806002015f9054906101000a900473ffffffffffffffffffffffffffffffffffffffff16908060030154905084565b61091461102d565b61091c611329565b84815f018190525083816020018190525082816040019073ffffffffffffffffffffffffffffffffffffffff16908173ffffffffffffffffffffffffffffffffffffffff168152505081816060018181525050600181908060018154018082558091505060019003905f5260205f2090600402015f909190919091505f820151815f0190816109ab9190611ed0565b5060208201518160010190816109c19190611ed0565b506040820151816002015f6101000a81548173ffffffffffffffffffffffffffffffffffffffff021916908373ffffffffffffffffffffffffffffffffffffffff1602179055506060820151816003015550508273ffffffffffffffffffffffffffffffffffffffff167ff38a947b354c36390a305d7b53a402563ae557e801e3b17485cdf12e36ae899d868685604051610a5e93929190611e8d565b60405180910390a25050505050565b610a7561102d565b5f60018054905090505f5b81811015610bb1578373ffffffffffffffffffffffffffffffffffffffff1660018281548110610ab357610ab2611adf565b5b905f5260205f2090600402016002015f9054906101000a900473ffffffffffffffffffffffffffffffffffffffff1673ffffffffffffffffffffffffffffffffffffffff1603610ba4575f60018281548110610b1257610b11611adf565b5b905f5260205f2090600402016003015490508360018381548110610b3957610b38611adf565b5b905f5260205f209060040201600301819055508473ffffffffffffffffffffffffffffffffffffffff167f38582773164c018623d54013a1e03e76d4d65b95cadd0aed69a2ab450e5827d18286604051610b94929190611f9f565b60405180910390a2505050610bed565b8080600101915050610a80565b506040517f08c379a0000000000000000000000000000000000000000000000000000000008152600401610be490612036565b60405180910390fd5b5050565b610bf961102d565b610c025f611193565b565b5f803490505f8111610c4b576040517f08c379a0000000000000000000000000000000000000000000000000000000008152600401610c429061209e565b60405180910390fd5b5f610c568285611254565b90505f670de0b6b3a764000082610c6d91906120bc565b90508493508373ffffffffffffffffffffffffffffffffffffffff166340c10f1933836040518363ffffffff1660e01b8152600401610cad9291906119e8565b5f604051808303815f87803b158015610cc4575f80fd5b505af1158015610cd6573d5f803e3d5ffd5b505050508473ffffffffffffffffffffffffffffffffffffffff163373ffffffffffffffffffffffffffffffffffffffff167ff7f47f57ee49f5189777d74901ce4e2d67462c050f30bbbb5a039c1fb51969f584604051610d3791906120fd565b60405180910390a35050505050565b5f805f9054906101000a900473ffffffffffffffffffffffffffffffffffffffff16905090565b60606001805480602002602001604051908101604052809291908181526020015f905b82821015610f3e578382905f5260205f2090600402016040518060800160405290815f82018054610dc090611b39565b80601f0160208091040260200160405190810160405280929190818152602001828054610dec90611b39565b8015610e375780601f10610e0e57610100808354040283529160200191610e37565b820191905f5260205f20905b815481529060010190602001808311610e1a57829003601f168201915b50505050508152602001600182018054610e5090611b39565b80601f0160208091040260200160405190810160405280929190818152602001828054610e7c90611b39565b8015610ec75780601f10610e9e57610100808354040283529160200191610ec7565b820191905f5260205f20905b815481529060010190602001808311610eaa57829003601f168201915b50505050508152602001600282015f9054906101000a900473ffffffffffffffffffffffffffffffffffffffff1673ffffffffffffffffffffffffffffffffffffffff1673ffffffffffffffffffffffffffffffffffffffff16815260200160038201548152505081526020019060010190610d90565b50505050905090565b610f4f61102d565b5f73ffffffffffffffffffffffffffffffffffffffff168173ffffffffffffffffffffffffffffffffffffffff1603610fbf575f6040517f1e4fbdf7000000000000000000000000000000000000000000000000000000008152600401610fb69190611759565b60405180910390fd5b610fc881611193565b50565b5f80610fd6836110b4565b90505f60018281548110610fed57610fec611adf565b5b905f5260205f2090600402016003015490505f670de0b6b3a7640000828761101591906120bc565b61101f9190612143565b905080935050505092915050565b6110356112e5565b73ffffffffffffffffffffffffffffffffffffffff16611053610d46565b73ffffffffffffffffffffffffffffffffffffffff16146110b2576110766112e5565b6040517f118cdaa70000000000000000000000000000000000000000000000000000000081526004016110a99190611759565b60405180910390fd5b565b5f805f90505b600180549050811015611152578273ffffffffffffffffffffffffffffffffffffffff16600182815481106110f2576110f1611adf565b5b905f5260205f2090600402016002015f9054906101000a900473ffffffffffffffffffffffffffffffffffffffff1673ffffffffffffffffffffffffffffffffffffffff1603611145578091505061118e565b80806001019150506110ba565b506040517f08c379a000000000000000000000000000000000000000000000000000000000815260040161118590611ac1565b60405180910390fd5b919050565b5f805f9054906101000a900473ffffffffffffffffffffffffffffffffffffffff169050815f806101000a81548173ffffffffffffffffffffffffffffffffffffffff021916908373ffffffffffffffffffffffffffffffffffffffff1602179055508173ffffffffffffffffffffffffffffffffffffffff168173ffffffffffffffffffffffffffffffffffffffff167f8be0079c531659141344cd1fd0a4f28419497f9722a3daafe3b4186f6b6457e060405160405180910390a35050565b5f8061125f836110b4565b90505f6001828154811061127657611275611adf565b5b905f5260205f2090600402016003015490505f81116112ca576040517f08c379a00000000000000000000000000000000000000000000000000000000081526004016112c1906121e3565b60405180910390fd5b5f81866112d79190612143565b905080935050505092915050565b5f33905090565b5080546112f890611b39565b5f825580601f106113095750611326565b601f0160209004905f5260205f20908101906113259190611365565b5b50565b604051806080016040528060608152602001606081526020015f73ffffffffffffffffffffffffffffffffffffffff1681526020015f81525090565b5b8082111561137c575f815f905550600101611366565b5090565b5f604051905090565b5f80fd5b5f80fd5b5f73ffffffffffffffffffffffffffffffffffffffff82169050919050565b5f6113ba82611391565b9050919050565b6113ca816113b0565b81146113d4575f80fd5b50565b5f813590506113e5816113c1565b92915050565b5f819050919050565b6113fd816113eb565b8114611407575f80fd5b50565b5f81359050611418816113f4565b92915050565b5f806040838503121561143457611433611389565b5b5f611441858286016113d7565b92505060206114528582860161140a565b9150509250929050565b5f6020828403121561147157611470611389565b5b5f61147e848285016113d7565b91505092915050565b5f6020828403121561149c5761149b611389565b5b5f6114a98482850161140a565b91505092915050565b5f81519050919050565b5f82825260208201905092915050565b8281835e5f83830152505050565b5f601f19601f8301169050919050565b5f6114f4826114b2565b6114fe81856114bc565b935061150e8185602086016114cc565b611517816114da565b840191505092915050565b61152b816113b0565b82525050565b61153a816113eb565b82525050565b5f6080820190508181035f83015261155881876114ea565b9050818103602083015261156c81866114ea565b905061157b6040830185611522565b6115886060830184611531565b95945050505050565b5f80fd5b5f80fd5b7f4e487b71000000000000000000000000000000000000000000000000000000005f52604160045260245ffd5b6115cf826114da565b810181811067ffffffffffffffff821117156115ee576115ed611599565b5b80604052505050565b5f611600611380565b905061160c82826115c6565b919050565b5f67ffffffffffffffff82111561162b5761162a611599565b5b611634826114da565b9050602081019050919050565b828183375f83830152505050565b5f61166161165c84611611565b6115f7565b90508281526020810184848401111561167d5761167c611595565b5b611688848285611641565b509392505050565b5f82601f8301126116a4576116a3611591565b5b81356116b484826020860161164f565b91505092915050565b5f805f80608085870312156116d5576116d4611389565b5b5f85013567ffffffffffffffff8111156116f2576116f161138d565b5b6116fe87828801611690565b945050602085013567ffffffffffffffff81111561171f5761171e61138d565b5b61172b87828801611690565b935050604061173c878288016113d7565b925050606061174d8782880161140a565b91505092959194509250565b5f60208201905061176c5f830184611522565b92915050565b5f81519050919050565b5f82825260208201905092915050565b5f819050602082019050919050565b5f82825260208201905092915050565b5f6117b5826114b2565b6117bf818561179b565b93506117cf8185602086016114cc565b6117d8816114da565b840191505092915050565b6117ec816113b0565b82525050565b6117fb816113eb565b82525050565b5f608083015f8301518482035f86015261181b82826117ab565b9150506020830151848203602086015261183582826117ab565b915050604083015161184a60408601826117e3565b50606083015161185d60608601826117f2565b508091505092915050565b5f6118738383611801565b905092915050565b5f602082019050919050565b5f61189182611772565b61189b818561177c565b9350836020820285016118ad8561178c565b805f5b858110156118e857848403895281516118c98582611868565b94506118d48361187b565b925060208a019950506001810190506118b0565b50829750879550505050505092915050565b5f6020820190508181035f8301526119128184611887565b905092915050565b5f60408201905061192d5f830185611522565b61193a6020830184611522565b9392505050565b5f8151905061194f816113f4565b92915050565b5f6020828403121561196a57611969611389565b5b5f61197784828501611941565b91505092915050565b7f496e73756666696369656e7420746f6b656e20616c6c6f77616e6365000000005f82015250565b5f6119b4601c836114bc565b91506119bf82611980565b602082019050919050565b5f6020820190508181035f8301526119e1816119a8565b9050919050565b5f6040820190506119fb5f830185611522565b611a086020830184611531565b9392505050565b7f4e6f7420656e6f7567682045544820746f2072656465656d2073746f636b73005f82015250565b5f611a43601f836114bc565b9150611a4e82611a0f565b602082019050919050565b5f6020820190508181035f830152611a7081611a37565b9050919050565b7f53746f636b206e6f7420666f756e6400000000000000000000000000000000005f82015250565b5f611aab600f836114bc565b9150611ab682611a77565b602082019050919050565b5f6020820190508181035f830152611ad881611a9f565b9050919050565b7f4e487b71000000000000000000000000000000000000000000000000000000005f52603260045260245ffd5b7f4e487b71000000000000000000000000000000000000000000000000000000005f52602260045260245ffd5b5f6002820490506001821680611b5057607f821691505b602082108103611b6357611b62611b0c565b5b50919050565b7f4e487b71000000000000000000000000000000000000000000000000000000005f52601160045260245ffd5b5f611ba0826113eb565b9150611bab836113eb565b9250828203905081811115611bc357611bc2611b69565b5b92915050565b5f81549050611bd781611b39565b9050919050565b5f819050815f5260205f209050919050565b5f6020601f8301049050919050565b5f82821b905092915050565b5f60088302611c3a7fffffffffffffffffffffffffffffffffffffffffffffffffffffffffffffffff82611bff565b611c448683611bff565b95508019841693508086168417925050509392505050565b5f819050919050565b5f611c7f611c7a611c75846113eb565b611c5c565b6113eb565b9050919050565b5f819050919050565b611c9883611c65565b611cac611ca482611c86565b848454611c0b565b825550505050565b5f90565b611cc0611cb4565b611ccb818484611c8f565b505050565b5b81811015611cee57611ce35f82611cb8565b600181019050611cd1565b5050565b601f821115611d3357611d0481611bde565b611d0d84611bf0565b81016020851015611d1c578190505b611d30611d2885611bf0565b830182611cd0565b50505b505050565b5f82821c905092915050565b5f611d535f1984600802611d38565b1980831691505092915050565b5f611d6b8383611d44565b9150826002028217905092915050565b818103611d89575050611e5e565b611d9282611bc9565b67ffffffffffffffff811115611dab57611daa611599565b5b611db58254611b39565b611dc0828285611cf2565b5f601f831160018114611ded575f8415611ddb578287015490505b611de58582611d60565b865550611e57565b601f198416611dfb87611bde565b9650611e0686611bde565b5f5b82811015611e2d57848901548255600182019150600185019450602081019050611e08565b86831015611e4a5784890154611e46601f891682611d44565b8355505b6001600288020188555050505b5050505050505b565b7f4e487b71000000000000000000000000000000000000000000000000000000005f52603160045260245ffd5b5f6060820190508181035f830152611ea581866114ea565b90508181036020830152611eb981856114ea565b9050611ec86040830184611531565b949350505050565b611ed9826114b2565b67ffffffffffffffff811115611ef257611ef1611599565b5b611efc8254611b39565b611f07828285611cf2565b5f60209050601f831160018114611f38575f8415611f26578287015190505b611f308582611d60565b865550611f97565b601f198416611f4686611bde565b5f5b82811015611f6d57848901518255600182019150602085019450602081019050611f48565b86831015611f8a5784890151611f86601f891682611d44565b8355505b6001600288020188555050505b505050505050565b5f604082019050611fb25f830185611531565b611fbf6020830184611531565b9392505050565b7f53746f636b2077697468207468697320636f6e747261637420616464726573735f8201527f206e6f7420666f756e6400000000000000000000000000000000000000000000602082015250565b5f612020602a836114bc565b915061202b82611fc6565b604082019050919050565b5f6020820190508181035f83015261204d81612014565b9050919050565b7f596f75206d7573742073656e642045544820746f206d696e742073746f636b735f82015250565b5f6120886020836114bc565b915061209382612054565b602082019050919050565b5f6020820190508181035f8301526120b58161207c565b9050919050565b5f6120c6826113eb565b91506120d1836113eb565b92508282026120df816113eb565b915082820484148315176120f6576120f5611b69565b5b5092915050565b5f6020820190506121105f830184611531565b92915050565b7f4e487b71000000000000000000000000000000000000000000000000000000005f52601260045260245ffd5b5f61214d826113eb565b9150612158836113eb565b92508261216857612167612116565b5b828204905092915050565b7f53746f636b207072696365206d7573742062652067726561746572207468616e5f8201527f207a65726f000000000000000000000000000000000000000000000000000000602082015250565b5f6121cd6025836114bc565b91506121d882612173565b604082019050919050565b5f6020820190508181035f8301526121fa816121c1565b905091905056fea26469706673582212205e20c917fabb4e4fcac1f10616ea80040f0ac2261d69aec7b221d5b2a3456f3364736f6c634300081a0033",
			"opcodes": "PUSH1 0x80 PUSH1 0x40 MSTORE CALLVALUE DUP1 ISZERO PUSH2 0xF JUMPI PUSH0 DUP1 REVERT JUMPDEST POP PUSH1 0x40 MLOAD PUSH2 0x2472 CODESIZE SUB DUP1 PUSH2 0x2472 DUP4 CODECOPY DUP2 DUP2 ADD PUSH1 0x40 MSTORE DUP2 ADD SWAP1 PUSH2 0x31 SWAP2 SWAP1 PUSH2 0x1DB JUMP JUMPDEST DUP1 DUP1 DUP1 PUSH0 PUSH20 0xFFFFFFFFFFFFFFFFFFFFFFFFFFFFFFFFFFFFFFFF AND DUP2 PUSH20 0xFFFFFFFFFFFFFFFFFFFFFFFFFFFFFFFFFFFFFFFF AND SUB PUSH2 0xA4 JUMPI PUSH0 PUSH1 0x40 MLOAD PUSH32 0x1E4FBDF700000000000000000000000000000000000000000000000000000000 DUP2 MSTORE PUSH1 0x4 ADD PUSH2 0x9B SWAP2 SWAP1 PUSH2 0x215 JUMP JUMPDEST PUSH1 0x40 MLOAD DUP1 SWAP2 SUB SWAP1 REVERT JUMPDEST PUSH2 0xB3 DUP2 PUSH2 0xBC PUSH1 0x20 SHL PUSH1 0x20 SHR JUMP JUMPDEST POP POP POP POP PUSH2 0x22E JUMP JUMPDEST PUSH0 DUP1 PUSH0 SWAP1 SLOAD SWAP1 PUSH2 0x100 EXP SWAP1 DIV PUSH20 0xFFFFFFFFFFFFFFFFFFFFFFFFFFFFFFFFFFFFFFFF AND SWAP1 POP DUP2 PUSH0 DUP1 PUSH2 0x100 EXP DUP2 SLOAD DUP2 PUSH20 0xFFFFFFFFFFFFFFFFFFFFFFFFFFFFFFFFFFFFFFFF MUL NOT AND SWAP1 DUP4 PUSH20 0xFFFFFFFFFFFFFFFFFFFFFFFFFFFFFFFFFFFFFFFF AND MUL OR SWAP1 SSTORE POP DUP2 PUSH20 0xFFFFFFFFFFFFFFFFFFFFFFFFFFFFFFFFFFFFFFFF AND DUP2 PUSH20 0xFFFFFFFFFFFFFFFFFFFFFFFFFFFFFFFFFFFFFFFF AND PUSH32 0x8BE0079C531659141344CD1FD0A4F28419497F9722A3DAAFE3B4186F6B6457E0 PUSH1 0x40 MLOAD PUSH1 0x40 MLOAD DUP1 SWAP2 SUB SWAP1 LOG3 POP POP JUMP JUMPDEST PUSH0 DUP1 REVERT JUMPDEST PUSH0 PUSH20 0xFFFFFFFFFFFFFFFFFFFFFFFFFFFFFFFFFFFFFFFF DUP3 AND SWAP1 POP SWAP2 SWAP1 POP JUMP JUMPDEST PUSH0 PUSH2 0x1AA DUP3 PUSH2 0x181 JUMP JUMPDEST SWAP1 POP SWAP2 SWAP1 POP JUMP JUMPDEST PUSH2 0x1BA DUP2 PUSH2 0x1A0 JUMP JUMPDEST DUP2 EQ PUSH2 0x1C4 JUMPI PUSH0 DUP1 REVERT JUMPDEST POP JUMP JUMPDEST PUSH0 DUP2 MLOAD SWAP1 POP PUSH2 0x1D5 DUP2 PUSH2 0x1B1 JUMP JUMPDEST SWAP3 SWAP2 POP POP JUMP JUMPDEST PUSH0 PUSH1 0x20 DUP3 DUP5 SUB SLT ISZERO PUSH2 0x1F0 JUMPI PUSH2 0x1EF PUSH2 0x17D JUMP JUMPDEST JUMPDEST PUSH0 PUSH2 0x1FD DUP5 DUP3 DUP6 ADD PUSH2 0x1C7 JUMP JUMPDEST SWAP2 POP POP SWAP3 SWAP2 POP POP JUMP JUMPDEST PUSH2 0x20F DUP2 PUSH2 0x1A0 JUMP JUMPDEST DUP3 MSTORE POP POP JUMP JUMPDEST PUSH0 PUSH1 0x20 DUP3 ADD SWAP1 POP PUSH2 0x228 PUSH0 DUP4 ADD DUP5 PUSH2 0x206 JUMP JUMPDEST SWAP3 SWAP2 POP POP JUMP JUMPDEST PUSH2 0x2237 DUP1 PUSH2 0x23B PUSH0 CODECOPY PUSH0 RETURN INVALID PUSH1 0x80 PUSH1 0x40 MSTORE PUSH1 0x4 CALLDATASIZE LT PUSH2 0x90 JUMPI PUSH0 CALLDATALOAD PUSH1 0xE0 SHR DUP1 PUSH4 0x715018A6 GT PUSH2 0x58 JUMPI DUP1 PUSH4 0x715018A6 EQ PUSH2 0x167 JUMPI DUP1 PUSH4 0x768955E2 EQ PUSH2 0x17D JUMPI DUP1 PUSH4 0x8DA5CB5B EQ PUSH2 0x199 JUMPI DUP1 PUSH4 0xADE5A0A0 EQ PUSH2 0x1C3 JUMPI DUP1 PUSH4 0xF2FDE38B EQ PUSH2 0x1ED JUMPI PUSH2 0x90 JUMP JUMPDEST DUP1 PUSH4 0x17DF04E5 EQ PUSH2 0x94 JUMPI DUP1 PUSH4 0x1D7DCBA7 EQ PUSH2 0xB0 JUMPI DUP1 PUSH4 0x226B876C EQ PUSH2 0xD8 JUMPI DUP1 PUSH4 0x2C7D3BDD EQ PUSH2 0x117 JUMPI DUP1 PUSH4 0x651CB0F9 EQ PUSH2 0x13F JUMPI JUMPDEST PUSH0 DUP1 REVERT JUMPDEST PUSH2 0xAE PUSH1 0x4 DUP1 CALLDATASIZE SUB DUP2 ADD SWAP1 PUSH2 0xA9 SWAP2 SWAP1 PUSH2 0x141E JUMP JUMPDEST PUSH2 0x215 JUMP JUMPDEST STOP JUMPDEST CALLVALUE DUP1 ISZERO PUSH2 0xBB JUMPI PUSH0 DUP1 REVERT JUMPDEST POP PUSH2 0xD6 PUSH1 0x4 DUP1 CALLDATASIZE SUB DUP2 ADD SWAP1 PUSH2 0xD1 SWAP2 SWAP1 PUSH2 0x145C JUMP JUMPDEST PUSH2 0x3DD JUMP JUMPDEST STOP JUMPDEST CALLVALUE DUP1 ISZERO PUSH2 0xE3 JUMPI PUSH0 DUP1 REVERT JUMPDEST POP PUSH2 0xFE PUSH1 0x4 DUP1 CALLDATASIZE SUB DUP2 ADD SWAP1 PUSH2 0xF9 SWAP2 SWAP1 PUSH2 0x1487 JUMP JUMPDEST PUSH2 0x7A6 JUMP JUMPDEST PUSH1 0x40 MLOAD PUSH2 0x10E SWAP5 SWAP4 SWAP3 SWAP2 SWAP1 PUSH2 0x1540 JUMP JUMPDEST PUSH1 0x40 MLOAD DUP1 SWAP2 SUB SWAP1 RETURN JUMPDEST CALLVALUE DUP1 ISZERO PUSH2 0x122 JUMPI PUSH0 DUP1 REVERT JUMPDEST POP PUSH2 0x13D PUSH1 0x4 DUP1 CALLDATASIZE SUB DUP2 ADD SWAP1 PUSH2 0x138 SWAP2 SWAP1 PUSH2 0x16BD JUMP JUMPDEST PUSH2 0x90C JUMP JUMPDEST STOP JUMPDEST CALLVALUE DUP1 ISZERO PUSH2 0x14A JUMPI PUSH0 DUP1 REVERT JUMPDEST POP PUSH2 0x165 PUSH1 0x4 DUP1 CALLDATASIZE SUB DUP2 ADD SWAP1 PUSH2 0x160 SWAP2 SWAP1 PUSH2 0x141E JUMP JUMPDEST PUSH2 0xA6D JUMP JUMPDEST STOP JUMPDEST CALLVALUE DUP1 ISZERO PUSH2 0x172 JUMPI PUSH0 DUP1 REVERT JUMPDEST POP PUSH2 0x17B PUSH2 0xBF1 JUMP JUMPDEST STOP JUMPDEST PUSH2 0x197 PUSH1 0x4 DUP1 CALLDATASIZE SUB DUP2 ADD SWAP1 PUSH2 0x192 SWAP2 SWAP1 PUSH2 0x145C JUMP JUMPDEST PUSH2 0xC04 JUMP JUMPDEST STOP JUMPDEST CALLVALUE DUP1 ISZERO PUSH2 0x1A4 JUMPI PUSH0 DUP1 REVERT JUMPDEST POP PUSH2 0x1AD PUSH2 0xD46 JUMP JUMPDEST PUSH1 0x40 MLOAD PUSH2 0x1BA SWAP2 SWAP1 PUSH2 0x1759 JUMP JUMPDEST PUSH1 0x40 MLOAD DUP1 SWAP2 SUB SWAP1 RETURN JUMPDEST CALLVALUE DUP1 ISZERO PUSH2 0x1CE JUMPI PUSH0 DUP1 REVERT JUMPDEST POP PUSH2 0x1D7 PUSH2 0xD6D JUMP JUMPDEST PUSH1 0x40 MLOAD PUSH2 0x1E4 SWAP2 SWAP1 PUSH2 0x18FA JUMP JUMPDEST PUSH1 0x40 MLOAD DUP1 SWAP2 SUB SWAP1 RETURN JUMPDEST CALLVALUE DUP1 ISZERO PUSH2 0x1F8 JUMPI PUSH0 DUP1 REVERT JUMPDEST POP PUSH2 0x213 PUSH1 0x4 DUP1 CALLDATASIZE SUB DUP2 ADD SWAP1 PUSH2 0x20E SWAP2 SWAP1 PUSH2 0x145C JUMP JUMPDEST PUSH2 0xF47 JUMP JUMPDEST STOP JUMPDEST PUSH0 DUP3 SWAP1 POP PUSH0 DUP2 PUSH20 0xFFFFFFFFFFFFFFFFFFFFFFFFFFFFFFFFFFFFFFFF AND PUSH4 0xDD62ED3E CALLER ADDRESS PUSH1 0x40 MLOAD DUP4 PUSH4 0xFFFFFFFF AND PUSH1 0xE0 SHL DUP2 MSTORE PUSH1 0x4 ADD PUSH2 0x255 SWAP3 SWAP2 SWAP1 PUSH2 0x191A JUMP JUMPDEST PUSH1 0x20 PUSH1 0x40 MLOAD DUP1 DUP4 SUB DUP2 PUSH0 DUP8 GAS CALL ISZERO DUP1 ISZERO PUSH2 0x271 JUMPI RETURNDATASIZE PUSH0 DUP1 RETURNDATACOPY RETURNDATASIZE PUSH0 REVERT JUMPDEST POP POP POP POP PUSH1 0x40 MLOAD RETURNDATASIZE PUSH1 0x1F NOT PUSH1 0x1F DUP3 ADD AND DUP3 ADD DUP1 PUSH1 0x40 MSTORE POP DUP2 ADD SWAP1 PUSH2 0x295 SWAP2 SWAP1 PUSH2 0x1955 JUMP JUMPDEST SWAP1 POP DUP3 DUP2 LT ISZERO PUSH2 0x2DA JUMPI PUSH1 0x40 MLOAD PUSH32 0x8C379A000000000000000000000000000000000000000000000000000000000 DUP2 MSTORE PUSH1 0x4 ADD PUSH2 0x2D1 SWAP1 PUSH2 0x19CA JUMP JUMPDEST PUSH1 0x40 MLOAD DUP1 SWAP2 SUB SWAP1 REVERT JUMPDEST DUP2 PUSH20 0xFFFFFFFFFFFFFFFFFFFFFFFFFFFFFFFFFFFFFFFF AND PUSH4 0x79CC6790 CALLER DUP6 PUSH1 0x40 MLOAD DUP4 PUSH4 0xFFFFFFFF AND PUSH1 0xE0 SHL DUP2 MSTORE PUSH1 0x4 ADD PUSH2 0x315 SWAP3 SWAP2 SWAP1 PUSH2 0x19E8 JUMP JUMPDEST PUSH0 PUSH1 0x40 MLOAD DUP1 DUP4 SUB DUP2 PUSH0 DUP8 DUP1 EXTCODESIZE ISZERO DUP1 ISZERO PUSH2 0x32C JUMPI PUSH0 DUP1 REVERT JUMPDEST POP GAS CALL ISZERO DUP1 ISZERO PUSH2 0x33E JUMPI RETURNDATASIZE PUSH0 DUP1 RETURNDATACOPY RETURNDATASIZE PUSH0 REVERT JUMPDEST POP POP POP POP PUSH0 PUSH2 0x34D DUP5 DUP7 PUSH2 0xFCB JUMP JUMPDEST SWAP1 POP DUP1 SELFBALANCE LT ISZERO PUSH2 0x392 JUMPI PUSH1 0x40 MLOAD PUSH32 0x8C379A000000000000000000000000000000000000000000000000000000000 DUP2 MSTORE PUSH1 0x4 ADD PUSH2 0x389 SWAP1 PUSH2 0x1A59 JUMP JUMPDEST PUSH1 0x40 MLOAD DUP1 SWAP2 SUB SWAP1 REVERT JUMPDEST CALLER PUSH20 0xFFFFFFFFFFFFFFFFFFFFFFFFFFFFFFFFFFFFFFFF AND PUSH2 0x8FC DUP3 SWAP1 DUP2 ISZERO MUL SWAP1 PUSH1 0x40 MLOAD PUSH0 PUSH1 0x40 MLOAD DUP1 DUP4 SUB DUP2 DUP6 DUP9 DUP9 CALL SWAP4 POP POP POP POP ISZERO DUP1 ISZERO PUSH2 0x3D5 JUMPI RETURNDATASIZE PUSH0 DUP1 RETURNDATACOPY RETURNDATASIZE PUSH0 REVERT JUMPDEST POP POP POP POP POP POP JUMP JUMPDEST PUSH2 0x3E5 PUSH2 0x102D JUMP JUMPDEST PUSH0 PUSH2 0x3EF DUP3 PUSH2 0x10B4 JUMP JUMPDEST SWAP1 POP PUSH1 0x1 DUP1 SLOAD SWAP1 POP DUP2 LT PUSH2 0x438 JUMPI PUSH1 0x40 MLOAD PUSH32 0x8C379A000000000000000000000000000000000000000000000000000000000 DUP2 MSTORE PUSH1 0x4 ADD PUSH2 0x42F SWAP1 PUSH2 0x1AC1 JUMP JUMPDEST PUSH1 0x40 MLOAD DUP1 SWAP2 SUB SWAP1 REVERT JUMPDEST PUSH0 PUSH1 0x1 DUP3 DUP2 SLOAD DUP2 LT PUSH2 0x44D JUMPI PUSH2 0x44C PUSH2 0x1ADF JUMP JUMPDEST JUMPDEST SWAP1 PUSH0 MSTORE PUSH1 0x20 PUSH0 KECCAK256 SWAP1 PUSH1 0x4 MUL ADD PUSH1 0x40 MLOAD DUP1 PUSH1 0x80 ADD PUSH1 0x40 MSTORE SWAP1 DUP2 PUSH0 DUP3 ADD DUP1 SLOAD PUSH2 0x473 SWAP1 PUSH2 0x1B39 JUMP JUMPDEST DUP1 PUSH1 0x1F ADD PUSH1 0x20 DUP1 SWAP2 DIV MUL PUSH1 0x20 ADD PUSH1 0x40 MLOAD SWAP1 DUP2 ADD PUSH1 0x40 MSTORE DUP1 SWAP3 SWAP2 SWAP1 DUP2 DUP2 MSTORE PUSH1 0x20 ADD DUP3 DUP1 SLOAD PUSH2 0x49F SWAP1 PUSH2 0x1B39 JUMP JUMPDEST DUP1 ISZERO PUSH2 0x4EA JUMPI DUP1 PUSH1 0x1F LT PUSH2 0x4C1 JUMPI PUSH2 0x100 DUP1 DUP4 SLOAD DIV MUL DUP4 MSTORE SWAP2 PUSH1 0x20 ADD SWAP2 PUSH2 0x4EA JUMP JUMPDEST DUP3 ADD SWAP2 SWAP1 PUSH0 MSTORE PUSH1 0x20 PUSH0 KECCAK256 SWAP1 JUMPDEST DUP2 SLOAD DUP2 MSTORE SWAP1 PUSH1 0x1 ADD SWAP1 PUSH1 0x20 ADD DUP1 DUP4 GT PUSH2 0x4CD JUMPI DUP3 SWAP1 SUB PUSH1 0x1F AND DUP3 ADD SWAP2 JUMPDEST POP POP POP POP POP DUP2 MSTORE PUSH1 0x20 ADD PUSH1 0x1 DUP3 ADD DUP1 SLOAD PUSH2 0x503 SWAP1 PUSH2 0x1B39 JUMP JUMPDEST DUP1 PUSH1 0x1F ADD PUSH1 0x20 DUP1 SWAP2 DIV MUL PUSH1 0x20 ADD PUSH1 0x40 MLOAD SWAP1 DUP2 ADD PUSH1 0x40 MSTORE DUP1 SWAP3 SWAP2 SWAP1 DUP2 DUP2 MSTORE PUSH1 0x20 ADD DUP3 DUP1 SLOAD PUSH2 0x52F SWAP1 PUSH2 0x1B39 JUMP JUMPDEST DUP1 ISZERO PUSH2 0x57A JUMPI DUP1 PUSH1 0x1F LT PUSH2 0x551 JUMPI PUSH2 0x100 DUP1 DUP4 SLOAD DIV MUL DUP4 MSTORE SWAP2 PUSH1 0x20 ADD SWAP2 PUSH2 0x57A JUMP JUMPDEST DUP3 ADD SWAP2 SWAP1 PUSH0 MSTORE PUSH1 0x20 PUSH0 KECCAK256 SWAP1 JUMPDEST DUP2 SLOAD DUP2 MSTORE SWAP1 PUSH1 0x1 ADD SWAP1 PUSH1 0x20 ADD DUP1 DUP4 GT PUSH2 0x55D JUMPI DUP3 SWAP1 SUB PUSH1 0x1F AND DUP3 ADD SWAP2 JUMPDEST POP POP POP POP POP DUP2 MSTORE PUSH1 0x20 ADD PUSH1 0x2 DUP3 ADD PUSH0 SWAP1 SLOAD SWAP1 PUSH2 0x100 EXP SWAP1 DIV PUSH20 0xFFFFFFFFFFFFFFFFFFFFFFFFFFFFFFFFFFFFFFFF AND PUSH20 0xFFFFFFFFFFFFFFFFFFFFFFFFFFFFFFFFFFFFFFFF AND PUSH20 0xFFFFFFFFFFFFFFFFFFFFFFFFFFFFFFFFFFFFFFFF AND DUP2 MSTORE PUSH1 0x20 ADD PUSH1 0x3 DUP3 ADD SLOAD DUP2 MSTORE POP POP SWAP1 POP PUSH1 0x1 DUP1 DUP1 DUP1 SLOAD SWAP1 POP PUSH2 0x5F6 SWAP2 SWAP1 PUSH2 0x1B96 JUMP JUMPDEST DUP2 SLOAD DUP2 LT PUSH2 0x607 JUMPI PUSH2 0x606 PUSH2 0x1ADF JUMP JUMPDEST JUMPDEST SWAP1 PUSH0 MSTORE PUSH1 0x20 PUSH0 KECCAK256 SWAP1 PUSH1 0x4 MUL ADD PUSH1 0x1 DUP4 DUP2 SLOAD DUP2 LT PUSH2 0x627 JUMPI PUSH2 0x626 PUSH2 0x1ADF JUMP JUMPDEST JUMPDEST SWAP1 PUSH0 MSTORE PUSH1 0x20 PUSH0 KECCAK256 SWAP1 PUSH1 0x4 MUL ADD PUSH0 DUP3 ADD DUP2 PUSH0 ADD SWAP1 DUP2 PUSH2 0x645 SWAP2 SWAP1 PUSH2 0x1D7B JUMP JUMPDEST POP PUSH1 0x1 DUP3 ADD DUP2 PUSH1 0x1 ADD SWAP1 DUP2 PUSH2 0x65A SWAP2 SWAP1 PUSH2 0x1D7B JUMP JUMPDEST POP PUSH1 0x2 DUP3 ADD PUSH0 SWAP1 SLOAD SWAP1 PUSH2 0x100 EXP SWAP1 DIV PUSH20 0xFFFFFFFFFFFFFFFFFFFFFFFFFFFFFFFFFFFFFFFF AND DUP2 PUSH1 0x2 ADD PUSH0 PUSH2 0x100 EXP DUP2 SLOAD DUP2 PUSH20 0xFFFFFFFFFFFFFFFFFFFFFFFFFFFFFFFFFFFFFFFF MUL NOT AND SWAP1 DUP4 PUSH20 0xFFFFFFFFFFFFFFFFFFFFFFFFFFFFFFFFFFFFFFFF AND MUL OR SWAP1 SSTORE POP PUSH1 0x3 DUP3 ADD SLOAD DUP2 PUSH1 0x3 ADD SSTORE SWAP1 POP POP PUSH1 0x1 DUP1 SLOAD DUP1 PUSH2 0x6DF JUMPI PUSH2 0x6DE PUSH2 0x1E60 JUMP JUMPDEST JUMPDEST PUSH1 0x1 SWAP1 SUB DUP2 DUP2 SWAP1 PUSH0 MSTORE PUSH1 0x20 PUSH0 KECCAK256 SWAP1 PUSH1 0x4 MUL ADD PUSH0 DUP1 DUP3 ADD PUSH0 PUSH2 0x700 SWAP2 SWAP1 PUSH2 0x12EC JUMP JUMPDEST PUSH1 0x1 DUP3 ADD PUSH0 PUSH2 0x70F SWAP2 SWAP1 PUSH2 0x12EC JUMP JUMPDEST PUSH1 0x2 DUP3 ADD PUSH0 PUSH2 0x100 EXP DUP2 SLOAD SWAP1 PUSH20 0xFFFFFFFFFFFFFFFFFFFFFFFFFFFFFFFFFFFFFFFF MUL NOT AND SWAP1 SSTORE PUSH1 0x3 DUP3 ADD PUSH0 SWAP1 SSTORE POP POP SWAP1 SSTORE DUP1 PUSH1 0x40 ADD MLOAD PUSH20 0xFFFFFFFFFFFFFFFFFFFFFFFFFFFFFFFFFFFFFFFF AND PUSH32 0xB39363374DDFC8CDCA31782D3E92557276EA3D9F9295FBFE4BE3862707D31D81 DUP3 PUSH0 ADD MLOAD DUP4 PUSH1 0x20 ADD MLOAD DUP5 PUSH1 0x60 ADD MLOAD PUSH1 0x40 MLOAD PUSH2 0x799 SWAP4 SWAP3 SWAP2 SWAP1 PUSH2 0x1E8D JUMP JUMPDEST PUSH1 0x40 MLOAD DUP1 SWAP2 SUB SWAP1 LOG2 POP POP POP JUMP JUMPDEST PUSH1 0x1 DUP2 DUP2 SLOAD DUP2 LT PUSH2 0x7B5 JUMPI PUSH0 DUP1 REVERT JUMPDEST SWAP1 PUSH0 MSTORE PUSH1 0x20 PUSH0 KECCAK256 SWAP1 PUSH1 0x4 MUL ADD PUSH0 SWAP2 POP SWAP1 POP DUP1 PUSH0 ADD DUP1 SLOAD PUSH2 0x7D4 SWAP1 PUSH2 0x1B39 JUMP JUMPDEST DUP1 PUSH1 0x1F ADD PUSH1 0x20 DUP1 SWAP2 DIV MUL PUSH1 0x20 ADD PUSH1 0x40 MLOAD SWAP1 DUP2 ADD PUSH1 0x40 MSTORE DUP1 SWAP3 SWAP2 SWAP1 DUP2 DUP2 MSTORE PUSH1 0x20 ADD DUP3 DUP1 SLOAD PUSH2 0x800 SWAP1 PUSH2 0x1B39 JUMP JUMPDEST DUP1 ISZERO PUSH2 0x84B JUMPI DUP1 PUSH1 0x1F LT PUSH2 0x822 JUMPI PUSH2 0x100 DUP1 DUP4 SLOAD DIV MUL DUP4 MSTORE SWAP2 PUSH1 0x20 ADD SWAP2 PUSH2 0x84B JUMP JUMPDEST DUP3 ADD SWAP2 SWAP1 PUSH0 MSTORE PUSH1 0x20 PUSH0 KECCAK256 SWAP1 JUMPDEST DUP2 SLOAD DUP2 MSTORE SWAP1 PUSH1 0x1 ADD SWAP1 PUSH1 0x20 ADD DUP1 DUP4 GT PUSH2 0x82E JUMPI DUP3 SWAP1 SUB PUSH1 0x1F AND DUP3 ADD SWAP2 JUMPDEST POP POP POP POP POP SWAP1 DUP1 PUSH1 0x1 ADD DUP1 SLOAD PUSH2 0x860 SWAP1 PUSH2 0x1B39 JUMP JUMPDEST DUP1 PUSH1 0x1F ADD PUSH1 0x20 DUP1 SWAP2 DIV MUL PUSH1 0x20 ADD PUSH1 0x40 MLOAD SWAP1 DUP2 ADD PUSH1 0x40 MSTORE DUP1 SWAP3 SWAP2 SWAP1 DUP2 DUP2 MSTORE PUSH1 0x20 ADD DUP3 DUP1 SLOAD PUSH2 0x88C SWAP1 PUSH2 0x1B39 JUMP JUMPDEST DUP1 ISZERO PUSH2 0x8D7 JUMPI DUP1 PUSH1 0x1F LT PUSH2 0x8AE JUMPI PUSH2 0x100 DUP1 DUP4 SLOAD DIV MUL DUP4 MSTORE SWAP2 PUSH1 0x20 ADD SWAP2 PUSH2 0x8D7 JUMP JUMPDEST DUP3 ADD SWAP2 SWAP1 PUSH0 MSTORE PUSH1 0x20 PUSH0 KECCAK256 SWAP1 JUMPDEST DUP2 SLOAD DUP2 MSTORE SWAP1 PUSH1 0x1 ADD SWAP1 PUSH1 0x20 ADD DUP1 DUP4 GT PUSH2 0x8BA JUMPI DUP3 SWAP1 SUB PUSH1 0x1F AND DUP3 ADD SWAP2 JUMPDEST POP POP POP POP POP SWAP1 DUP1 PUSH1 0x2 ADD PUSH0 SWAP1 SLOAD SWAP1 PUSH2 0x100 EXP SWAP1 DIV PUSH20 0xFFFFFFFFFFFFFFFFFFFFFFFFFFFFFFFFFFFFFFFF AND SWAP1 DUP1 PUSH1 0x3 ADD SLOAD SWAP1 POP DUP5 JUMP JUMPDEST PUSH2 0x914 PUSH2 0x102D JUMP JUMPDEST PUSH2 0x91C PUSH2 0x1329 JUMP JUMPDEST DUP5 DUP2 PUSH0 ADD DUP2 SWAP1 MSTORE POP DUP4 DUP2 PUSH1 0x20 ADD DUP2 SWAP1 MSTORE POP DUP3 DUP2 PUSH1 0x40 ADD SWAP1 PUSH20 0xFFFFFFFFFFFFFFFFFFFFFFFFFFFFFFFFFFFFFFFF AND SWAP1 DUP2 PUSH20 0xFFFFFFFFFFFFFFFFFFFFFFFFFFFFFFFFFFFFFFFF AND DUP2 MSTORE POP POP DUP2 DUP2 PUSH1 0x60 ADD DUP2 DUP2 MSTORE POP POP PUSH1 0x1 DUP2 SWAP1 DUP1 PUSH1 0x1 DUP2 SLOAD ADD DUP1 DUP3 SSTORE DUP1 SWAP2 POP POP PUSH1 0x1 SWAP1 SUB SWAP1 PUSH0 MSTORE PUSH1 0x20 PUSH0 KECCAK256 SWAP1 PUSH1 0x4 MUL ADD PUSH0 SWAP1 SWAP2 SWAP1 SWAP2 SWAP1 SWAP2 POP PUSH0 DUP3 ADD MLOAD DUP2 PUSH0 ADD SWAP1 DUP2 PUSH2 0x9AB SWAP2 SWAP1 PUSH2 0x1ED0 JUMP JUMPDEST POP PUSH1 0x20 DUP3 ADD MLOAD DUP2 PUSH1 0x1 ADD SWAP1 DUP2 PUSH2 0x9C1 SWAP2 SWAP1 PUSH2 0x1ED0 JUMP JUMPDEST POP PUSH1 0x40 DUP3 ADD MLOAD DUP2 PUSH1 0x2 ADD PUSH0 PUSH2 0x100 EXP DUP2 SLOAD DUP2 PUSH20 0xFFFFFFFFFFFFFFFFFFFFFFFFFFFFFFFFFFFFFFFF MUL NOT AND SWAP1 DUP4 PUSH20 0xFFFFFFFFFFFFFFFFFFFFFFFFFFFFFFFFFFFFFFFF AND MUL OR SWAP1 SSTORE POP PUSH1 0x60 DUP3 ADD MLOAD DUP2 PUSH1 0x3 ADD SSTORE POP POP DUP3 PUSH20 0xFFFFFFFFFFFFFFFFFFFFFFFFFFFFFFFFFFFFFFFF AND PUSH32 0xF38A947B354C36390A305D7B53A402563AE557E801E3B17485CDF12E36AE899D DUP7 DUP7 DUP6 PUSH1 0x40 MLOAD PUSH2 0xA5E SWAP4 SWAP3 SWAP2 SWAP1 PUSH2 0x1E8D JUMP JUMPDEST PUSH1 0x40 MLOAD DUP1 SWAP2 SUB SWAP1 LOG2 POP POP POP POP POP JUMP JUMPDEST PUSH2 0xA75 PUSH2 0x102D JUMP JUMPDEST PUSH0 PUSH1 0x1 DUP1 SLOAD SWAP1 POP SWAP1 POP PUSH0 JUMPDEST DUP2 DUP2 LT ISZERO PUSH2 0xBB1 JUMPI DUP4 PUSH20 0xFFFFFFFFFFFFFFFFFFFFFFFFFFFFFFFFFFFFFFFF AND PUSH1 0x1 DUP3 DUP2 SLOAD DUP2 LT PUSH2 0xAB3 JUMPI PUSH2 0xAB2 PUSH2 0x1ADF JUMP JUMPDEST JUMPDEST SWAP1 PUSH0 MSTORE PUSH1 0x20 PUSH0 KECCAK256 SWAP1 PUSH1 0x4 MUL ADD PUSH1 0x2 ADD PUSH0 SWAP1 SLOAD SWAP1 PUSH2 0x100 EXP SWAP1 DIV PUSH20 0xFFFFFFFFFFFFFFFFFFFFFFFFFFFFFFFFFFFFFFFF AND PUSH20 0xFFFFFFFFFFFFFFFFFFFFFFFFFFFFFFFFFFFFFFFF AND SUB PUSH2 0xBA4 JUMPI PUSH0 PUSH1 0x1 DUP3 DUP2 SLOAD DUP2 LT PUSH2 0xB12 JUMPI PUSH2 0xB11 PUSH2 0x1ADF JUMP JUMPDEST JUMPDEST SWAP1 PUSH0 MSTORE PUSH1 0x20 PUSH0 KECCAK256 SWAP1 PUSH1 0x4 MUL ADD PUSH1 0x3 ADD SLOAD SWAP1 POP DUP4 PUSH1 0x1 DUP4 DUP2 SLOAD DUP2 LT PUSH2 0xB39 JUMPI PUSH2 0xB38 PUSH2 0x1ADF JUMP JUMPDEST JUMPDEST SWAP1 PUSH0 MSTORE PUSH1 0x20 PUSH0 KECCAK256 SWAP1 PUSH1 0x4 MUL ADD PUSH1 0x3 ADD DUP2 SWAP1 SSTORE POP DUP5 PUSH20 0xFFFFFFFFFFFFFFFFFFFFFFFFFFFFFFFFFFFFFFFF AND PUSH32 0x38582773164C018623D54013A1E03E76D4D65B95CADD0AED69A2AB450E5827D1 DUP3 DUP7 PUSH1 0x40 MLOAD PUSH2 0xB94 SWAP3 SWAP2 SWAP1 PUSH2 0x1F9F JUMP JUMPDEST PUSH1 0x40 MLOAD DUP1 SWAP2 SUB SWAP1 LOG2 POP POP POP PUSH2 0xBED JUMP JUMPDEST DUP1 DUP1 PUSH1 0x1 ADD SWAP2 POP POP PUSH2 0xA80 JUMP JUMPDEST POP PUSH1 0x40 MLOAD PUSH32 0x8C379A000000000000000000000000000000000000000000000000000000000 DUP2 MSTORE PUSH1 0x4 ADD PUSH2 0xBE4 SWAP1 PUSH2 0x2036 JUMP JUMPDEST PUSH1 0x40 MLOAD DUP1 SWAP2 SUB SWAP1 REVERT JUMPDEST POP POP JUMP JUMPDEST PUSH2 0xBF9 PUSH2 0x102D JUMP JUMPDEST PUSH2 0xC02 PUSH0 PUSH2 0x1193 JUMP JUMPDEST JUMP JUMPDEST PUSH0 DUP1 CALLVALUE SWAP1 POP PUSH0 DUP2 GT PUSH2 0xC4B JUMPI PUSH1 0x40 MLOAD PUSH32 0x8C379A000000000000000000000000000000000000000000000000000000000 DUP2 MSTORE PUSH1 0x4 ADD PUSH2 0xC42 SWAP1 PUSH2 0x209E JUMP JUMPDEST PUSH1 0x40 MLOAD DUP1 SWAP2 SUB SWAP1 REVERT JUMPDEST PUSH0 PUSH2 0xC56 DUP3 DUP6 PUSH2 0x1254 JUMP JUMPDEST SWAP1 POP PUSH0 PUSH8 0xDE0B6B3A7640000 DUP3 PUSH2 0xC6D SWAP2 SWAP1 PUSH2 0x20BC JUMP JUMPDEST SWAP1 POP DUP5 SWAP4 POP DUP4 PUSH20 0xFFFFFFFFFFFFFFFFFFFFFFFFFFFFFFFFFFFFFFFF AND PUSH4 0x40C10F19 CALLER DUP4 PUSH1 0x40 MLOAD DUP4 PUSH4 0xFFFFFFFF AND PUSH1 0xE0 SHL DUP2 MSTORE PUSH1 0x4 ADD PUSH2 0xCAD SWAP3 SWAP2 SWAP1 PUSH2 0x19E8 JUMP JUMPDEST PUSH0 PUSH1 0x40 MLOAD DUP1 DUP4 SUB DUP2 PUSH0 DUP8 DUP1 EXTCODESIZE ISZERO DUP1 ISZERO PUSH2 0xCC4 JUMPI PUSH0 DUP1 REVERT JUMPDEST POP GAS CALL ISZERO DUP1 ISZERO PUSH2 0xCD6 JUMPI RETURNDATASIZE PUSH0 DUP1 RETURNDATACOPY RETURNDATASIZE PUSH0 REVERT JUMPDEST POP POP POP POP DUP5 PUSH20 0xFFFFFFFFFFFFFFFFFFFFFFFFFFFFFFFFFFFFFFFF AND CALLER PUSH20 0xFFFFFFFFFFFFFFFFFFFFFFFFFFFFFFFFFFFFFFFF AND PUSH32 0xF7F47F57EE49F5189777D74901CE4E2D67462C050F30BBBB5A039C1FB51969F5 DUP5 PUSH1 0x40 MLOAD PUSH2 0xD37 SWAP2 SWAP1 PUSH2 0x20FD JUMP JUMPDEST PUSH1 0x40 MLOAD DUP1 SWAP2 SUB SWAP1 LOG3 POP POP POP POP POP JUMP JUMPDEST PUSH0 DUP1 PUSH0 SWAP1 SLOAD SWAP1 PUSH2 0x100 EXP SWAP1 DIV PUSH20 0xFFFFFFFFFFFFFFFFFFFFFFFFFFFFFFFFFFFFFFFF AND SWAP1 POP SWAP1 JUMP JUMPDEST PUSH1 0x60 PUSH1 0x1 DUP1 SLOAD DUP1 PUSH1 0x20 MUL PUSH1 0x20 ADD PUSH1 0x40 MLOAD SWAP1 DUP2 ADD PUSH1 0x40 MSTORE DUP1 SWAP3 SWAP2 SWAP1 DUP2 DUP2 MSTORE PUSH1 0x20 ADD PUSH0 SWAP1 JUMPDEST DUP3 DUP3 LT ISZERO PUSH2 0xF3E JUMPI DUP4 DUP3 SWAP1 PUSH0 MSTORE PUSH1 0x20 PUSH0 KECCAK256 SWAP1 PUSH1 0x4 MUL ADD PUSH1 0x40 MLOAD DUP1 PUSH1 0x80 ADD PUSH1 0x40 MSTORE SWAP1 DUP2 PUSH0 DUP3 ADD DUP1 SLOAD PUSH2 0xDC0 SWAP1 PUSH2 0x1B39 JUMP JUMPDEST DUP1 PUSH1 0x1F ADD PUSH1 0x20 DUP1 SWAP2 DIV MUL PUSH1 0x20 ADD PUSH1 0x40 MLOAD SWAP1 DUP2 ADD PUSH1 0x40 MSTORE DUP1 SWAP3 SWAP2 SWAP1 DUP2 DUP2 MSTORE PUSH1 0x20 ADD DUP3 DUP1 SLOAD PUSH2 0xDEC SWAP1 PUSH2 0x1B39 JUMP JUMPDEST DUP1 ISZERO PUSH2 0xE37 JUMPI DUP1 PUSH1 0x1F LT PUSH2 0xE0E JUMPI PUSH2 0x100 DUP1 DUP4 SLOAD DIV MUL DUP4 MSTORE SWAP2 PUSH1 0x20 ADD SWAP2 PUSH2 0xE37 JUMP JUMPDEST DUP3 ADD SWAP2 SWAP1 PUSH0 MSTORE PUSH1 0x20 PUSH0 KECCAK256 SWAP1 JUMPDEST DUP2 SLOAD DUP2 MSTORE SWAP1 PUSH1 0x1 ADD SWAP1 PUSH1 0x20 ADD DUP1 DUP4 GT PUSH2 0xE1A JUMPI DUP3 SWAP1 SUB PUSH1 0x1F AND DUP3 ADD SWAP2 JUMPDEST POP POP POP POP POP DUP2 MSTORE PUSH1 0x20 ADD PUSH1 0x1 DUP3 ADD DUP1 SLOAD PUSH2 0xE50 SWAP1 PUSH2 0x1B39 JUMP JUMPDEST DUP1 PUSH1 0x1F ADD PUSH1 0x20 DUP1 SWAP2 DIV MUL PUSH1 0x20 ADD PUSH1 0x40 MLOAD SWAP1 DUP2 ADD PUSH1 0x40 MSTORE DUP1 SWAP3 SWAP2 SWAP1 DUP2 DUP2 MSTORE PUSH1 0x20 ADD DUP3 DUP1 SLOAD PUSH2 0xE7C SWAP1 PUSH2 0x1B39 JUMP JUMPDEST DUP1 ISZERO PUSH2 0xEC7 JUMPI DUP1 PUSH1 0x1F LT PUSH2 0xE9E JUMPI PUSH2 0x100 DUP1 DUP4 SLOAD DIV MUL DUP4 MSTORE SWAP2 PUSH1 0x20 ADD SWAP2 PUSH2 0xEC7 JUMP JUMPDEST DUP3 ADD SWAP2 SWAP1 PUSH0 MSTORE PUSH1 0x20 PUSH0 KECCAK256 SWAP1 JUMPDEST DUP2 SLOAD DUP2 MSTORE SWAP1 PUSH1 0x1 ADD SWAP1 PUSH1 0x20 ADD DUP1 DUP4 GT PUSH2 0xEAA JUMPI DUP3 SWAP1 SUB PUSH1 0x1F AND DUP3 ADD SWAP2 JUMPDEST POP POP POP POP POP DUP2 MSTORE PUSH1 0x20 ADD PUSH1 0x2 DUP3 ADD PUSH0 SWAP1 SLOAD SWAP1 PUSH2 0x100 EXP SWAP1 DIV PUSH20 0xFFFFFFFFFFFFFFFFFFFFFFFFFFFFFFFFFFFFFFFF AND PUSH20 0xFFFFFFFFFFFFFFFFFFFFFFFFFFFFFFFFFFFFFFFF AND PUSH20 0xFFFFFFFFFFFFFFFFFFFFFFFFFFFFFFFFFFFFFFFF AND DUP2 MSTORE PUSH1 0x20 ADD PUSH1 0x3 DUP3 ADD SLOAD DUP2 MSTORE POP POP DUP2 MSTORE PUSH1 0x20 ADD SWAP1 PUSH1 0x1 ADD SWAP1 PUSH2 0xD90 JUMP JUMPDEST POP POP POP POP SWAP1 POP SWAP1 JUMP JUMPDEST PUSH2 0xF4F PUSH2 0x102D JUMP JUMPDEST PUSH0 PUSH20 0xFFFFFFFFFFFFFFFFFFFFFFFFFFFFFFFFFFFFFFFF AND DUP2 PUSH20 0xFFFFFFFFFFFFFFFFFFFFFFFFFFFFFFFFFFFFFFFF AND SUB PUSH2 0xFBF JUMPI PUSH0 PUSH1 0x40 MLOAD PUSH32 0x1E4FBDF700000000000000000000000000000000000000000000000000000000 DUP2 MSTORE PUSH1 0x4 ADD PUSH2 0xFB6 SWAP2 SWAP1 PUSH2 0x1759 JUMP JUMPDEST PUSH1 0x40 MLOAD DUP1 SWAP2 SUB SWAP1 REVERT JUMPDEST PUSH2 0xFC8 DUP2 PUSH2 0x1193 JUMP JUMPDEST POP JUMP JUMPDEST PUSH0 DUP1 PUSH2 0xFD6 DUP4 PUSH2 0x10B4 JUMP JUMPDEST SWAP1 POP PUSH0 PUSH1 0x1 DUP3 DUP2 SLOAD DUP2 LT PUSH2 0xFED JUMPI PUSH2 0xFEC PUSH2 0x1ADF JUMP JUMPDEST JUMPDEST SWAP1 PUSH0 MSTORE PUSH1 0x20 PUSH0 KECCAK256 SWAP1 PUSH1 0x4 MUL ADD PUSH1 0x3 ADD SLOAD SWAP1 POP PUSH0 PUSH8 0xDE0B6B3A7640000 DUP3 DUP8 PUSH2 0x1015 SWAP2 SWAP1 PUSH2 0x20BC JUMP JUMPDEST PUSH2 0x101F SWAP2 SWAP1 PUSH2 0x2143 JUMP JUMPDEST SWAP1 POP DUP1 SWAP4 POP POP POP POP SWAP3 SWAP2 POP POP JUMP JUMPDEST PUSH2 0x1035 PUSH2 0x12E5 JUMP JUMPDEST PUSH20 0xFFFFFFFFFFFFFFFFFFFFFFFFFFFFFFFFFFFFFFFF AND PUSH2 0x1053 PUSH2 0xD46 JUMP JUMPDEST PUSH20 0xFFFFFFFFFFFFFFFFFFFFFFFFFFFFFFFFFFFFFFFF AND EQ PUSH2 0x10B2 JUMPI PUSH2 0x1076 PUSH2 0x12E5 JUMP JUMPDEST PUSH1 0x40 MLOAD PUSH32 0x118CDAA700000000000000000000000000000000000000000000000000000000 DUP2 MSTORE PUSH1 0x4 ADD PUSH2 0x10A9 SWAP2 SWAP1 PUSH2 0x1759 JUMP JUMPDEST PUSH1 0x40 MLOAD DUP1 SWAP2 SUB SWAP1 REVERT JUMPDEST JUMP JUMPDEST PUSH0 DUP1 PUSH0 SWAP1 POP JUMPDEST PUSH1 0x1 DUP1 SLOAD SWAP1 POP DUP2 LT ISZERO PUSH2 0x1152 JUMPI DUP3 PUSH20 0xFFFFFFFFFFFFFFFFFFFFFFFFFFFFFFFFFFFFFFFF AND PUSH1 0x1 DUP3 DUP2 SLOAD DUP2 LT PUSH2 0x10F2 JUMPI PUSH2 0x10F1 PUSH2 0x1ADF JUMP JUMPDEST JUMPDEST SWAP1 PUSH0 MSTORE PUSH1 0x20 PUSH0 KECCAK256 SWAP1 PUSH1 0x4 MUL ADD PUSH1 0x2 ADD PUSH0 SWAP1 SLOAD SWAP1 PUSH2 0x100 EXP SWAP1 DIV PUSH20 0xFFFFFFFFFFFFFFFFFFFFFFFFFFFFFFFFFFFFFFFF AND PUSH20 0xFFFFFFFFFFFFFFFFFFFFFFFFFFFFFFFFFFFFFFFF AND SUB PUSH2 0x1145 JUMPI DUP1 SWAP2 POP POP PUSH2 0x118E JUMP JUMPDEST DUP1 DUP1 PUSH1 0x1 ADD SWAP2 POP POP PUSH2 0x10BA JUMP JUMPDEST POP PUSH1 0x40 MLOAD PUSH32 0x8C379A000000000000000000000000000000000000000000000000000000000 DUP2 MSTORE PUSH1 0x4 ADD PUSH2 0x1185 SWAP1 PUSH2 0x1AC1 JUMP JUMPDEST PUSH1 0x40 MLOAD DUP1 SWAP2 SUB SWAP1 REVERT JUMPDEST SWAP2 SWAP1 POP JUMP JUMPDEST PUSH0 DUP1 PUSH0 SWAP1 SLOAD SWAP1 PUSH2 0x100 EXP SWAP1 DIV PUSH20 0xFFFFFFFFFFFFFFFFFFFFFFFFFFFFFFFFFFFFFFFF AND SWAP1 POP DUP2 PUSH0 DUP1 PUSH2 0x100 EXP DUP2 SLOAD DUP2 PUSH20 0xFFFFFFFFFFFFFFFFFFFFFFFFFFFFFFFFFFFFFFFF MUL NOT AND SWAP1 DUP4 PUSH20 0xFFFFFFFFFFFFFFFFFFFFFFFFFFFFFFFFFFFFFFFF AND MUL OR SWAP1 SSTORE POP DUP2 PUSH20 0xFFFFFFFFFFFFFFFFFFFFFFFFFFFFFFFFFFFFFFFF AND DUP2 PUSH20 0xFFFFFFFFFFFFFFFFFFFFFFFFFFFFFFFFFFFFFFFF AND PUSH32 0x8BE0079C531659141344CD1FD0A4F28419497F9722A3DAAFE3B4186F6B6457E0 PUSH1 0x40 MLOAD PUSH1 0x40 MLOAD DUP1 SWAP2 SUB SWAP1 LOG3 POP POP JUMP JUMPDEST PUSH0 DUP1 PUSH2 0x125F DUP4 PUSH2 0x10B4 JUMP JUMPDEST SWAP1 POP PUSH0 PUSH1 0x1 DUP3 DUP2 SLOAD DUP2 LT PUSH2 0x1276 JUMPI PUSH2 0x1275 PUSH2 0x1ADF JUMP JUMPDEST JUMPDEST SWAP1 PUSH0 MSTORE PUSH1 0x20 PUSH0 KECCAK256 SWAP1 PUSH1 0x4 MUL ADD PUSH1 0x3 ADD SLOAD SWAP1 POP PUSH0 DUP2 GT PUSH2 0x12CA JUMPI PUSH1 0x40 MLOAD PUSH32 0x8C379A000000000000000000000000000000000000000000000000000000000 DUP2 MSTORE PUSH1 0x4 ADD PUSH2 0x12C1 SWAP1 PUSH2 0x21E3 JUMP JUMPDEST PUSH1 0x40 MLOAD DUP1 SWAP2 SUB SWAP1 REVERT JUMPDEST PUSH0 DUP2 DUP7 PUSH2 0x12D7 SWAP2 SWAP1 PUSH2 0x2143 JUMP JUMPDEST SWAP1 POP DUP1 SWAP4 POP POP POP POP SWAP3 SWAP2 POP POP JUMP JUMPDEST PUSH0 CALLER SWAP1 POP SWAP1 JUMP JUMPDEST POP DUP1 SLOAD PUSH2 0x12F8 SWAP1 PUSH2 0x1B39 JUMP JUMPDEST PUSH0 DUP3 SSTORE DUP1 PUSH1 0x1F LT PUSH2 0x1309 JUMPI POP PUSH2 0x1326 JUMP JUMPDEST PUSH1 0x1F ADD PUSH1 0x20 SWAP1 DIV SWAP1 PUSH0 MSTORE PUSH1 0x20 PUSH0 KECCAK256 SWAP1 DUP2 ADD SWAP1 PUSH2 0x1325 SWAP2 SWAP1 PUSH2 0x1365 JUMP JUMPDEST JUMPDEST POP JUMP JUMPDEST PUSH1 0x40 MLOAD DUP1 PUSH1 0x80 ADD PUSH1 0x40 MSTORE DUP1 PUSH1 0x60 DUP2 MSTORE PUSH1 0x20 ADD PUSH1 0x60 DUP2 MSTORE PUSH1 0x20 ADD PUSH0 PUSH20 0xFFFFFFFFFFFFFFFFFFFFFFFFFFFFFFFFFFFFFFFF AND DUP2 MSTORE PUSH1 0x20 ADD PUSH0 DUP2 MSTORE POP SWAP1 JUMP JUMPDEST JUMPDEST DUP1 DUP3 GT ISZERO PUSH2 0x137C JUMPI PUSH0 DUP2 PUSH0 SWAP1 SSTORE POP PUSH1 0x1 ADD PUSH2 0x1366 JUMP JUMPDEST POP SWAP1 JUMP JUMPDEST PUSH0 PUSH1 0x40 MLOAD SWAP1 POP SWAP1 JUMP JUMPDEST PUSH0 DUP1 REVERT JUMPDEST PUSH0 DUP1 REVERT JUMPDEST PUSH0 PUSH20 0xFFFFFFFFFFFFFFFFFFFFFFFFFFFFFFFFFFFFFFFF DUP3 AND SWAP1 POP SWAP2 SWAP1 POP JUMP JUMPDEST PUSH0 PUSH2 0x13BA DUP3 PUSH2 0x1391 JUMP JUMPDEST SWAP1 POP SWAP2 SWAP1 POP JUMP JUMPDEST PUSH2 0x13CA DUP2 PUSH2 0x13B0 JUMP JUMPDEST DUP2 EQ PUSH2 0x13D4 JUMPI PUSH0 DUP1 REVERT JUMPDEST POP JUMP JUMPDEST PUSH0 DUP2 CALLDATALOAD SWAP1 POP PUSH2 0x13E5 DUP2 PUSH2 0x13C1 JUMP JUMPDEST SWAP3 SWAP2 POP POP JUMP JUMPDEST PUSH0 DUP2 SWAP1 POP SWAP2 SWAP1 POP JUMP JUMPDEST PUSH2 0x13FD DUP2 PUSH2 0x13EB JUMP JUMPDEST DUP2 EQ PUSH2 0x1407 JUMPI PUSH0 DUP1 REVERT JUMPDEST POP JUMP JUMPDEST PUSH0 DUP2 CALLDATALOAD SWAP1 POP PUSH2 0x1418 DUP2 PUSH2 0x13F4 JUMP JUMPDEST SWAP3 SWAP2 POP POP JUMP JUMPDEST PUSH0 DUP1 PUSH1 0x40 DUP4 DUP6 SUB SLT ISZERO PUSH2 0x1434 JUMPI PUSH2 0x1433 PUSH2 0x1389 JUMP JUMPDEST JUMPDEST PUSH0 PUSH2 0x1441 DUP6 DUP3 DUP7 ADD PUSH2 0x13D7 JUMP JUMPDEST SWAP3 POP POP PUSH1 0x20 PUSH2 0x1452 DUP6 DUP3 DUP7 ADD PUSH2 0x140A JUMP JUMPDEST SWAP2 POP POP SWAP3 POP SWAP3 SWAP1 POP JUMP JUMPDEST PUSH0 PUSH1 0x20 DUP3 DUP5 SUB SLT ISZERO PUSH2 0x1471 JUMPI PUSH2 0x1470 PUSH2 0x1389 JUMP JUMPDEST JUMPDEST PUSH0 PUSH2 0x147E DUP5 DUP3 DUP6 ADD PUSH2 0x13D7 JUMP JUMPDEST SWAP2 POP POP SWAP3 SWAP2 POP POP JUMP JUMPDEST PUSH0 PUSH1 0x20 DUP3 DUP5 SUB SLT ISZERO PUSH2 0x149C JUMPI PUSH2 0x149B PUSH2 0x1389 JUMP JUMPDEST JUMPDEST PUSH0 PUSH2 0x14A9 DUP5 DUP3 DUP6 ADD PUSH2 0x140A JUMP JUMPDEST SWAP2 POP POP SWAP3 SWAP2 POP POP JUMP JUMPDEST PUSH0 DUP2 MLOAD SWAP1 POP SWAP2 SWAP1 POP JUMP JUMPDEST PUSH0 DUP3 DUP3 MSTORE PUSH1 0x20 DUP3 ADD SWAP1 POP SWAP3 SWAP2 POP POP JUMP JUMPDEST DUP3 DUP2 DUP4 MCOPY PUSH0 DUP4 DUP4 ADD MSTORE POP POP POP JUMP JUMPDEST PUSH0 PUSH1 0x1F NOT PUSH1 0x1F DUP4 ADD AND SWAP1 POP SWAP2 SWAP1 POP JUMP JUMPDEST PUSH0 PUSH2 0x14F4 DUP3 PUSH2 0x14B2 JUMP JUMPDEST PUSH2 0x14FE DUP2 DUP6 PUSH2 0x14BC JUMP JUMPDEST SWAP4 POP PUSH2 0x150E DUP2 DUP6 PUSH1 0x20 DUP7 ADD PUSH2 0x14CC JUMP JUMPDEST PUSH2 0x1517 DUP2 PUSH2 0x14DA JUMP JUMPDEST DUP5 ADD SWAP2 POP POP SWAP3 SWAP2 POP POP JUMP JUMPDEST PUSH2 0x152B DUP2 PUSH2 0x13B0 JUMP JUMPDEST DUP3 MSTORE POP POP JUMP JUMPDEST PUSH2 0x153A DUP2 PUSH2 0x13EB JUMP JUMPDEST DUP3 MSTORE POP POP JUMP JUMPDEST PUSH0 PUSH1 0x80 DUP3 ADD SWAP1 POP DUP2 DUP2 SUB PUSH0 DUP4 ADD MSTORE PUSH2 0x1558 DUP2 DUP8 PUSH2 0x14EA JUMP JUMPDEST SWAP1 POP DUP2 DUP2 SUB PUSH1 0x20 DUP4 ADD MSTORE PUSH2 0x156C DUP2 DUP7 PUSH2 0x14EA JUMP JUMPDEST SWAP1 POP PUSH2 0x157B PUSH1 0x40 DUP4 ADD DUP6 PUSH2 0x1522 JUMP JUMPDEST PUSH2 0x1588 PUSH1 0x60 DUP4 ADD DUP5 PUSH2 0x1531 JUMP JUMPDEST SWAP6 SWAP5 POP POP POP POP POP JUMP JUMPDEST PUSH0 DUP1 REVERT JUMPDEST PUSH0 DUP1 REVERT JUMPDEST PUSH32 0x4E487B7100000000000000000000000000000000000000000000000000000000 PUSH0 MSTORE PUSH1 0x41 PUSH1 0x4 MSTORE PUSH1 0x24 PUSH0 REVERT JUMPDEST PUSH2 0x15CF DUP3 PUSH2 0x14DA JUMP JUMPDEST DUP2 ADD DUP2 DUP2 LT PUSH8 0xFFFFFFFFFFFFFFFF DUP3 GT OR ISZERO PUSH2 0x15EE JUMPI PUSH2 0x15ED PUSH2 0x1599 JUMP JUMPDEST JUMPDEST DUP1 PUSH1 0x40 MSTORE POP POP POP JUMP JUMPDEST PUSH0 PUSH2 0x1600 PUSH2 0x1380 JUMP JUMPDEST SWAP1 POP PUSH2 0x160C DUP3 DUP3 PUSH2 0x15C6 JUMP JUMPDEST SWAP2 SWAP1 POP JUMP JUMPDEST PUSH0 PUSH8 0xFFFFFFFFFFFFFFFF DUP3 GT ISZERO PUSH2 0x162B JUMPI PUSH2 0x162A PUSH2 0x1599 JUMP JUMPDEST JUMPDEST PUSH2 0x1634 DUP3 PUSH2 0x14DA JUMP JUMPDEST SWAP1 POP PUSH1 0x20 DUP2 ADD SWAP1 POP SWAP2 SWAP1 POP JUMP JUMPDEST DUP3 DUP2 DUP4 CALLDATACOPY PUSH0 DUP4 DUP4 ADD MSTORE POP POP POP JUMP JUMPDEST PUSH0 PUSH2 0x1661 PUSH2 0x165C DUP5 PUSH2 0x1611 JUMP JUMPDEST PUSH2 0x15F7 JUMP JUMPDEST SWAP1 POP DUP3 DUP2 MSTORE PUSH1 0x20 DUP2 ADD DUP5 DUP5 DUP5 ADD GT ISZERO PUSH2 0x167D JUMPI PUSH2 0x167C PUSH2 0x1595 JUMP JUMPDEST JUMPDEST PUSH2 0x1688 DUP5 DUP3 DUP6 PUSH2 0x1641 JUMP JUMPDEST POP SWAP4 SWAP3 POP POP POP JUMP JUMPDEST PUSH0 DUP3 PUSH1 0x1F DUP4 ADD SLT PUSH2 0x16A4 JUMPI PUSH2 0x16A3 PUSH2 0x1591 JUMP JUMPDEST JUMPDEST DUP2 CALLDATALOAD PUSH2 0x16B4 DUP5 DUP3 PUSH1 0x20 DUP7 ADD PUSH2 0x164F JUMP JUMPDEST SWAP2 POP POP SWAP3 SWAP2 POP POP JUMP JUMPDEST PUSH0 DUP1 PUSH0 DUP1 PUSH1 0x80 DUP6 DUP8 SUB SLT ISZERO PUSH2 0x16D5 JUMPI PUSH2 0x16D4 PUSH2 0x1389 JUMP JUMPDEST JUMPDEST PUSH0 DUP6 ADD CALLDATALOAD PUSH8 0xFFFFFFFFFFFFFFFF DUP2 GT ISZERO PUSH2 0x16F2 JUMPI PUSH2 0x16F1 PUSH2 0x138D JUMP JUMPDEST JUMPDEST PUSH2 0x16FE DUP8 DUP3 DUP9 ADD PUSH2 0x1690 JUMP JUMPDEST SWAP5 POP POP PUSH1 0x20 DUP6 ADD CALLDATALOAD PUSH8 0xFFFFFFFFFFFFFFFF DUP2 GT ISZERO PUSH2 0x171F JUMPI PUSH2 0x171E PUSH2 0x138D JUMP JUMPDEST JUMPDEST PUSH2 0x172B DUP8 DUP3 DUP9 ADD PUSH2 0x1690 JUMP JUMPDEST SWAP4 POP POP PUSH1 0x40 PUSH2 0x173C DUP8 DUP3 DUP9 ADD PUSH2 0x13D7 JUMP JUMPDEST SWAP3 POP POP PUSH1 0x60 PUSH2 0x174D DUP8 DUP3 DUP9 ADD PUSH2 0x140A JUMP JUMPDEST SWAP2 POP POP SWAP3 SWAP6 SWAP2 SWAP5 POP SWAP3 POP JUMP JUMPDEST PUSH0 PUSH1 0x20 DUP3 ADD SWAP1 POP PUSH2 0x176C PUSH0 DUP4 ADD DUP5 PUSH2 0x1522 JUMP JUMPDEST SWAP3 SWAP2 POP POP JUMP JUMPDEST PUSH0 DUP2 MLOAD SWAP1 POP SWAP2 SWAP1 POP JUMP JUMPDEST PUSH0 DUP3 DUP3 MSTORE PUSH1 0x20 DUP3 ADD SWAP1 POP SWAP3 SWAP2 POP POP JUMP JUMPDEST PUSH0 DUP2 SWAP1 POP PUSH1 0x20 DUP3 ADD SWAP1 POP SWAP2 SWAP1 POP JUMP JUMPDEST PUSH0 DUP3 DUP3 MSTORE PUSH1 0x20 DUP3 ADD SWAP1 POP SWAP3 SWAP2 POP POP JUMP JUMPDEST PUSH0 PUSH2 0x17B5 DUP3 PUSH2 0x14B2 JUMP JUMPDEST PUSH2 0x17BF DUP2 DUP6 PUSH2 0x179B JUMP JUMPDEST SWAP4 POP PUSH2 0x17CF DUP2 DUP6 PUSH1 0x20 DUP7 ADD PUSH2 0x14CC JUMP JUMPDEST PUSH2 0x17D8 DUP2 PUSH2 0x14DA JUMP JUMPDEST DUP5 ADD SWAP2 POP POP SWAP3 SWAP2 POP POP JUMP JUMPDEST PUSH2 0x17EC DUP2 PUSH2 0x13B0 JUMP JUMPDEST DUP3 MSTORE POP POP JUMP JUMPDEST PUSH2 0x17FB DUP2 PUSH2 0x13EB JUMP JUMPDEST DUP3 MSTORE POP POP JUMP JUMPDEST PUSH0 PUSH1 0x80 DUP4 ADD PUSH0 DUP4 ADD MLOAD DUP5 DUP3 SUB PUSH0 DUP7 ADD MSTORE PUSH2 0x181B DUP3 DUP3 PUSH2 0x17AB JUMP JUMPDEST SWAP2 POP POP PUSH1 0x20 DUP4 ADD MLOAD DUP5 DUP3 SUB PUSH1 0x20 DUP7 ADD MSTORE PUSH2 0x1835 DUP3 DUP3 PUSH2 0x17AB JUMP JUMPDEST SWAP2 POP POP PUSH1 0x40 DUP4 ADD MLOAD PUSH2 0x184A PUSH1 0x40 DUP7 ADD DUP3 PUSH2 0x17E3 JUMP JUMPDEST POP PUSH1 0x60 DUP4 ADD MLOAD PUSH2 0x185D PUSH1 0x60 DUP7 ADD DUP3 PUSH2 0x17F2 JUMP JUMPDEST POP DUP1 SWAP2 POP POP SWAP3 SWAP2 POP POP JUMP JUMPDEST PUSH0 PUSH2 0x1873 DUP4 DUP4 PUSH2 0x1801 JUMP JUMPDEST SWAP1 POP SWAP3 SWAP2 POP POP JUMP JUMPDEST PUSH0 PUSH1 0x20 DUP3 ADD SWAP1 POP SWAP2 SWAP1 POP JUMP JUMPDEST PUSH0 PUSH2 0x1891 DUP3 PUSH2 0x1772 JUMP JUMPDEST PUSH2 0x189B DUP2 DUP6 PUSH2 0x177C JUMP JUMPDEST SWAP4 POP DUP4 PUSH1 0x20 DUP3 MUL DUP6 ADD PUSH2 0x18AD DUP6 PUSH2 0x178C JUMP JUMPDEST DUP1 PUSH0 JUMPDEST DUP6 DUP2 LT ISZERO PUSH2 0x18E8 JUMPI DUP5 DUP5 SUB DUP10 MSTORE DUP2 MLOAD PUSH2 0x18C9 DUP6 DUP3 PUSH2 0x1868 JUMP JUMPDEST SWAP5 POP PUSH2 0x18D4 DUP4 PUSH2 0x187B JUMP JUMPDEST SWAP3 POP PUSH1 0x20 DUP11 ADD SWAP10 POP POP PUSH1 0x1 DUP2 ADD SWAP1 POP PUSH2 0x18B0 JUMP JUMPDEST POP DUP3 SWAP8 POP DUP8 SWAP6 POP POP POP POP POP POP SWAP3 SWAP2 POP POP JUMP JUMPDEST PUSH0 PUSH1 0x20 DUP3 ADD SWAP1 POP DUP2 DUP2 SUB PUSH0 DUP4 ADD MSTORE PUSH2 0x1912 DUP2 DUP5 PUSH2 0x1887 JUMP JUMPDEST SWAP1 POP SWAP3 SWAP2 POP POP JUMP JUMPDEST PUSH0 PUSH1 0x40 DUP3 ADD SWAP1 POP PUSH2 0x192D PUSH0 DUP4 ADD DUP6 PUSH2 0x1522 JUMP JUMPDEST PUSH2 0x193A PUSH1 0x20 DUP4 ADD DUP5 PUSH2 0x1522 JUMP JUMPDEST SWAP4 SWAP3 POP POP POP JUMP JUMPDEST PUSH0 DUP2 MLOAD SWAP1 POP PUSH2 0x194F DUP2 PUSH2 0x13F4 JUMP JUMPDEST SWAP3 SWAP2 POP POP JUMP JUMPDEST PUSH0 PUSH1 0x20 DUP3 DUP5 SUB SLT ISZERO PUSH2 0x196A JUMPI PUSH2 0x1969 PUSH2 0x1389 JUMP JUMPDEST JUMPDEST PUSH0 PUSH2 0x1977 DUP5 DUP3 DUP6 ADD PUSH2 0x1941 JUMP JUMPDEST SWAP2 POP POP SWAP3 SWAP2 POP POP JUMP JUMPDEST PUSH32 0x496E73756666696369656E7420746F6B656E20616C6C6F77616E636500000000 PUSH0 DUP3 ADD MSTORE POP JUMP JUMPDEST PUSH0 PUSH2 0x19B4 PUSH1 0x1C DUP4 PUSH2 0x14BC JUMP JUMPDEST SWAP2 POP PUSH2 0x19BF DUP3 PUSH2 0x1980 JUMP JUMPDEST PUSH1 0x20 DUP3 ADD SWAP1 POP SWAP2 SWAP1 POP JUMP JUMPDEST PUSH0 PUSH1 0x20 DUP3 ADD SWAP1 POP DUP2 DUP2 SUB PUSH0 DUP4 ADD MSTORE PUSH2 0x19E1 DUP2 PUSH2 0x19A8 JUMP JUMPDEST SWAP1 POP SWAP2 SWAP1 POP JUMP JUMPDEST PUSH0 PUSH1 0x40 DUP3 ADD SWAP1 POP PUSH2 0x19FB PUSH0 DUP4 ADD DUP6 PUSH2 0x1522 JUMP JUMPDEST PUSH2 0x1A08 PUSH1 0x20 DUP4 ADD DUP5 PUSH2 0x1531 JUMP JUMPDEST SWAP4 SWAP3 POP POP POP JUMP JUMPDEST PUSH32 0x4E6F7420656E6F7567682045544820746F2072656465656D2073746F636B7300 PUSH0 DUP3 ADD MSTORE POP JUMP JUMPDEST PUSH0 PUSH2 0x1A43 PUSH1 0x1F DUP4 PUSH2 0x14BC JUMP JUMPDEST SWAP2 POP PUSH2 0x1A4E DUP3 PUSH2 0x1A0F JUMP JUMPDEST PUSH1 0x20 DUP3 ADD SWAP1 POP SWAP2 SWAP1 POP JUMP JUMPDEST PUSH0 PUSH1 0x20 DUP3 ADD SWAP1 POP DUP2 DUP2 SUB PUSH0 DUP4 ADD MSTORE PUSH2 0x1A70 DUP2 PUSH2 0x1A37 JUMP JUMPDEST SWAP1 POP SWAP2 SWAP1 POP JUMP JUMPDEST PUSH32 0x53746F636B206E6F7420666F756E640000000000000000000000000000000000 PUSH0 DUP3 ADD MSTORE POP JUMP JUMPDEST PUSH0 PUSH2 0x1AAB PUSH1 0xF DUP4 PUSH2 0x14BC JUMP JUMPDEST SWAP2 POP PUSH2 0x1AB6 DUP3 PUSH2 0x1A77 JUMP JUMPDEST PUSH1 0x20 DUP3 ADD SWAP1 POP SWAP2 SWAP1 POP JUMP JUMPDEST PUSH0 PUSH1 0x20 DUP3 ADD SWAP1 POP DUP2 DUP2 SUB PUSH0 DUP4 ADD MSTORE PUSH2 0x1AD8 DUP2 PUSH2 0x1A9F JUMP JUMPDEST SWAP1 POP SWAP2 SWAP1 POP JUMP JUMPDEST PUSH32 0x4E487B7100000000000000000000000000000000000000000000000000000000 PUSH0 MSTORE PUSH1 0x32 PUSH1 0x4 MSTORE PUSH1 0x24 PUSH0 REVERT JUMPDEST PUSH32 0x4E487B7100000000000000000000000000000000000000000000000000000000 PUSH0 MSTORE PUSH1 0x22 PUSH1 0x4 MSTORE PUSH1 0x24 PUSH0 REVERT JUMPDEST PUSH0 PUSH1 0x2 DUP3 DIV SWAP1 POP PUSH1 0x1 DUP3 AND DUP1 PUSH2 0x1B50 JUMPI PUSH1 0x7F DUP3 AND SWAP2 POP JUMPDEST PUSH1 0x20 DUP3 LT DUP2 SUB PUSH2 0x1B63 JUMPI PUSH2 0x1B62 PUSH2 0x1B0C JUMP JUMPDEST JUMPDEST POP SWAP2 SWAP1 POP JUMP JUMPDEST PUSH32 0x4E487B7100000000000000000000000000000000000000000000000000000000 PUSH0 MSTORE PUSH1 0x11 PUSH1 0x4 MSTORE PUSH1 0x24 PUSH0 REVERT JUMPDEST PUSH0 PUSH2 0x1BA0 DUP3 PUSH2 0x13EB JUMP JUMPDEST SWAP2 POP PUSH2 0x1BAB DUP4 PUSH2 0x13EB JUMP JUMPDEST SWAP3 POP DUP3 DUP3 SUB SWAP1 POP DUP2 DUP2 GT ISZERO PUSH2 0x1BC3 JUMPI PUSH2 0x1BC2 PUSH2 0x1B69 JUMP JUMPDEST JUMPDEST SWAP3 SWAP2 POP POP JUMP JUMPDEST PUSH0 DUP2 SLOAD SWAP1 POP PUSH2 0x1BD7 DUP2 PUSH2 0x1B39 JUMP JUMPDEST SWAP1 POP SWAP2 SWAP1 POP JUMP JUMPDEST PUSH0 DUP2 SWAP1 POP DUP2 PUSH0 MSTORE PUSH1 0x20 PUSH0 KECCAK256 SWAP1 POP SWAP2 SWAP1 POP JUMP JUMPDEST PUSH0 PUSH1 0x20 PUSH1 0x1F DUP4 ADD DIV SWAP1 POP SWAP2 SWAP1 POP JUMP JUMPDEST PUSH0 DUP3 DUP3 SHL SWAP1 POP SWAP3 SWAP2 POP POP JUMP JUMPDEST PUSH0 PUSH1 0x8 DUP4 MUL PUSH2 0x1C3A PUSH32 0xFFFFFFFFFFFFFFFFFFFFFFFFFFFFFFFFFFFFFFFFFFFFFFFFFFFFFFFFFFFFFFFF DUP3 PUSH2 0x1BFF JUMP JUMPDEST PUSH2 0x1C44 DUP7 DUP4 PUSH2 0x1BFF JUMP JUMPDEST SWAP6 POP DUP1 NOT DUP5 AND SWAP4 POP DUP1 DUP7 AND DUP5 OR SWAP3 POP POP POP SWAP4 SWAP3 POP POP POP JUMP JUMPDEST PUSH0 DUP2 SWAP1 POP SWAP2 SWAP1 POP JUMP JUMPDEST PUSH0 PUSH2 0x1C7F PUSH2 0x1C7A PUSH2 0x1C75 DUP5 PUSH2 0x13EB JUMP JUMPDEST PUSH2 0x1C5C JUMP JUMPDEST PUSH2 0x13EB JUMP JUMPDEST SWAP1 POP SWAP2 SWAP1 POP JUMP JUMPDEST PUSH0 DUP2 SWAP1 POP SWAP2 SWAP1 POP JUMP JUMPDEST PUSH2 0x1C98 DUP4 PUSH2 0x1C65 JUMP JUMPDEST PUSH2 0x1CAC PUSH2 0x1CA4 DUP3 PUSH2 0x1C86 JUMP JUMPDEST DUP5 DUP5 SLOAD PUSH2 0x1C0B JUMP JUMPDEST DUP3 SSTORE POP POP POP POP JUMP JUMPDEST PUSH0 SWAP1 JUMP JUMPDEST PUSH2 0x1CC0 PUSH2 0x1CB4 JUMP JUMPDEST PUSH2 0x1CCB DUP2 DUP5 DUP5 PUSH2 0x1C8F JUMP JUMPDEST POP POP POP JUMP JUMPDEST JUMPDEST DUP2 DUP2 LT ISZERO PUSH2 0x1CEE JUMPI PUSH2 0x1CE3 PUSH0 DUP3 PUSH2 0x1CB8 JUMP JUMPDEST PUSH1 0x1 DUP2 ADD SWAP1 POP PUSH2 0x1CD1 JUMP JUMPDEST POP POP JUMP JUMPDEST PUSH1 0x1F DUP3 GT ISZERO PUSH2 0x1D33 JUMPI PUSH2 0x1D04 DUP2 PUSH2 0x1BDE JUMP JUMPDEST PUSH2 0x1D0D DUP5 PUSH2 0x1BF0 JUMP JUMPDEST DUP2 ADD PUSH1 0x20 DUP6 LT ISZERO PUSH2 0x1D1C JUMPI DUP2 SWAP1 POP JUMPDEST PUSH2 0x1D30 PUSH2 0x1D28 DUP6 PUSH2 0x1BF0 JUMP JUMPDEST DUP4 ADD DUP3 PUSH2 0x1CD0 JUMP JUMPDEST POP POP JUMPDEST POP POP POP JUMP JUMPDEST PUSH0 DUP3 DUP3 SHR SWAP1 POP SWAP3 SWAP2 POP POP JUMP JUMPDEST PUSH0 PUSH2 0x1D53 PUSH0 NOT DUP5 PUSH1 0x8 MUL PUSH2 0x1D38 JUMP JUMPDEST NOT DUP1 DUP4 AND SWAP2 POP POP SWAP3 SWAP2 POP POP JUMP JUMPDEST PUSH0 PUSH2 0x1D6B DUP4 DUP4 PUSH2 0x1D44 JUMP JUMPDEST SWAP2 POP DUP3 PUSH1 0x2 MUL DUP3 OR SWAP1 POP SWAP3 SWAP2 POP POP JUMP JUMPDEST DUP2 DUP2 SUB PUSH2 0x1D89 JUMPI POP POP PUSH2 0x1E5E JUMP JUMPDEST PUSH2 0x1D92 DUP3 PUSH2 0x1BC9 JUMP JUMPDEST PUSH8 0xFFFFFFFFFFFFFFFF DUP2 GT ISZERO PUSH2 0x1DAB JUMPI PUSH2 0x1DAA PUSH2 0x1599 JUMP JUMPDEST JUMPDEST PUSH2 0x1DB5 DUP3 SLOAD PUSH2 0x1B39 JUMP JUMPDEST PUSH2 0x1DC0 DUP3 DUP3 DUP6 PUSH2 0x1CF2 JUMP JUMPDEST PUSH0 PUSH1 0x1F DUP4 GT PUSH1 0x1 DUP2 EQ PUSH2 0x1DED JUMPI PUSH0 DUP5 ISZERO PUSH2 0x1DDB JUMPI DUP3 DUP8 ADD SLOAD SWAP1 POP JUMPDEST PUSH2 0x1DE5 DUP6 DUP3 PUSH2 0x1D60 JUMP JUMPDEST DUP7 SSTORE POP PUSH2 0x1E57 JUMP JUMPDEST PUSH1 0x1F NOT DUP5 AND PUSH2 0x1DFB DUP8 PUSH2 0x1BDE JUMP JUMPDEST SWAP7 POP PUSH2 0x1E06 DUP7 PUSH2 0x1BDE JUMP JUMPDEST PUSH0 JUMPDEST DUP3 DUP2 LT ISZERO PUSH2 0x1E2D JUMPI DUP5 DUP10 ADD SLOAD DUP3 SSTORE PUSH1 0x1 DUP3 ADD SWAP2 POP PUSH1 0x1 DUP6 ADD SWAP5 POP PUSH1 0x20 DUP2 ADD SWAP1 POP PUSH2 0x1E08 JUMP JUMPDEST DUP7 DUP4 LT ISZERO PUSH2 0x1E4A JUMPI DUP5 DUP10 ADD SLOAD PUSH2 0x1E46 PUSH1 0x1F DUP10 AND DUP3 PUSH2 0x1D44 JUMP JUMPDEST DUP4 SSTORE POP JUMPDEST PUSH1 0x1 PUSH1 0x2 DUP9 MUL ADD DUP9 SSTORE POP POP POP JUMPDEST POP POP POP POP POP POP JUMPDEST JUMP JUMPDEST PUSH32 0x4E487B7100000000000000000000000000000000000000000000000000000000 PUSH0 MSTORE PUSH1 0x31 PUSH1 0x4 MSTORE PUSH1 0x24 PUSH0 REVERT JUMPDEST PUSH0 PUSH1 0x60 DUP3 ADD SWAP1 POP DUP2 DUP2 SUB PUSH0 DUP4 ADD MSTORE PUSH2 0x1EA5 DUP2 DUP7 PUSH2 0x14EA JUMP JUMPDEST SWAP1 POP DUP2 DUP2 SUB PUSH1 0x20 DUP4 ADD MSTORE PUSH2 0x1EB9 DUP2 DUP6 PUSH2 0x14EA JUMP JUMPDEST SWAP1 POP PUSH2 0x1EC8 PUSH1 0x40 DUP4 ADD DUP5 PUSH2 0x1531 JUMP JUMPDEST SWAP5 SWAP4 POP POP POP POP JUMP JUMPDEST PUSH2 0x1ED9 DUP3 PUSH2 0x14B2 JUMP JUMPDEST PUSH8 0xFFFFFFFFFFFFFFFF DUP2 GT ISZERO PUSH2 0x1EF2 JUMPI PUSH2 0x1EF1 PUSH2 0x1599 JUMP JUMPDEST JUMPDEST PUSH2 0x1EFC DUP3 SLOAD PUSH2 0x1B39 JUMP JUMPDEST PUSH2 0x1F07 DUP3 DUP3 DUP6 PUSH2 0x1CF2 JUMP JUMPDEST PUSH0 PUSH1 0x20 SWAP1 POP PUSH1 0x1F DUP4 GT PUSH1 0x1 DUP2 EQ PUSH2 0x1F38 JUMPI PUSH0 DUP5 ISZERO PUSH2 0x1F26 JUMPI DUP3 DUP8 ADD MLOAD SWAP1 POP JUMPDEST PUSH2 0x1F30 DUP6 DUP3 PUSH2 0x1D60 JUMP JUMPDEST DUP7 SSTORE POP PUSH2 0x1F97 JUMP JUMPDEST PUSH1 0x1F NOT DUP5 AND PUSH2 0x1F46 DUP7 PUSH2 0x1BDE JUMP JUMPDEST PUSH0 JUMPDEST DUP3 DUP2 LT ISZERO PUSH2 0x1F6D JUMPI DUP5 DUP10 ADD MLOAD DUP3 SSTORE PUSH1 0x1 DUP3 ADD SWAP2 POP PUSH1 0x20 DUP6 ADD SWAP5 POP PUSH1 0x20 DUP2 ADD SWAP1 POP PUSH2 0x1F48 JUMP JUMPDEST DUP7 DUP4 LT ISZERO PUSH2 0x1F8A JUMPI DUP5 DUP10 ADD MLOAD PUSH2 0x1F86 PUSH1 0x1F DUP10 AND DUP3 PUSH2 0x1D44 JUMP JUMPDEST DUP4 SSTORE POP JUMPDEST PUSH1 0x1 PUSH1 0x2 DUP9 MUL ADD DUP9 SSTORE POP POP POP JUMPDEST POP POP POP POP POP POP JUMP JUMPDEST PUSH0 PUSH1 0x40 DUP3 ADD SWAP1 POP PUSH2 0x1FB2 PUSH0 DUP4 ADD DUP6 PUSH2 0x1531 JUMP JUMPDEST PUSH2 0x1FBF PUSH1 0x20 DUP4 ADD DUP5 PUSH2 0x1531 JUMP JUMPDEST SWAP4 SWAP3 POP POP POP JUMP JUMPDEST PUSH32 0x53746F636B2077697468207468697320636F6E74726163742061646472657373 PUSH0 DUP3 ADD MSTORE PUSH32 0x206E6F7420666F756E6400000000000000000000000000000000000000000000 PUSH1 0x20 DUP3 ADD MSTORE POP JUMP JUMPDEST PUSH0 PUSH2 0x2020 PUSH1 0x2A DUP4 PUSH2 0x14BC JUMP JUMPDEST SWAP2 POP PUSH2 0x202B DUP3 PUSH2 0x1FC6 JUMP JUMPDEST PUSH1 0x40 DUP3 ADD SWAP1 POP SWAP2 SWAP1 POP JUMP JUMPDEST PUSH0 PUSH1 0x20 DUP3 ADD SWAP1 POP DUP2 DUP2 SUB PUSH0 DUP4 ADD MSTORE PUSH2 0x204D DUP2 PUSH2 0x2014 JUMP JUMPDEST SWAP1 POP SWAP2 SWAP1 POP JUMP JUMPDEST PUSH32 0x596F75206D7573742073656E642045544820746F206D696E742073746F636B73 PUSH0 DUP3 ADD MSTORE POP JUMP JUMPDEST PUSH0 PUSH2 0x2088 PUSH1 0x20 DUP4 PUSH2 0x14BC JUMP JUMPDEST SWAP2 POP PUSH2 0x2093 DUP3 PUSH2 0x2054 JUMP JUMPDEST PUSH1 0x20 DUP3 ADD SWAP1 POP SWAP2 SWAP1 POP JUMP JUMPDEST PUSH0 PUSH1 0x20 DUP3 ADD SWAP1 POP DUP2 DUP2 SUB PUSH0 DUP4 ADD MSTORE PUSH2 0x20B5 DUP2 PUSH2 0x207C JUMP JUMPDEST SWAP1 POP SWAP2 SWAP1 POP JUMP JUMPDEST PUSH0 PUSH2 0x20C6 DUP3 PUSH2 0x13EB JUMP JUMPDEST SWAP2 POP PUSH2 0x20D1 DUP4 PUSH2 0x13EB JUMP JUMPDEST SWAP3 POP DUP3 DUP3 MUL PUSH2 0x20DF DUP2 PUSH2 0x13EB JUMP JUMPDEST SWAP2 POP DUP3 DUP3 DIV DUP5 EQ DUP4 ISZERO OR PUSH2 0x20F6 JUMPI PUSH2 0x20F5 PUSH2 0x1B69 JUMP JUMPDEST JUMPDEST POP SWAP3 SWAP2 POP POP JUMP JUMPDEST PUSH0 PUSH1 0x20 DUP3 ADD SWAP1 POP PUSH2 0x2110 PUSH0 DUP4 ADD DUP5 PUSH2 0x1531 JUMP JUMPDEST SWAP3 SWAP2 POP POP JUMP JUMPDEST PUSH32 0x4E487B7100000000000000000000000000000000000000000000000000000000 PUSH0 MSTORE PUSH1 0x12 PUSH1 0x4 MSTORE PUSH1 0x24 PUSH0 REVERT JUMPDEST PUSH0 PUSH2 0x214D DUP3 PUSH2 0x13EB JUMP JUMPDEST SWAP2 POP PUSH2 0x2158 DUP4 PUSH2 0x13EB JUMP JUMPDEST SWAP3 POP DUP3 PUSH2 0x2168 JUMPI PUSH2 0x2167 PUSH2 0x2116 JUMP JUMPDEST JUMPDEST DUP3 DUP3 DIV SWAP1 POP SWAP3 SWAP2 POP POP JUMP JUMPDEST PUSH32 0x53746F636B207072696365206D7573742062652067726561746572207468616E PUSH0 DUP3 ADD MSTORE PUSH32 0x207A65726F000000000000000000000000000000000000000000000000000000 PUSH1 0x20 DUP3 ADD MSTORE POP JUMP JUMPDEST PUSH0 PUSH2 0x21CD PUSH1 0x25 DUP4 PUSH2 0x14BC JUMP JUMPDEST SWAP2 POP PUSH2 0x21D8 DUP3 PUSH2 0x2173 JUMP JUMPDEST PUSH1 0x40 DUP3 ADD SWAP1 POP SWAP2 SWAP1 POP JUMP JUMPDEST PUSH0 PUSH1 0x20 DUP3 ADD SWAP1 POP DUP2 DUP2 SUB PUSH0 DUP4 ADD MSTORE PUSH2 0x21FA DUP2 PUSH2 0x21C1 JUMP JUMPDEST SWAP1 POP SWAP2 SWAP1 POP JUMP INVALID LOG2 PUSH5 0x6970667358 0x22 SLT KECCAK256 MCOPY KECCAK256 0xC9 OR STATICCALL 0xBB 0x4E 0x4F 0xCA 0xC1 CALL MOD AND 0xEA DUP1 DIV 0xF EXP 0xC2 0x26 SAR PUSH10 0xAEC7B221D5B2A3456F33 PUSH5 0x736F6C6343 STOP ADDMOD BYTE STOP CALLER "
		},
		"gasEstimates": {
			"creation": {
				"codeDepositCost": "1751800",
				"executionCost": "infinite",
				"totalCost": "infinite"
			},
			"external": {
				"addStock(string,string,address,uint256)": "infinite",
				"getAllStocks()": "infinite",
				"mintNewStock(address)": "infinite",
				"owner()": "2559",
				"redeemStock(address,uint256)": "infinite",
				"removeStock(address)": "infinite",
				"renounceOwnership()": "infinite",
				"setStockPrice(address,uint256)": "infinite",
				"stocks(uint256)": "infinite",
				"transferOwnership(address)": "infinite"
			},
			"internal": {
				"findEquivalentEthValue(uint256,address)": "infinite"
			}
		},
		"methodIdentifiers": {
			"addStock(string,string,address,uint256)": "2c7d3bdd",
			"getAllStocks()": "ade5a0a0",
			"mintNewStock(address)": "768955e2",
			"owner()": "8da5cb5b",
			"redeemStock(address,uint256)": "17df04e5",
			"removeStock(address)": "1d7dcba7",
			"renounceOwnership()": "715018a6",
			"setStockPrice(address,uint256)": "651cb0f9",
			"stocks(uint256)": "226b876c",
			"transferOwnership(address)": "f2fde38b"
		}
	},
	"abi": [
		{
			"inputs": [
				{
					"internalType": "address",
					"name": "initialOwner",
					"type": "address"
				}
			],
			"stateMutability": "nonpayable",
			"type": "constructor"
		},
		{
			"inputs": [
				{
					"internalType": "address",
					"name": "owner",
					"type": "address"
				}
			],
			"name": "OwnableInvalidOwner",
			"type": "error"
		},
		{
			"inputs": [
				{
					"internalType": "address",
					"name": "account",
					"type": "address"
				}
			],
			"name": "OwnableUnauthorizedAccount",
			"type": "error"
		},
		{
			"anonymous": false,
			"inputs": [
				{
					"indexed": false,
					"internalType": "string",
					"name": "shortName",
					"type": "string"
				},
				{
					"indexed": false,
					"internalType": "string",
					"name": "longName",
					"type": "string"
				},
				{
					"indexed": true,
					"internalType": "address",
					"name": "contractAddress",
					"type": "address"
				},
				{
					"indexed": false,
					"internalType": "uint256",
					"name": "stockPriceEth",
					"type": "uint256"
				}
			],
			"name": "AddedStock",
			"type": "event"
		},
		{
			"anonymous": false,
			"inputs": [
				{
					"indexed": true,
					"internalType": "address",
					"name": "recipient",
					"type": "address"
				},
				{
					"indexed": true,
					"internalType": "address",
					"name": "stockContract",
					"type": "address"
				},
				{
					"indexed": false,
					"internalType": "uint256",
					"name": "stockAmount",
					"type": "uint256"
				}
			],
			"name": "MintedStockForUser",
			"type": "event"
		},
		{
			"anonymous": false,
			"inputs": [
				{
					"indexed": true,
					"internalType": "address",
					"name": "previousOwner",
					"type": "address"
				},
				{
					"indexed": true,
					"internalType": "address",
					"name": "newOwner",
					"type": "address"
				}
			],
			"name": "OwnershipTransferred",
			"type": "event"
		},
		{
			"anonymous": false,
			"inputs": [
				{
					"indexed": false,
					"internalType": "string",
					"name": "shortName",
					"type": "string"
				},
				{
					"indexed": false,
					"internalType": "string",
					"name": "longName",
					"type": "string"
				},
				{
					"indexed": true,
					"internalType": "address",
					"name": "contractAddress",
					"type": "address"
				},
				{
					"indexed": false,
					"internalType": "uint256",
					"name": "stockPriceEth",
					"type": "uint256"
				}
			],
			"name": "RemovedStock",
			"type": "event"
		},
		{
			"anonymous": false,
			"inputs": [
				{
					"indexed": true,
					"internalType": "address",
					"name": "contractAddress",
					"type": "address"
				},
				{
					"indexed": false,
					"internalType": "uint256",
					"name": "oldPrice",
					"type": "uint256"
				},
				{
					"indexed": false,
					"internalType": "uint256",
					"name": "newPrice",
					"type": "uint256"
				}
			],
			"name": "UpdatedStockPrice",
			"type": "event"
		},
		{
			"inputs": [
				{
					"internalType": "string",
					"name": "shortName",
					"type": "string"
				},
				{
					"internalType": "string",
					"name": "longName",
					"type": "string"
				},
				{
					"internalType": "address",
					"name": "contractAddress",
					"type": "address"
				},
				{
					"internalType": "uint256",
					"name": "stockPriceEth",
					"type": "uint256"
				}
			],
			"name": "addStock",
			"outputs": [],
			"stateMutability": "nonpayable",
			"type": "function"
		},
		{
			"inputs": [],
			"name": "getAllStocks",
			"outputs": [
				{
					"components": [
						{
							"internalType": "string",
							"name": "shortName",
							"type": "string"
						},
						{
							"internalType": "string",
							"name": "longName",
							"type": "string"
						},
						{
							"internalType": "address",
							"name": "contractAddress",
							"type": "address"
						},
						{
							"internalType": "uint256",
							"name": "stockPriceEth",
							"type": "uint256"
						}
					],
					"internalType": "struct ManageStock.Stock[]",
					"name": "",
					"type": "tuple[]"
				}
			],
			"stateMutability": "view",
			"type": "function"
		},
		{
			"inputs": [
				{
					"internalType": "address",
					"name": "stockContractAddress",
					"type": "address"
				}
			],
			"name": "mintNewStock",
			"outputs": [],
			"stateMutability": "payable",
			"type": "function"
		},
		{
			"inputs": [],
			"name": "owner",
			"outputs": [
				{
					"internalType": "address",
					"name": "",
					"type": "address"
				}
			],
			"stateMutability": "view",
			"type": "function"
		},
		{
			"inputs": [
				{
					"internalType": "address",
					"name": "stockContractAddress",
					"type": "address"
				},
				{
					"internalType": "uint256",
					"name": "stockAmountInTokens",
					"type": "uint256"
				}
			],
			"name": "redeemStock",
			"outputs": [],
			"stateMutability": "payable",
			"type": "function"
		},
		{
			"inputs": [
				{
					"internalType": "address",
					"name": "contractAddress",
					"type": "address"
				}
			],
			"name": "removeStock",
			"outputs": [],
			"stateMutability": "nonpayable",
			"type": "function"
		},
		{
			"inputs": [],
			"name": "renounceOwnership",
			"outputs": [],
			"stateMutability": "nonpayable",
			"type": "function"
		},
		{
			"inputs": [
				{
					"internalType": "address",
					"name": "contractAddress",
					"type": "address"
				},
				{
					"internalType": "uint256",
					"name": "newPrice",
					"type": "uint256"
				}
			],
			"name": "setStockPrice",
			"outputs": [],
			"stateMutability": "nonpayable",
			"type": "function"
		},
		{
			"inputs": [
				{
					"internalType": "uint256",
					"name": "",
					"type": "uint256"
				}
			],
			"name": "stocks",
			"outputs": [
				{
					"internalType": "string",
					"name": "shortName",
					"type": "string"
				},
				{
					"internalType": "string",
					"name": "longName",
					"type": "string"
				},
				{
					"internalType": "address",
					"name": "contractAddress",
					"type": "address"
				},
				{
					"internalType": "uint256",
					"name": "stockPriceEth",
					"type": "uint256"
				}
			],
			"stateMutability": "view",
			"type": "function"
		},
		{
			"inputs": [
				{
					"internalType": "address",
					"name": "newOwner",
					"type": "address"
				}
			],
			"name": "transferOwnership",
			"outputs": [],
			"stateMutability": "nonpayable",
			"type": "function"
		}
	]
}